{
  "contractName": "Voting_System",
  "abi": [
    {
      "inputs": [],
      "payable": false,
      "stateMutability": "nonpayable",
      "type": "constructor"
    },
    {
      "constant": false,
      "inputs": [
        {
          "name": "addr",
          "type": "address"
        }
      ],
      "name": "makeSuperAdmin",
      "outputs": [],
      "payable": false,
      "stateMutability": "nonpayable",
      "type": "function"
    },
    {
      "constant": false,
      "inputs": [
        {
          "name": "admin",
          "type": "address"
        }
      ],
      "name": "addAdmin",
      "outputs": [],
      "payable": false,
      "stateMutability": "nonpayable",
      "type": "function"
    },
    {
      "constant": false,
      "inputs": [
        {
          "name": "admin",
          "type": "address"
        }
      ],
      "name": "removeAdmin",
      "outputs": [],
      "payable": false,
      "stateMutability": "nonpayable",
      "type": "function"
    },
    {
      "constant": true,
      "inputs": [],
      "name": "getAdmins",
      "outputs": [
        {
          "name": "",
          "type": "address[]"
        }
      ],
      "payable": false,
      "stateMutability": "view",
      "type": "function"
    },
    {
      "constant": false,
      "inputs": [
        {
          "name": "voter",
          "type": "address"
        }
      ],
      "name": "registerVoter",
      "outputs": [],
      "payable": false,
      "stateMutability": "nonpayable",
      "type": "function"
    },
    {
      "constant": false,
      "inputs": [
        {
          "name": "voter",
          "type": "address"
        }
      ],
      "name": "removeVoter",
      "outputs": [],
      "payable": false,
      "stateMutability": "nonpayable",
      "type": "function"
    },
    {
      "constant": true,
      "inputs": [],
      "name": "getRegisteredVoters",
      "outputs": [
        {
          "name": "",
          "type": "address[]"
        }
      ],
      "payable": false,
      "stateMutability": "view",
      "type": "function"
    },
    {
      "constant": false,
      "inputs": [
        {
          "name": "candidate",
          "type": "address"
        }
      ],
      "name": "registerCandidate",
      "outputs": [],
      "payable": false,
      "stateMutability": "nonpayable",
      "type": "function"
    },
    {
      "constant": false,
      "inputs": [
        {
          "name": "candidate",
          "type": "address"
        }
      ],
      "name": "removeCandidate",
      "outputs": [],
      "payable": false,
      "stateMutability": "nonpayable",
      "type": "function"
    },
    {
      "constant": true,
      "inputs": [],
      "name": "getRegisteredCandidates",
      "outputs": [
        {
          "name": "",
          "type": "address[]"
        }
      ],
      "payable": false,
      "stateMutability": "view",
      "type": "function"
    },
    {
      "constant": false,
      "inputs": [
        {
          "name": "startDateTime",
          "type": "uint256"
        },
        {
          "name": "endDateTime",
          "type": "uint256"
        }
      ],
      "name": "setElectionDate",
      "outputs": [],
      "payable": false,
      "stateMutability": "nonpayable",
      "type": "function"
    },
    {
      "constant": false,
      "inputs": [
        {
          "name": "startDateTime",
          "type": "uint256"
        },
        {
          "name": "endDateTime",
          "type": "uint256"
        }
      ],
      "name": "setVoteCountDate",
      "outputs": [],
      "payable": false,
      "stateMutability": "nonpayable",
      "type": "function"
    },
    {
      "constant": false,
      "inputs": [
        {
          "name": "choiceHash",
          "type": "bytes32"
        }
      ],
      "name": "vote",
      "outputs": [],
      "payable": false,
      "stateMutability": "nonpayable",
      "type": "function"
    },
    {
      "constant": true,
      "inputs": [],
      "name": "getTotalVotesCast",
      "outputs": [
        {
          "name": "",
          "type": "uint256"
        }
      ],
      "payable": false,
      "stateMutability": "view",
      "type": "function"
    },
    {
      "constant": true,
      "inputs": [
        {
          "name": "candidate",
          "type": "address"
        },
        {
          "name": "nonces",
          "type": "bytes32[]"
        }
      ],
      "name": "getTotalVotesCandidate",
      "outputs": [
        {
          "name": "",
          "type": "uint256"
        }
      ],
      "payable": false,
      "stateMutability": "view",
      "type": "function"
    },
    {
      "constant": false,
      "inputs": [
        {
          "name": "nonces",
          "type": "bytes32[]"
        }
      ],
      "name": "countAllVotes",
      "outputs": [],
      "payable": false,
      "stateMutability": "nonpayable",
      "type": "function"
    }
  ],
  "bytecode": "0x608060405234801561001057600080fd5b5060008060006101000a81548173ffffffffffffffffffffffffffffffffffffffff021916908373ffffffffffffffffffffffffffffffffffffffff160217905550612152806100616000396000f3fe608060405234801561001057600080fd5b50600436106101005760003560e01c806376eed1741161009757806392e2c6d21161006657806392e2c6d214610522578063a69beaba14610540578063cd8d3a941461056e578063f4dcf0ad1461062657610100565b806376eed1741461036a57806384aa3b93146103ae57806385bf8c9b146103f257806386c1ff68146104de57610100565b8063396b9ae0116100d3578063396b9ae01461024b5780634039d4b9146102aa5780636dd091f9146102e2578063704802751461032657610100565b80631785f53c146101055780632bc4a6e71461014957806331ae450b146101a857806338db6dd314610207575b600080fd5b6101476004803603602081101561011b57600080fd5b81019080803573ffffffffffffffffffffffffffffffffffffffff16906020019092919050505061065e565b005b610151610864565b6040518080602001828103825283818151815260200191508051906020019060200280838360005b83811015610194578082015181840152602081019050610179565b505050509050019250505060405180910390f35b6101b0610950565b6040518080602001828103825283818151815260200191508051906020019060200280838360005b838110156101f35780820151818401526020810190506101d8565b505050509050019250505060405180910390f35b6102496004803603602081101561021d57600080fd5b81019080803573ffffffffffffffffffffffffffffffffffffffff169060200190929190505050610a3c565b005b610253610b03565b6040518080602001828103825283818151815260200191508051906020019060200280838360005b8381101561029657808201518184015260208101905061027b565b505050509050019250505060405180910390f35b6102e0600480360360408110156102c057600080fd5b810190808035906020019092919080359060200190929190505050610bef565b005b610324600480360360208110156102f857600080fd5b81019080803573ffffffffffffffffffffffffffffffffffffffff169060200190929190505050610c5f565b005b6103686004803603602081101561033c57600080fd5b81019080803573ffffffffffffffffffffffffffffffffffffffff169060200190929190505050610e6a565b005b6103ac6004803603602081101561038057600080fd5b81019080803573ffffffffffffffffffffffffffffffffffffffff169060200190929190505050610f5c565b005b6103f0600480360360208110156103c457600080fd5b81019080803573ffffffffffffffffffffffffffffffffffffffff169060200190929190505050611072565b005b6104c86004803603604081101561040857600080fd5b81019080803573ffffffffffffffffffffffffffffffffffffffff1690602001909291908035906020019064010000000081111561044557600080fd5b82018360208201111561045757600080fd5b8035906020019184602083028401116401000000008311171561047957600080fd5b919080806020026020016040519081016040528093929190818152602001838360200280828437600081840152601f19601f820116905080830192505050505050509192919290505050611197565b6040518082815260200191505060405180910390f35b610520600480360360208110156104f457600080fd5b81019080803573ffffffffffffffffffffffffffffffffffffffff1690602001909291905050506113b4565b005b61052a6115bf565b6040518082815260200191505060405180910390f35b61056c6004803603602081101561055657600080fd5b810190808035906020019092919050505061162a565b005b6106246004803603602081101561058457600080fd5b81019080803590602001906401000000008111156105a157600080fd5b8201836020820111156105b357600080fd5b803590602001918460208302840111640100000000831117156105d557600080fd5b919080806020026020016040519081016040528093929190818152602001838360200280828437600081840152601f19601f8201169050808301925050505050505091929192905050506117d9565b005b61065c6004803603604081101561063c57600080fd5b810190808035906020019092919080359060200190929190505050611a42565b005b61066733611ab2565b6106bc576040517f08c379a00000000000000000000000000000000000000000000000000000000081526004018080602001828103825260298152602001806120576029913960400191505060405180910390fd5b60008090505b60018054905081101561074a578173ffffffffffffffffffffffffffffffffffffffff16600182815481106106f357fe5b9060005260206000200160009054906101000a900473ffffffffffffffffffffffffffffffffffffffff1673ffffffffffffffffffffffffffffffffffffffff16141561073f5761074a565b6001810190506106c2565b60018080549050038110156108605760008190505b60018080549050038110156108085760018082018154811061077d57fe5b9060005260206000200160009054906101000a900473ffffffffffffffffffffffffffffffffffffffff16600182815481106107b557fe5b9060005260206000200160006101000a81548173ffffffffffffffffffffffffffffffffffffffff021916908373ffffffffffffffffffffffffffffffffffffffff16021790555060018101905061075f565b506001808080549050038154811061081c57fe5b9060005260206000200160006101000a81549073ffffffffffffffffffffffffffffffffffffffff0219169055600180548091906001900361085e9190611edb565b505b5050565b606061086f33611b0b565b6108c4576040517f08c379a00000000000000000000000000000000000000000000000000000000081526004018080602001828103825260218152602001806120366021913960400191505060405180910390fd5b600280548060200260200160405190810160405280929190818152602001828054801561094657602002820191906000526020600020905b8160009054906101000a900473ffffffffffffffffffffffffffffffffffffffff1673ffffffffffffffffffffffffffffffffffffffff16815260200190600101908083116108fc575b5050505050905090565b606061095b33611b0b565b6109b0576040517f08c379a00000000000000000000000000000000000000000000000000000000081526004018080602001828103825260298152602001806120ad6029913960400191505060405180910390fd5b6001805480602002602001604051908101604052809291908181526020018280548015610a3257602002820191906000526020600020905b8160009054906101000a900473ffffffffffffffffffffffffffffffffffffffff1673ffffffffffffffffffffffffffffffffffffffff16815260200190600101908083116109e8575b5050505050905090565b610a4533611b0b565b610a9a576040517f08c379a00000000000000000000000000000000000000000000000000000000081526004018080602001828103825260218152602001806120366021913960400191505060405180910390fd5b60028190806001815401808255809150509060018203906000526020600020016000909192909190916101000a81548173ffffffffffffffffffffffffffffffffffffffff021916908373ffffffffffffffffffffffffffffffffffffffff1602179055505050565b6060610b0e33611b0b565b610b63576040517f08c379a0000000000000000000000000000000000000000000000000000000008152600401808060200182810382526025815260200180611f526025913960400191505060405180910390fd5b6003805480602002602001604051908101604052809291908181526020018280548015610be557602002820191906000526020600020905b8160009054906101000a900473ffffffffffffffffffffffffffffffffffffffff1673ffffffffffffffffffffffffffffffffffffffff1681526020019060010190808311610b9b575b5050505050905090565b610bf833611b0b565b610c4d576040517f08c379a0000000000000000000000000000000000000000000000000000000008152600401808060200182810382526025815260200180611f2d6025913960400191505060405180910390fd5b81600681905550806007819055505050565b610c6833611b0b565b610cbd576040517f08c379a00000000000000000000000000000000000000000000000000000000081526004018080602001828103825260298152602001806120576029913960400191505060405180910390fd5b60008090505b600380549050811015610d4b578173ffffffffffffffffffffffffffffffffffffffff1660038281548110610cf457fe5b9060005260206000200160009054906101000a900473ffffffffffffffffffffffffffffffffffffffff1673ffffffffffffffffffffffffffffffffffffffff161415610d4057610d4b565b600181019050610cc3565b600160038054905003811015610e665760008190505b600160038054905003811015610e0c5760036001820181548110610d8157fe5b9060005260206000200160009054906101000a900473ffffffffffffffffffffffffffffffffffffffff1660038281548110610db957fe5b9060005260206000200160006101000a81548173ffffffffffffffffffffffffffffffffffffffff021916908373ffffffffffffffffffffffffffffffffffffffff160217905550600181019050610d61565b50600360016003805490500381548110610e2257fe5b9060005260206000200160006101000a81549073ffffffffffffffffffffffffffffffffffffffff02191690556003805480919060019003610e649190611edb565b505b5050565b610e7333611ab2565b610ee5576040517f08c379a00000000000000000000000000000000000000000000000000000000081526004018080602001828103825260208152602001807f4f6e6c792073757065722061646d696e2063616e206164642061646d696e732e81525060200191505060405180910390fd5b610eee81611b0b565b610f595760018190806001815401808255809150509060018203906000526020600020016000909192909190916101000a81548173ffffffffffffffffffffffffffffffffffffffff021916908373ffffffffffffffffffffffffffffffffffffffff160217905550505b50565b600073ffffffffffffffffffffffffffffffffffffffff166000809054906101000a900473ffffffffffffffffffffffffffffffffffffffff1673ffffffffffffffffffffffffffffffffffffffff161480610fbd5750610fbc33611ab2565b5b61102f576040517f08c379a00000000000000000000000000000000000000000000000000000000081526004018080602001828103825260208152602001807f5468652063616c6c65722073686f756c642062652073757065722061646d696e81525060200191505060405180910390fd5b806000806101000a81548173ffffffffffffffffffffffffffffffffffffffff021916908373ffffffffffffffffffffffffffffffffffffffff16021790555050565b61107b33611b0b565b6110d0576040517f08c379a0000000000000000000000000000000000000000000000000000000008152600401808060200182810382526025815260200180611f526025913960400191505060405180910390fd5b6110d981611baa565b61112e576040517f08c379a0000000000000000000000000000000000000000000000000000000008152600401808060200182810382526048815260200180611f776048913960600191505060405180910390fd5b60038190806001815401808255809150509060018203906000526020600020016000909192909190916101000a81548173ffffffffffffffffffffffffffffffffffffffff021916908373ffffffffffffffffffffffffffffffffffffffff1602179055505050565b60006111a233611b0b565b6111f7576040517f08c379a00000000000000000000000000000000000000000000000000000000081526004018080602001828103825260218152602001806120156021913960400191505060405180910390fd5b61120083611c49565b611272576040517f08c379a000000000000000000000000000000000000000000000000000000000815260040180806020018281038252601f8152602001807f43616e6469646174652073686f756c6420626520726567697374657265642e0081525060200191505060405180910390fd5b61127a611ce8565b6112cf576040517f08c379a0000000000000000000000000000000000000000000000000000000008152600401808060200182810382526033815260200180611fe26033913960400191505060405180910390fd5b600080905060008090505b83518110156113a9576000858583815181106112f257fe5b6020026020010151604051602001808373ffffffffffffffffffffffffffffffffffffffff1673ffffffffffffffffffffffffffffffffffffffff1660601b81526014018281526020019250505060405160208183030381529060405280519060200120905060008090505b60058054905081101561139c57816005828154811061137957fe5b90600052602060002001541415611391576001840193505b60018101905061135e565b50506001810190506112da565b508091505092915050565b6113bd33611b0b565b611412576040517f08c379a00000000000000000000000000000000000000000000000000000000081526004018080602001828103825260298152602001806120576029913960400191505060405180910390fd5b60008090505b6002805490508110156114a0578173ffffffffffffffffffffffffffffffffffffffff166002828154811061144957fe5b9060005260206000200160009054906101000a900473ffffffffffffffffffffffffffffffffffffffff1673ffffffffffffffffffffffffffffffffffffffff161415611495576114a0565b600181019050611418565b6001600280549050038110156115bb5760008190505b60016002805490500381101561156157600260018201815481106114d657fe5b9060005260206000200160009054906101000a900473ffffffffffffffffffffffffffffffffffffffff166002828154811061150e57fe5b9060005260206000200160006101000a81548173ffffffffffffffffffffffffffffffffffffffff021916908373ffffffffffffffffffffffffffffffffffffffff1602179055506001810190506114b6565b5060026001600280549050038154811061157757fe5b9060005260206000200160006101000a81549073ffffffffffffffffffffffffffffffffffffffff021916905560028054809190600190036115b99190611edb565b505b5050565b60006115ca33611b0b565b61161f576040517f08c379a00000000000000000000000000000000000000000000000000000000081526004018080602001828103825260218152602001806120156021913960400191505060405180910390fd5b600580549050905090565b61163333611baa565b611688576040517f08c379a0000000000000000000000000000000000000000000000000000000008152600401808060200182810382526023815260200180611fbf6023913960400191505060405180910390fd5b611690611d90565b6116e5576040517f08c379a000000000000000000000000000000000000000000000000000000000815260040180806020018281038252602d815260200180612080602d913960400191505060405180910390fd5b6116ee33611e38565b15611744576040517f08c379a000000000000000000000000000000000000000000000000000000000815260040180806020018281038252602d8152602001806120fa602d913960400191505060405180910390fd5b600581908060018154018082558091505090600182039060005260206000200160009091929091909150555060043390806001815401808255809150509060018203906000526020600020016000909192909190916101000a81548173ffffffffffffffffffffffffffffffffffffffff021916908373ffffffffffffffffffffffffffffffffffffffff1602179055505050565b6117e233611b0b565b611837576040517f08c379a00000000000000000000000000000000000000000000000000000000081526004018080602001828103825260218152602001806120156021913960400191505060405180910390fd5b61183f611ce8565b611894576040517f08c379a0000000000000000000000000000000000000000000000000000000008152600401808060200182810382526033815260200180611fe26033913960400191505060405180910390fd5b60008090505b8151811015611a3e5760008090505b600380549050811015611a32576000600382815481106118c557fe5b9060005260206000200160009054906101000a900473ffffffffffffffffffffffffffffffffffffffff168484815181106118fc57fe5b6020026020010151604051602001808373ffffffffffffffffffffffffffffffffffffffff1673ffffffffffffffffffffffffffffffffffffffff1660601b81526014018281526020019250505060405160208183030381529060405280519060200120905060008090505b600580549050811015611a2557816005828154811061198357fe5b90600052602060002001541415611a1a576001600a6000600386815481106119a757fe5b9060005260206000200160009054906101000a900473ffffffffffffffffffffffffffffffffffffffff1673ffffffffffffffffffffffffffffffffffffffff1673ffffffffffffffffffffffffffffffffffffffff168152602001908152602001600020600082825401925050819055505b600181019050611968565b50506001810190506118a9565b5060018101905061189a565b5050565b611a4b33611b0b565b611aa0576040517f08c379a00000000000000000000000000000000000000000000000000000000081526004018080602001828103825260248152602001806120d66024913960400191505060405180910390fd5b81600881905550806009819055505050565b60008060009054906101000a900473ffffffffffffffffffffffffffffffffffffffff1673ffffffffffffffffffffffffffffffffffffffff168273ffffffffffffffffffffffffffffffffffffffff16149050919050565b6000806000905060008090505b600180549050811015611ba0578373ffffffffffffffffffffffffffffffffffffffff1660018281548110611b4957fe5b9060005260206000200160009054906101000a900473ffffffffffffffffffffffffffffffffffffffff1673ffffffffffffffffffffffffffffffffffffffff161415611b9557600191505b600181019050611b18565b5080915050919050565b6000806000905060008090505b600280549050811015611c3f578373ffffffffffffffffffffffffffffffffffffffff1660028281548110611be857fe5b9060005260206000200160009054906101000a900473ffffffffffffffffffffffffffffffffffffffff1673ffffffffffffffffffffffffffffffffffffffff161415611c3457600191505b600181019050611bb7565b5080915050919050565b6000806000905060008090505b600380549050811015611cde578373ffffffffffffffffffffffffffffffffffffffff1660038281548110611c8757fe5b9060005260206000200160009054906101000a900473ffffffffffffffffffffffffffffffffffffffff1673ffffffffffffffffffffffffffffffffffffffff161415611cd357600191505b600181019050611c56565b5080915050919050565b60008060085414158015611cff5750600060095414155b611d71576040517f08c379a000000000000000000000000000000000000000000000000000000000815260040180806020018281038252601b8152602001807f566f746520636f756e74696e672064617465206e6f74207365742e000000000081525060200191505060405180910390fd5b60004290506008548110158015611d8a57506009548111155b91505090565b60008060065414158015611da75750600060075414155b611e19576040517f08c379a00000000000000000000000000000000000000000000000000000000081526004018080602001828103825260168152602001807f456c656374696f6e2064617465206e6f74207365742e0000000000000000000081525060200191505060405180910390fd5b60004290506006548110158015611e3257506007548111155b91505090565b6000806000905060008090505b600480549050811015611ed1578373ffffffffffffffffffffffffffffffffffffffff1660048281548110611e7657fe5b9060005260206000200160009054906101000a900473ffffffffffffffffffffffffffffffffffffffff1673ffffffffffffffffffffffffffffffffffffffff161415611ec65760019150611ed1565b600181019050611e45565b5080915050919050565b815481835581811115611f0257818360005260206000209182019101611f019190611f07565b5b505050565b611f2991905b80821115611f25576000816000905550600101611f0d565b5090565b9056fe4f6e6c792061646d696e732063616e2073657420616e20656c656374696f6e20646174652e4f6e6c792061646d696e732063616e20726567697374657220612063616e6469646174652e43616e6469646174652073686f756c642062652072656769737465726564206173206120766f74657220746f20626520726567697374657265642061732063616e64696461746521566f7465722073686f756c64206265207265676973746572656420746f20766f74652e566f7465732063616e20626520636f756e746564206f6e6c79206f6e2073657420766f746520636f756e74696e67206461792e4f6e6c792061646d696e732063616e2073656520766f74652063686f696365732e4f6e6c792061646d696e732063616e207265676973746572206120766f746572214f6e6c792073757065722061646d696e2063616e2072656d6f7665206f746865722061646d696e732e566f74696e672063616e20626520646f6e65206f6e6c79206f6e2073657420656c656374696f6e20646174652e4f6e6c792061646d696e732063616e20676574206c697374206f66206f746865722061646d696e732e4f6e6c792061646d696e732063616e2073657420766f746520636f756e7420646174652e566f74657220686173206f6e6c79206f6e6520766f746520616e6420697420686173206265656e20636173742ea165627a7a72305820cbb674cd7fcfdb3657fefcee5a68cbd37b6ed1511c9771262144b1e8e6cc86860029",
  "source": "pragma solidity >=0.4.22 <0.6.0;\n\ncontract Voting_System\n{\n    address superAdmin;\n    address[] private admins;\n    address[] private voters;\n    address[] private candidates;\n    address[] private votedVoters;\n    bytes32[] private voteHashes;\n    uint256 private electionStartDateTime;\n    uint256 private electionEndDateTime;\n    uint256 private voteCountStartDateTime;\n    uint256 private voteCountEndDateTime;\n    mapping (address => uint) private candidateToVoteCount;\n\n    constructor () public {\n        superAdmin = address(0);\n    }\n\n    function addressIsSuperAdmin(address caller) private view returns(bool) {\n        return (caller == superAdmin);\n    }\n\n    function addressIsAdmin(address caller) private view returns(bool) {\n        bool caller_is_super_admin = false;\n        for(uint i = 0; i<admins.length; i += 1)\n        {\n            if(admins[i]==caller)\n            {\n                caller_is_super_admin = true;\n            }\n        }\n        return caller_is_super_admin;\n    }\n\n    function voterIsRegistered(address voter) private view returns (bool) {\n        bool voterRegistered = false;\n        for(uint i = 0; i<voters.length; i += 1)\n        {\n            if(voters[i] == voter)\n            {\n                voterRegistered = true;\n            }\n        }\n        return voterRegistered;\n    }\n\n    function candidateIsRegistered(address candidate) private view returns (bool) {\n        bool candidateRegistered = false;\n        for(uint i = 0; i<candidates.length; i += 1)\n        {\n            if(candidates[i] == candidate)\n            {\n                candidateRegistered = true;\n            }\n        }\n        return candidateRegistered;\n    }\n\n    function isElectionDay() private view returns (bool) {\n        require(electionStartDateTime != 0 && electionEndDateTime != 0, 'Election date not set.');\n        uint256 currentTime = now;\n        return (currentTime >= electionStartDateTime && currentTime <= electionEndDateTime);\n    }\n\n    function isVoteCountDay() private view returns (bool) {\n        require(voteCountStartDateTime != 0 && voteCountEndDateTime != 0, 'Vote counting date not set.');\n        uint256 current_time = now;\n        return (current_time >= voteCountStartDateTime && current_time <= voteCountEndDateTime);\n    }\n\n    function voterHasVoted(address voter) private view returns (bool) {\n        bool voterVoted = false;\n        for(uint i = 0; i<votedVoters.length; i += 1)\n        {\n            if(votedVoters[i] == voter)\n            {\n                voterVoted = true;\n                break;\n            }\n        }\n        return voterVoted;\n    }\n\n    function makeSuperAdmin(address addr) public\n    {\n        require(superAdmin == address(0) || addressIsSuperAdmin(msg.sender), 'The caller should be super admin');\n        superAdmin = addr;\n    }\n\n    function addAdmin(address admin) public {\n        require(addressIsSuperAdmin(msg.sender), 'Only super admin can add admins.');\n        if(!addressIsAdmin(admin))\n        {\n            admins.push(admin);\n        }\n    }\n\n    function removeAdmin(address admin) public {\n        require(addressIsSuperAdmin(msg.sender), 'Only super admin can remove other admins.');\n        uint index = 0;\n        for( ; index<admins.length; index += 1)\n        {\n            if(admins[index] == admin)\n            {\n                break;\n            }\n        }\n        if(index < admins.length-1)\n        {\n            for(uint i = index; i < admins.length-1 ; i += 1)\n            {\n                admins[i] = admins[i+1];\n            }\n            delete admins[admins.length-1];\n            admins.length--;\n        }\n    }\n\n    function getAdmins() public view returns (address[] memory){\n        require(addressIsAdmin(msg.sender),'Only admins can get list of other admins.');\n        return admins;\n    }\n\n    function registerVoter(address voter) public {\n        require(addressIsAdmin(msg.sender), 'Only admins can register a voter!');\n        voters.push(voter);\n    }\n\n    function removeVoter(address voter) public {\n        require(addressIsAdmin(msg.sender), 'Only super admin can remove other admins.');\n        uint index = 0;\n        for( ; index<voters.length; index += 1)\n        {\n            if(voters[index] == voter)\n            {\n                break;\n            }\n        }\n        if(index < voters.length-1)\n        {\n            for(uint i = index; i < voters.length-1 ; i += 1)\n            {\n                voters[i] = voters[i+1];\n            }\n            delete voters[voters.length-1];\n            voters.length--;\n        }\n    }\n\n    function getRegisteredVoters() public view returns (address[] memory) {\n        require(addressIsAdmin(msg.sender), 'Only admins can register a voter!');\n        return voters;\n    }\n\n    function registerCandidate(address candidate) public {\n        require(addressIsAdmin(msg.sender), 'Only admins can register a candidate.');\n        require(voterIsRegistered(candidate),'Candidate should be registered as a voter to be registered as candidate!');\n        candidates.push(candidate);\n    }\n\n    function removeCandidate(address candidate) public {\n        require(addressIsAdmin(msg.sender), 'Only super admin can remove other admins.');\n        uint index = 0;\n        for( ; index<candidates.length; index += 1)\n        {\n            if(candidates[index] == candidate)\n            {\n                break;\n            }\n        }\n        if(index < candidates.length-1)\n        {\n            for(uint i = index; i < candidates.length-1 ; i += 1)\n            {\n                candidates[i] = candidates[i+1];\n            }\n            delete candidates[candidates.length-1];\n            candidates.length--;\n        }\n    }\n\n    function getRegisteredCandidates() public view returns (address[] memory) {\n        require(addressIsAdmin(msg.sender), 'Only admins can register a candidate.');\n        return candidates;\n    }\n\n    function setElectionDate(uint256 startDateTime, uint256 endDateTime) public {\n        require(addressIsAdmin(msg.sender), 'Only admins can set an election date.');\n        electionStartDateTime = startDateTime;\n        electionEndDateTime = endDateTime;\n    }\n\n    function setVoteCountDate(uint256 startDateTime, uint256 endDateTime) public {\n        require(addressIsAdmin(msg.sender), 'Only admins can set vote count date.');\n        voteCountStartDateTime = startDateTime;\n        voteCountEndDateTime = endDateTime;\n    }\n\n    function vote(bytes32 choiceHash) public {\n        require(voterIsRegistered(msg.sender), 'Voter should be registered to vote.');\n        require(isElectionDay(),'Voting can be done only on set election date.');\n        require(!voterHasVoted(msg.sender), 'Voter has only one vote and it has been cast.');\n        voteHashes.push(choiceHash);\n        votedVoters.push(msg.sender);\n    }\n\n    function getTotalVotesCast() public view returns (uint) {\n        require(addressIsAdmin(msg.sender),'Only admins can see vote choices.');\n        return voteHashes.length;\n\n    }\n\n    function getTotalVotesCandidate(address candidate, bytes32[] memory nonces) public view returns (uint) {\n        require(addressIsAdmin(msg.sender),'Only admins can see vote choices.');\n        require(candidateIsRegistered(candidate),'Candidate should be registered.');\n        require(isVoteCountDay(),'Votes can be counted only on set vote counting day.');\n        uint totalVotes = 0;\n        for(uint i = 0; i<nonces.length; i += 1)\n        {\n            bytes32 candidateHash = keccak256(abi.encodePacked(candidate, nonces[i]));\n            for(uint j = 0; j<voteHashes.length; j += 1)\n            {\n                if(voteHashes[j] == candidateHash)\n                {\n                    totalVotes += 1;\n                }\n            }\n        }\n        return totalVotes;\n    }\n\n    function countAllVotes(bytes32[] memory nonces) public {\n        require(addressIsAdmin(msg.sender),'Only admins can see vote choices.');\n        require(isVoteCountDay(),'Votes can be counted only on set vote counting day.');\n        for(uint i = 0; i<nonces.length; i += 1)\n        {\n            for(uint j = 0; j<candidates.length; j += 1)\n            {\n                bytes32 candidateHash = keccak256(abi.encodePacked(candidates[j], nonces[i]));\n                for(uint k = 0; k<voteHashes.length; k += 1)\n                {\n                    if(voteHashes[k] == candidateHash)\n                    {\n                        candidateToVoteCount[candidates[j]] += 1;\n                    }\n                }\n            }\n        }\n    }\n}",
  "sourcePath": "/home/tarun/Documents/personal_projects/blockchain-voting-application/contracts/voting_system.sol",
  "compiler": {
    "name": "solc",
    "version": "0.5.8+commit.23d335f2.Emscripten.clang"
  },
  "schemaVersion": "3.0.16",
  "updatedAt": "2019-10-17T12:32:52.977Z",
  "devdoc": {
    "methods": {}
  },
  "userdoc": {
    "methods": {}
  }
}