{
  "contractName": "Voting_System",
  "abi": [
    {
      "inputs": [
        {
          "name": "total_consts",
          "type": "uint256"
        }
      ],
      "payable": false,
      "stateMutability": "nonpayable",
      "type": "constructor"
    },
    {
      "constant": false,
      "inputs": [
        {
          "name": "admin",
          "type": "address"
        }
      ],
      "name": "add_superAdmin",
      "outputs": [],
      "payable": false,
      "stateMutability": "nonpayable",
      "type": "function"
    },
    {
      "constant": false,
      "inputs": [
        {
          "name": "cAdmin",
          "type": "address"
        },
        {
          "name": "constituency",
          "type": "uint256"
        }
      ],
      "name": "add_constituencyAdmin",
      "outputs": [],
      "payable": false,
      "stateMutability": "nonpayable",
      "type": "function"
    },
    {
      "constant": false,
      "inputs": [],
      "name": "register_constituency",
      "outputs": [
        {
          "name": "",
          "type": "uint256"
        }
      ],
      "payable": false,
      "stateMutability": "nonpayable",
      "type": "function"
    },
    {
      "constant": false,
      "inputs": [
        {
          "name": "constituency",
          "type": "uint256"
        }
      ],
      "name": "register_votingCentre",
      "outputs": [
        {
          "name": "",
          "type": "uint256"
        }
      ],
      "payable": false,
      "stateMutability": "nonpayable",
      "type": "function"
    },
    {
      "constant": false,
      "inputs": [
        {
          "name": "voter",
          "type": "address"
        },
        {
          "name": "constituency",
          "type": "uint256"
        }
      ],
      "name": "register_voter",
      "outputs": [],
      "payable": false,
      "stateMutability": "nonpayable",
      "type": "function"
    },
    {
      "constant": false,
      "inputs": [
        {
          "name": "voter",
          "type": "address"
        },
        {
          "name": "voting_centre",
          "type": "uint256"
        }
      ],
      "name": "allocate_voter",
      "outputs": [],
      "payable": false,
      "stateMutability": "nonpayable",
      "type": "function"
    },
    {
      "constant": false,
      "inputs": [
        {
          "name": "candidate",
          "type": "address"
        },
        {
          "name": "constituency",
          "type": "uint256"
        }
      ],
      "name": "register_candidate",
      "outputs": [],
      "payable": false,
      "stateMutability": "nonpayable",
      "type": "function"
    },
    {
      "constant": false,
      "inputs": [
        {
          "name": "constituency",
          "type": "uint256"
        },
        {
          "name": "start_dateTime",
          "type": "uint256"
        },
        {
          "name": "end_dateTime",
          "type": "uint256"
        }
      ],
      "name": "set_electionDate",
      "outputs": [],
      "payable": false,
      "stateMutability": "nonpayable",
      "type": "function"
    },
    {
      "constant": false,
      "inputs": [
        {
          "name": "constituency",
          "type": "uint256"
        },
        {
          "name": "start_dateTime",
          "type": "uint256"
        },
        {
          "name": "end_dateTime",
          "type": "uint256"
        }
      ],
      "name": "set_voteCountDate",
      "outputs": [],
      "payable": false,
      "stateMutability": "nonpayable",
      "type": "function"
    },
    {
      "constant": false,
      "inputs": [
        {
          "name": "constituency",
          "type": "uint256"
        },
        {
          "name": "start_dateTime",
          "type": "uint256"
        },
        {
          "name": "end_dateTime",
          "type": "uint256"
        }
      ],
      "name": "set_resultDeclareDate",
      "outputs": [],
      "payable": false,
      "stateMutability": "nonpayable",
      "type": "function"
    },
    {
      "constant": true,
      "inputs": [
        {
          "name": "constituency",
          "type": "uint256"
        }
      ],
      "name": "get_allCandidates_constituency",
      "outputs": [
        {
          "name": "",
          "type": "address[]"
        }
      ],
      "payable": false,
      "stateMutability": "view",
      "type": "function"
    },
    {
      "constant": false,
      "inputs": [
        {
          "name": "constituency",
          "type": "uint256"
        },
        {
          "name": "voting_centre",
          "type": "uint256"
        },
        {
          "name": "candidate",
          "type": "address"
        }
      ],
      "name": "vote",
      "outputs": [],
      "payable": false,
      "stateMutability": "nonpayable",
      "type": "function"
    },
    {
      "constant": true,
      "inputs": [
        {
          "name": "voting_centre",
          "type": "uint256"
        }
      ],
      "name": "get_totalVotes_votingCentre",
      "outputs": [
        {
          "name": "",
          "type": "uint256"
        }
      ],
      "payable": false,
      "stateMutability": "view",
      "type": "function"
    },
    {
      "constant": true,
      "inputs": [
        {
          "name": "constituency",
          "type": "uint256"
        }
      ],
      "name": "get_totalVotes_constituency",
      "outputs": [
        {
          "name": "",
          "type": "uint256"
        }
      ],
      "payable": false,
      "stateMutability": "view",
      "type": "function"
    },
    {
      "constant": true,
      "inputs": [
        {
          "name": "candidate",
          "type": "address"
        },
        {
          "name": "constituency",
          "type": "uint256"
        }
      ],
      "name": "get_totalVotes_candidate",
      "outputs": [
        {
          "name": "",
          "type": "uint256"
        }
      ],
      "payable": false,
      "stateMutability": "view",
      "type": "function"
    },
    {
      "constant": false,
      "inputs": [
        {
          "name": "constituency",
          "type": "uint256"
        }
      ],
      "name": "get_constituency_winner",
      "outputs": [
        {
          "name": "",
          "type": "address[]"
        }
      ],
      "payable": false,
      "stateMutability": "nonpayable",
      "type": "function"
    }
  ],
  "bytecode": "0x608060405234801561001057600080fd5b50604051602080612f638339810180604052602081101561003057600080fd5b810190808051906020019092919050505080600581905550600060038190555060006004819055506000600781905550600060068190555060003390806001815401808255809150509060018203906000526020600020016000909192909190916101000a81548173ffffffffffffffffffffffffffffffffffffffff021916908373ffffffffffffffffffffffffffffffffffffffff1602179055505050612e85806100de6000396000f3fe608060405234801561001057600080fd5b50600436106101005760003560e01c8063639b146611610097578063c813f23611610066578063c813f236146104b5578063ce64599e14610503578063d1d744cf14610565578063d87bcde6146105a957610100565b8063639b1466146103545780636e5d07e1146103d7578063b1e7367f14610425578063c61f66881461046757610100565b8063336e0d81116100d3578063336e0d811461024e5780633fb7292c1461026c57806350d91583146102ae5780635e0a75ad1461030657610100565b80630fe84cff1461010557806310a0e105146101475780631306f66d1461018957806327fa43b8146101cb575b600080fd5b6101456004803603606081101561011b57600080fd5b810190808035906020019092919080359060200190929190803590602001909291905050506105eb565b005b6101876004803603606081101561015d57600080fd5b81019080803590602001909291908035906020019092919080359060200190929190505050610750565b005b6101b56004803603602081101561019f57600080fd5b81019080803590602001909291905050506108b5565b6040518082815260200191505060405180910390f35b6101f7600480360360208110156101e157600080fd5b8101908080359060200190929190505050610ac5565b6040518080602001828103825283818151815260200191508051906020019060200280838360005b8381101561023a57808201518184015260208101905061021f565b505050509050019250505060405180910390f35b610256610fe8565b6040518082815260200191505060405180910390f35b6102986004803603602081101561028257600080fd5b81019080803590602001909291905050506110e0565b6040518082815260200191505060405180910390f35b610304600480360360608110156102c457600080fd5b810190808035906020019092919080359060200190929190803573ffffffffffffffffffffffffffffffffffffffff169060200190929190505050611201565b005b6103526004803603604081101561031c57600080fd5b81019080803573ffffffffffffffffffffffffffffffffffffffff16906020019092919080359060200190929190505050611570565b005b6103806004803603602081101561036a57600080fd5b8101908080359060200190929190505050611730565b6040518080602001828103825283818151815260200191508051906020019060200280838360005b838110156103c35780820151818401526020810190506103a8565b505050509050019250505060405180910390f35b610423600480360360408110156103ed57600080fd5b81019080803573ffffffffffffffffffffffffffffffffffffffff169060200190929190803590602001909291905050506118b7565b005b6104656004803603606081101561043b57600080fd5b81019080803590602001909291908035906020019092919080359060200190929190505050611af2565b005b6104b36004803603604081101561047d57600080fd5b81019080803573ffffffffffffffffffffffffffffffffffffffff16906020019092919080359060200190929190505050611c57565b005b610501600480360360408110156104cb57600080fd5b81019080803573ffffffffffffffffffffffffffffffffffffffff16906020019092919080359060200190929190505050611e10565b005b61054f6004803603604081101561051957600080fd5b81019080803573ffffffffffffffffffffffffffffffffffffffff16906020019092919080359060200190929190505050611fe9565b6040518082815260200191505060405180910390f35b6105a76004803603602081101561057b57600080fd5b81019080803573ffffffffffffffffffffffffffffffffffffffff16906020019092919050505061215f565b005b6105d5600480360360208110156105bf57600080fd5b8101908080359060200190929190505050612226565b6040518082815260200191505060405180910390f35b6006548310610662576040517f08c379a000000000000000000000000000000000000000000000000000000000815260040180806020018281038252601c8152602001807f436f6e7374697475656e6379206e6f742072656769737465726564210000000081525060200191505060405180910390fd5b61066b33612464565b8061067c575061067b3384612514565b5b6106d1576040517f08c379a0000000000000000000000000000000000000000000000000000000008152600401808060200182810382526042815260200180612ab56042913960600191505060405180910390fd5b600d6000848152602001908152602001600020829080600181540180825580915050906001820390600052602060002001600090919290919091505550600d6000848152602001908152602001600020819080600181540180825580915050906001820390600052602060002001600090919290919091505550505050565b60065483106107c7576040517f08c379a000000000000000000000000000000000000000000000000000000000815260040180806020018281038252601c8152602001807f436f6e7374697475656e6379206e6f742072656769737465726564210000000081525060200191505060405180910390fd5b6107d033612464565b806107e157506107e03384612514565b5b610836576040517f08c379a0000000000000000000000000000000000000000000000000000000008152600401808060200182810382526042815260200180612ab56042913960600191505060405180910390fd5b600c6000848152602001908152602001600020829080600181540180825580915050906001820390600052602060002001600090919290919091505550600c6000848152602001908152602001600020819080600181540180825580915050906001820390600052602060002001600090919290919091505550505050565b6000600654821061092e576040517f08c379a000000000000000000000000000000000000000000000000000000000815260040180806020018281038252601c8152602001807f436f6e7374697475656e6379206e6f742072656769737465726564210000000081525060200191505060405180910390fd5b610937826125e7565b61098c576040517f08c379a0000000000000000000000000000000000000000000000000000000008152600401808060200182810382526033815260200180612b6b6033913960400191505060405180910390fd5b61099533612464565b806109a657506109a53383612514565b5b6109fb576040517f08c379a0000000000000000000000000000000000000000000000000000000008152600401808060200182810382526039815260200180612d8a6039913960400191505060405180910390fd5b600080905060008090505b600b600085815260200190815260200160002080549050811015610abb5760026000600b60008781526020019081526020016000208381548110610a4657fe5b9060005260206000200160009054906101000a900473ffffffffffffffffffffffffffffffffffffffff1673ffffffffffffffffffffffffffffffffffffffff1673ffffffffffffffffffffffffffffffffffffffff1681526020019081526020016000205482019150600181019050610a06565b5080915050919050565b60606006548210610b3e576040517f08c379a000000000000000000000000000000000000000000000000000000000815260040180806020018281038252601c8152602001807f436f6e7374697475656e6379206e6f742072656769737465726564210000000081525060200191505060405180910390fd5b610b47826126cd565b610b9c576040517f08c379a0000000000000000000000000000000000000000000000000000000008152600401808060200182810382526035815260200180612d556035913960400191505060405180910390fd5b610ba533612464565b80610bb65750610bb53383612514565b5b610c0b576040517f08c379a0000000000000000000000000000000000000000000000000000000008152600401808060200182810382526039815260200180612d8a6039913960400191505060405180910390fd5b600080905060008090505b600b600085815260200190815260200160002080549050811015610f58578160026000600b60008881526020019081526020016000208481548110610c5757fe5b9060005260206000200160009054906101000a900473ffffffffffffffffffffffffffffffffffffffff1673ffffffffffffffffffffffffffffffffffffffff1673ffffffffffffffffffffffffffffffffffffffff168152602001908152602001600020541115610e0e5760106000610cd19190612a47565b6010600b60008681526020019081526020016000208281548110610cf157fe5b9060005260206000200160009054906101000a900473ffffffffffffffffffffffffffffffffffffffff1690806001815401808255809150509060018203906000526020600020016000909192909190916101000a81548173ffffffffffffffffffffffffffffffffffffffff021916908373ffffffffffffffffffffffffffffffffffffffff1602179055505060026000600b60008781526020019081526020016000208381548110610da157fe5b9060005260206000200160009054906101000a900473ffffffffffffffffffffffffffffffffffffffff1673ffffffffffffffffffffffffffffffffffffffff1673ffffffffffffffffffffffffffffffffffffffff168152602001908152602001600020549150610f4d565b8160026000600b60008881526020019081526020016000208481548110610e3157fe5b9060005260206000200160009054906101000a900473ffffffffffffffffffffffffffffffffffffffff1673ffffffffffffffffffffffffffffffffffffffff1673ffffffffffffffffffffffffffffffffffffffff168152602001908152602001600020541415610f4c576010600b60008681526020019081526020016000208281548110610ebd57fe5b9060005260206000200160009054906101000a900473ffffffffffffffffffffffffffffffffffffffff1690806001815401808255809150509060018203906000526020600020016000909192909190916101000a81548173ffffffffffffffffffffffffffffffffffffffff021916908373ffffffffffffffffffffffffffffffffffffffff160217905550505b5b600181019050610c16565b506010805480602002602001604051908101604052809291908181526020018280548015610fdb57602002820191906000526020600020905b8160009054906101000a900473ffffffffffffffffffffffffffffffffffffffff1673ffffffffffffffffffffffffffffffffffffffff1681526020019060010190808311610f91575b5050505050915050919050565b600060055460065410611063576040517f08c379a000000000000000000000000000000000000000000000000000000000815260040180806020018281038252601e8152602001807f416c6c20636f6e7374697475656e63696573207265676973746572656421000081525060200191505060405180910390fd5b61106c33612464565b6110c1576040517f08c379a000000000000000000000000000000000000000000000000000000000815260040180806020018281038252602c815260200180612b3f602c913960400191505060405180910390fd5b6000600654905060016006600082825401925050819055508091505090565b60006006548210611159576040517f08c379a000000000000000000000000000000000000000000000000000000000815260040180806020018281038252601c8152602001807f436f6e7374697475656e6379206e6f742072656769737465726564210000000081525060200191505060405180910390fd5b61116233612464565b8061117357506111723383612514565b5b6111c8576040517f08c379a0000000000000000000000000000000000000000000000000000000008152600401808060200182810382526044815260200180612dc36044913960600191505060405180910390fd5b60006007549050600160076000828254019250508190555082600960008381526020019081526020016000208190555080915050919050565b6006548310611278576040517f08c379a000000000000000000000000000000000000000000000000000000000815260040180806020018281038252601c8152602001807f436f6e7374697475656e6379206e6f742072656769737465726564210000000081525060200191505060405180910390fd5b60075482106112ef576040517f08c379a000000000000000000000000000000000000000000000000000000000815260040180806020018281038252601d8152602001807f566f74696e672063656e747265206e6f7420726567697374657265642100000081525060200191505060405180910390fd5b6112f933846127b3565b61134e576040517f08c379a0000000000000000000000000000000000000000000000000000000008152600401808060200182810382526023815260200180612d016023913960400191505060405180910390fd5b611358818461288a565b6113ad576040517f08c379a0000000000000000000000000000000000000000000000000000000008152600401808060200182810382526034815260200180612bdc6034913960400191505060405180910390fd5b6002600c6000858152602001908152602001600020805490501461141c576040517f08c379a0000000000000000000000000000000000000000000000000000000008152600401808060200182810382526026815260200180612e346026913960400191505060405180910390fd5b61142583612961565b61147a576040517f08c379a000000000000000000000000000000000000000000000000000000000815260040180806020018281038252602d815260200180612c10602d913960400191505060405180910390fd5b600f60003373ffffffffffffffffffffffffffffffffffffffff1673ffffffffffffffffffffffffffffffffffffffff16815260200190815260200160002060009054906101000a900460ff161561151d576040517f08c379a000000000000000000000000000000000000000000000000000000000815260040180806020018281038252602d815260200180612e07602d913960400191505060405180910390fd5b6001600260008373ffffffffffffffffffffffffffffffffffffffff1673ffffffffffffffffffffffffffffffffffffffff16815260200190815260200160002060008282540192505081905550505050565b60065481106115e7576040517f08c379a000000000000000000000000000000000000000000000000000000000815260040180806020018281038252601c8152602001807f436f6e7374697475656e6379206e6f742072656769737465726564210000000081525060200191505060405180910390fd5b6115f033612464565b8061160157506116003382612514565b5b611656576040517f08c379a0000000000000000000000000000000000000000000000000000000008152600401808060200182810382526042815260200180612ab56042913960600191505060405180910390fd5b61166082826127b3565b6116b5576040517f08c379a0000000000000000000000000000000000000000000000000000000008152600401808060200182810382526048815260200180612af76048913960600191505060405180910390fd5b600b60008281526020019081526020016000208290806001815401808255809150509060018203906000526020600020016000909192909190916101000a81548173ffffffffffffffffffffffffffffffffffffffff021916908373ffffffffffffffffffffffffffffffffffffffff160217905550505050565b606060065482106117a9576040517f08c379a000000000000000000000000000000000000000000000000000000000815260040180806020018281038252601c8152602001807f436f6e7374697475656e6379206e6f742072656769737465726564210000000081525060200191505060405180910390fd5b6117b233612464565b806117c357506117c23383612514565b5b611818576040517f08c379a0000000000000000000000000000000000000000000000000000000008152600401808060200182810382526042815260200180612ab56042913960600191505060405180910390fd5b600b60008381526020019081526020016000208054806020026020016040519081016040528092919081815260200182805480156118ab57602002820191906000526020600020905b8160009054906101000a900473ffffffffffffffffffffffffffffffffffffffff1673ffffffffffffffffffffffffffffffffffffffff1681526020019060010190808311611861575b50505050509050919050565b600654811061192e576040517f08c379a000000000000000000000000000000000000000000000000000000000815260040180806020018281038252601c8152602001807f436f6e7374697475656e6379206e6f742072656769737465726564210000000081525060200191505060405180910390fd5b61193733612464565b61198c576040517f08c379a000000000000000000000000000000000000000000000000000000000815260040180806020018281038252602e815260200180612ca6602e913960400191505060405180910390fd5b600080905060008090505b600080549050811015611a1f573373ffffffffffffffffffffffffffffffffffffffff16600082815481106119c857fe5b9060005260206000200160009054906101000a900473ffffffffffffffffffffffffffffffffffffffff1673ffffffffffffffffffffffffffffffffffffffff161415611a1457600191505b600181019050611997565b5080611a76576040517f08c379a000000000000000000000000000000000000000000000000000000000815260040180806020018281038252602e815260200180612ca6602e913960400191505060405180910390fd5b600160008381526020019081526020016000208390806001815401808255809150509060018203906000526020600020016000909192909190916101000a81548173ffffffffffffffffffffffffffffffffffffffff021916908373ffffffffffffffffffffffffffffffffffffffff16021790555050505050565b6006548310611b69576040517f08c379a000000000000000000000000000000000000000000000000000000000815260040180806020018281038252601c8152602001807f436f6e7374697475656e6379206e6f742072656769737465726564210000000081525060200191505060405180910390fd5b611b7233612464565b80611b835750611b823384612514565b5b611bd8576040517f08c379a0000000000000000000000000000000000000000000000000000000008152600401808060200182810382526042815260200180612ab56042913960600191505060405180910390fd5b600e6000848152602001908152602001600020829080600181540180825580915050906001820390600052602060002001600090919290919091505550600e6000848152602001908152602001600020819080600181540180825580915050906001820390600052602060002001600090919290919091505550505050565b6006548110611cce576040517f08c379a000000000000000000000000000000000000000000000000000000000815260040180806020018281038252601c8152602001807f436f6e7374697475656e6379206e6f742072656769737465726564210000000081525060200191505060405180910390fd5b611cd733612464565b80611ce85750611ce73382612514565b5b611d3d576040517f08c379a000000000000000000000000000000000000000000000000000000000815260040180806020018281038252603e815260200180612b9e603e913960400191505060405180910390fd5b600860008281526020019081526020016000208290806001815401808255809150509060018203906000526020600020016000909192909190916101000a81548173ffffffffffffffffffffffffffffffffffffffff021916908373ffffffffffffffffffffffffffffffffffffffff160217905550506000600f60008473ffffffffffffffffffffffffffffffffffffffff1673ffffffffffffffffffffffffffffffffffffffff16815260200190815260200160002060006101000a81548160ff0219169083151502179055505050565b6007548110611e87576040517f08c379a000000000000000000000000000000000000000000000000000000000815260040180806020018281038252601c8152602001807f566f74696e672063656e747265206e6f7420726567697374657265640000000081525060200191505060405180910390fd5b600060096000838152602001908152602001600020549050611ea833612464565b80611eb95750611eb83382612514565b5b611f0e576040517f08c379a000000000000000000000000000000000000000000000000000000000815260040180806020018281038252603e815260200180612b9e603e913960400191505060405180910390fd5b611f1883826127b3565b611f6d576040517f08c379a000000000000000000000000000000000000000000000000000000000815260040180806020018281038252603d815260200180612c3d603d913960400191505060405180910390fd5b600a60008381526020019081526020016000208390806001815401808255809150509060018203906000526020600020016000909192909190916101000a81548173ffffffffffffffffffffffffffffffffffffffff021916908373ffffffffffffffffffffffffffffffffffffffff16021790555050505050565b6000611ff5838361288a565b61204a576040517f08c379a0000000000000000000000000000000000000000000000000000000008152600401808060200182810382526034815260200180612bdc6034913960400191505060405180910390fd5b612053826125e7565b6120a8576040517f08c379a0000000000000000000000000000000000000000000000000000000008152600401808060200182810382526033815260200180612b6b6033913960400191505060405180910390fd5b6120b133612464565b806120c257506120c13383612514565b5b612117576040517f08c379a0000000000000000000000000000000000000000000000000000000008152600401808060200182810382526039815260200180612d8a6039913960400191505060405180910390fd5b600260008473ffffffffffffffffffffffffffffffffffffffff1673ffffffffffffffffffffffffffffffffffffffff16815260200190815260200160002054905092915050565b61216833612464565b6121bd576040517f08c379a000000000000000000000000000000000000000000000000000000000815260040180806020018281038252602d815260200180612cd4602d913960400191505060405180910390fd5b60008190806001815401808255809150509060018203906000526020600020016000909192909190916101000a81548173ffffffffffffffffffffffffffffffffffffffff021916908373ffffffffffffffffffffffffffffffffffffffff1602179055505050565b6000600754821061229f576040517f08c379a000000000000000000000000000000000000000000000000000000000815260040180806020018281038252601c8152602001807f566f74696e672063656e747265206e6f7420726567697374657265640000000081525060200191505060405180910390fd5b6000600960008481526020019081526020016000205490506122c0816125e7565b612315576040517f08c379a0000000000000000000000000000000000000000000000000000000008152600401808060200182810382526033815260200180612b6b6033913960400191505060405180910390fd5b61231e33612464565b8061232f575061232e3382612514565b5b612384576040517f08c379a0000000000000000000000000000000000000000000000000000000008152600401808060200182810382526039815260200180612d8a6039913960400191505060405180910390fd5b600080905060008090505b600a60008681526020019081526020016000208054905081101561245957600f6000600a600088815260200190815260200160002083815481106123cf57fe5b9060005260206000200160009054906101000a900473ffffffffffffffffffffffffffffffffffffffff1673ffffffffffffffffffffffffffffffffffffffff1673ffffffffffffffffffffffffffffffffffffffff16815260200190815260200160002060009054906101000a900460ff161561244e576001820191505b60018101905061238f565b508092505050919050565b6000806000905060008090505b6000805490508110156124f9578373ffffffffffffffffffffffffffffffffffffffff16600082815481106124a257fe5b9060005260206000200160009054906101000a900473ffffffffffffffffffffffffffffffffffffffff1673ffffffffffffffffffffffffffffffffffffffff1614156124ee57600191505b600181019050612471565b508061250957600091505061250f565b60019150505b919050565b6000806000905060008090505b60016000858152602001908152602001600020805490508110156125cb578473ffffffffffffffffffffffffffffffffffffffff1660016000868152602001908152602001600020828154811061257457fe5b9060005260206000200160009054906101000a900473ffffffffffffffffffffffffffffffffffffffff1673ffffffffffffffffffffffffffffffffffffffff1614156125c057600191505b600181019050612521565b50806125db5760009150506125e1565b60019150505b92915050565b60006002600d60008481526020019081526020016000208054905014612658576040517f08c379a000000000000000000000000000000000000000000000000000000000815260040180806020018281038252602c815260200180612c7a602c913960400191505060405180910390fd5b60004290506000600d600085815260200190815260200160002060008154811061267e57fe5b906000526020600020015482101580156126c15750600d60008581526020019081526020016000206001815481106126b257fe5b90600052602060002001548211155b90508092505050919050565b60006002600e6000848152602001908152602001600020805490501461273e576040517f08c379a0000000000000000000000000000000000000000000000000000000008152600401808060200182810382526031815260200180612d246031913960400191505060405180910390fd5b60004290506000600e600085815260200190815260200160002060008154811061276457fe5b906000526020600020015482101580156127a75750600e600085815260200190815260200160002060018154811061279857fe5b90600052602060002001548211155b90508092505050919050565b6000806000905060008090505b600860008581526020019081526020016000208054905081101561286e578473ffffffffffffffffffffffffffffffffffffffff1660086000868152602001908152602001600020828154811061281357fe5b9060005260206000200160009054906101000a900473ffffffffffffffffffffffffffffffffffffffff1673ffffffffffffffffffffffffffffffffffffffff161415612863576001915061286e565b6001810190506127c0565b508061287e576000915050612884565b60019150505b92915050565b6000806000905060008090505b600b600085815260200190815260200160002080549050811015612945578473ffffffffffffffffffffffffffffffffffffffff16600b600086815260200190815260200160002082815481106128ea57fe5b9060005260206000200160009054906101000a900473ffffffffffffffffffffffffffffffffffffffff1673ffffffffffffffffffffffffffffffffffffffff16141561293a5760019150612945565b600181019050612897565b508061295557600091505061295b565b60019150505b92915050565b60006002600c600084815260200190815260200160002080549050146129d2576040517f08c379a0000000000000000000000000000000000000000000000000000000008152600401808060200182810382526027815260200180612a8e6027913960400191505060405180910390fd5b60004290506000600c60008581526020019081526020016000206000815481106129f857fe5b90600052602060002001548210158015612a3b5750600c6000858152602001908152602001600020600181548110612a2c57fe5b90600052602060002001548211155b90508092505050919050565b5080546000825590600052602060002090810190612a659190612a68565b50565b612a8a91905b80821115612a86576000816000905550600101612a6e565b5090565b9056fe456c656374696f6e2064617465206e6f742073657420666f7220636f6e7374697475656e63792e4f6e6c792073757065722061646d696e73206f7220636f6e7374697475656e63792061646d696e732063616e20726567697374657220612063616e6469646174652143616e6469646174652073686f756c642062652072656769737465726564206173206120766f74657220746f20626520726567697374657265642061732063616e646964617465214f6e6c792073757065722061646d696e732063616e20726567697374657220636f6e7374697475656e637921566f7465732063616e20626520636f756e746564206f6e6c79206f6e2073657420766f746520636f756e74696e67206461792e4f6e6c792073757065722061646d696e73206f7220636f6e7374697475656e63792061646d696e732063616e207265676973746572206120766f7465722143616e6469646174652073686f756c64206265207265676973746572656420696e207468617420636f6e7374697475656e637921566f74696e672063616e20626520646f6e65206f6e6c79206f6e2073657420656c656374696f6e20646174652e566f7465722073686f756c64206265207265676973746572656420746f20616c6c6f6361746520766f74657220746f20766f74696e672063656e747265566f746520636f756e74696e672064617465206e6f742073657420666f7220636f6e7374697475656e63792e4f6e6c792073757065722061646d696e732063616e2061646420636f6e7374697475656e63792061646d696e73214f6e6c792073757065722061646d696e732063616e20616464206f746865722073757065722061646d696e7321566f7465722073686f756c64206265207265676973746572656420746f20766f746521526573756c74206465636c61726174696f6e2064617465206e6f742073657420666f7220636f6e7374697475656e63792e526573756c74732063616e20626520766965776564206f6e6c79206f6e20726573756c74206465636c61726174696f6e206461792e4f6e6c792073757065722061646d696e73206f7220636f6e7374697475656e63792061646d696e732063616e20636f756e7420766f746573214f6e6c792073757065722061646d696e73206f7220636f6e7374697475656e63792061646d696e732063616e20726567697374657220766f74696e672063656e74726521566f74657220686173206f6e6c79206f6e6520766f746520616e6420697420686173206265656e20636173742e456c656374696f6e20646179206e6f742073657420666f7220636f6e7374697475656e637921a165627a7a7230582041fd8d0ac92c7e0b3186815ab5001b5f077fbc3a5dd1bc141eba3d672a90c4dd0029",
  "source": "pragma solidity >=0.4.22 <0.6.0;\n\ncontract Voting_System\n{\n    address[] private super_admins;\n    mapping (uint => address[]) private constituencies_to_admins; //done\n    mapping (address => uint) private vote_count;\n    uint private total_admissible_voters;\n    uint private total_votes_cast;\n    uint private total_constituencies;\n    uint private registered_constituencies;\n    uint private registered_voting_centres;\n    mapping (uint => address[]) private constituency_to_voters; //done\n    mapping (uint => uint) private votingCentre_to_constituency; //done\n    mapping (uint => address[]) private votingCentre_to_voters; //done\n    mapping (uint => address[]) private constituency_to_candidates; //done\n    mapping (uint => uint256[]) private constituency_to_electionDateTime; //done\n    mapping (uint => uint256[]) private constituency_to_voteCountDateTime; //done\n    mapping (uint => uint256[]) private constituency_to_resultDeclareCountDateTime; //done\n    mapping (address => bool) private voter_to_votingStatus; //done\n    address[] private winning_candidates;\n\n    constructor (uint total_consts) public {\n        total_constituencies = total_consts;\n        total_admissible_voters = 0;\n        total_votes_cast = 0;\n        registered_voting_centres = 0;\n        registered_constituencies = 0;\n        super_admins.push(msg.sender);\n    }\n\n    function caller_is_superAdmin(address caller) private view returns(bool) {\n        bool caller_is_super_admin = false;\n        for(uint i = 0; i<super_admins.length; i += 1)\n        {\n            if(super_admins[i]==caller)\n            {\n                caller_is_super_admin = true;\n            }\n        }\n        if(!caller_is_super_admin)\n        {\n            return false;\n        }\n        return true;\n    }\n\n    function caller_is_constituencyAdmin(address caller, uint constituency) private view returns (bool) {\n        bool caller_is_cAdmin = false;\n        for(uint i = 0; i<constituencies_to_admins[constituency].length; i += 1)\n        {\n            if(constituencies_to_admins[constituency][i]==caller)\n            {\n                caller_is_cAdmin = true;\n            }\n        }\n        if(!caller_is_cAdmin)\n        {\n            return false;\n        }\n        return true;\n    }\n\n    function voter_is_registered(address voter, uint constituency) private view returns (bool) {\n        bool voter_registered = false;\n        for(uint i = 0; i<constituency_to_voters[constituency].length; i += 1)\n        {\n            if(constituency_to_voters[constituency][i] == voter)\n            {\n                voter_registered = true;\n                break;\n            }\n        }\n        if(!voter_registered)\n        {\n            return false;\n        }\n        return true;\n    }\n\n    function candidate_is_registered(address candidate, uint constituency) private view returns (bool) {\n        bool candidate_registered = false;\n        for(uint i = 0; i<constituency_to_candidates[constituency].length; i += 1)\n        {\n            if(constituency_to_candidates[constituency][i] == candidate)\n            {\n                candidate_registered = true;\n                break;\n            }\n        }\n        if(!candidate_registered)\n        {\n            return false;\n        }\n        return true;\n    }\n\n    function is_election_day(uint constituency) private view returns (bool) {\n        require(constituency_to_electionDateTime[constituency].length == 2, 'Election date not set for constituency.');\n        uint256 current_time = now;\n        bool is_electionDay = (current_time >= constituency_to_electionDateTime[constituency][0] && current_time <= constituency_to_electionDateTime[constituency][1]);\n        return is_electionDay;\n    }\n\n    function is_voteCount_day(uint constituency) private view returns (bool) {\n        require(constituency_to_voteCountDateTime[constituency].length == 2, 'Vote counting date not set for constituency.');\n        uint256 current_time = now;\n        bool is_voteCountDay = (current_time >= constituency_to_voteCountDateTime[constituency][0] && current_time <= constituency_to_voteCountDateTime[constituency][1]);\n        return is_voteCountDay;\n    }\n\n    function is_resultDeclaration_day(uint constituency) private view returns (bool) {\n        require(constituency_to_resultDeclareCountDateTime[constituency].length == 2, 'Result declaration date not set for constituency.');\n        uint256 current_time = now;\n        bool is_resultDeclarationDay = (current_time >= constituency_to_resultDeclareCountDateTime[constituency][0] && current_time <= constituency_to_resultDeclareCountDateTime[constituency][1]);\n        return is_resultDeclarationDay;\n    }\n\n    function add_superAdmin(address admin) public {\n        require(caller_is_superAdmin(msg.sender), 'Only super admins can add other super admins!');\n        super_admins.push(admin);\n    }\n\n    function add_constituencyAdmin(address cAdmin, uint constituency) public {\n        require(constituency < registered_constituencies, 'Constituency not registered!');\n        require(caller_is_superAdmin(msg.sender),'Only super admins can add constituency admins!');\n        bool caller_is_super_admin = false;\n        for(uint i = 0; i<super_admins.length; i += 1)\n        {\n            if(super_admins[i]==msg.sender)\n            {\n                caller_is_super_admin = true;\n            }\n        }\n        if(!caller_is_super_admin)\n        {\n            revert('Only super admins can add constituency admins!');\n        }\n        constituencies_to_admins[constituency].push(cAdmin);\n    }\n\n    function register_constituency() public returns (uint){\n        require(registered_constituencies < total_constituencies,'All constituencies registered!');\n        require(caller_is_superAdmin(msg.sender),'Only super admins can register constituency!');\n        uint ret_value = registered_constituencies;\n        registered_constituencies += 1;\n        return ret_value;\n    }\n\n    function register_votingCentre(uint constituency) public returns (uint) {\n        require(constituency < registered_constituencies, 'Constituency not registered!');\n        require((caller_is_superAdmin(msg.sender) || caller_is_constituencyAdmin(msg.sender,constituency)),'Only super admins or constituency admins can register voting centre!');\n        uint ret_value = registered_voting_centres;\n        registered_voting_centres += 1;\n        votingCentre_to_constituency[ret_value] = constituency;\n        return ret_value;\n    }\n\n    function register_voter(address voter, uint constituency) public {\n        require(constituency < registered_constituencies, 'Constituency not registered!');\n        require((caller_is_superAdmin(msg.sender) || caller_is_constituencyAdmin(msg.sender,constituency)),'Only super admins or constituency admins can register a voter!');\n        constituency_to_voters[constituency].push(voter);\n        voter_to_votingStatus[voter] = false;\n    }\n\n    function allocate_voter(address voter, uint voting_centre) public {\n        require(voting_centre < registered_voting_centres, 'Voting centre not registered');\n        uint constituency = votingCentre_to_constituency[voting_centre];\n        require((caller_is_superAdmin(msg.sender) || caller_is_constituencyAdmin(msg.sender,constituency)),'Only super admins or constituency admins can register a voter!');\n        require(voter_is_registered(voter,constituency),'Voter should be registered to allocate voter to voting centre');\n        votingCentre_to_voters[voting_centre].push(voter);\n    }\n\n    function register_candidate(address candidate, uint constituency) public {\n        require(constituency < registered_constituencies, 'Constituency not registered!');\n        require((caller_is_superAdmin(msg.sender) || caller_is_constituencyAdmin(msg.sender,constituency)),'Only super admins or constituency admins can register a candidate!');\n        require(voter_is_registered(candidate,constituency),'Candidate should be registered as a voter to be registered as candidate!');\n        constituency_to_candidates[constituency].push(candidate);\n    }\n\n    function set_electionDate(uint constituency, uint256 start_dateTime, uint256 end_dateTime) public {\n        require(constituency < registered_constituencies, 'Constituency not registered!');\n        require((caller_is_superAdmin(msg.sender) || caller_is_constituencyAdmin(msg.sender,constituency)),'Only super admins or constituency admins can register a candidate!');\n        constituency_to_electionDateTime[constituency].push(start_dateTime);\n        constituency_to_electionDateTime[constituency].push(end_dateTime);\n    }\n\n    function set_voteCountDate(uint constituency, uint256 start_dateTime, uint256 end_dateTime) public {\n        require(constituency < registered_constituencies, 'Constituency not registered!');\n        require((caller_is_superAdmin(msg.sender) || caller_is_constituencyAdmin(msg.sender,constituency)),'Only super admins or constituency admins can register a candidate!');\n        constituency_to_voteCountDateTime[constituency].push(start_dateTime);\n        constituency_to_voteCountDateTime[constituency].push(end_dateTime);\n    }\n\n    function set_resultDeclareDate(uint constituency, uint256 start_dateTime, uint256 end_dateTime) public {\n        require(constituency < registered_constituencies, 'Constituency not registered!');\n        require((caller_is_superAdmin(msg.sender) || caller_is_constituencyAdmin(msg.sender,constituency)),'Only super admins or constituency admins can register a candidate!');\n        constituency_to_resultDeclareCountDateTime[constituency].push(start_dateTime);\n        constituency_to_resultDeclareCountDateTime[constituency].push(end_dateTime);\n    }\n\n    function get_allCandidates_constituency(uint constituency) public view returns (address[] memory) {\n        require(constituency < registered_constituencies, 'Constituency not registered!');\n        require((caller_is_superAdmin(msg.sender) || caller_is_constituencyAdmin(msg.sender,constituency)),'Only super admins or constituency admins can register a candidate!');\n        return constituency_to_candidates[constituency];\n    }\n\n    function vote(uint constituency, uint voting_centre, address candidate) public {\n        require(constituency < registered_constituencies, 'Constituency not registered!');\n        require(voting_centre < registered_voting_centres, 'Voting centre not registered!');\n        require(voter_is_registered(msg.sender,constituency),'Voter should be registered to vote!');\n        require(candidate_is_registered(candidate,constituency),'Candidate should be registered in that constituency!');\n        require(constituency_to_electionDateTime[constituency].length == 2,'Election day not set for constituency!');\n        require(is_election_day(constituency),'Voting can be done only on set election date.');\n        require(!voter_to_votingStatus[msg.sender],'Voter has only one vote and it has been cast.');\n        vote_count[candidate] += 1;\n    }\n\n    function get_totalVotes_votingCentre(uint voting_centre) public view returns (uint) {\n        require(voting_centre < registered_voting_centres, 'Voting centre not registered');\n        uint constituency = votingCentre_to_constituency[voting_centre];\n        require(is_voteCount_day(constituency),'Votes can be counted only on set vote counting day.');\n        require((caller_is_superAdmin(msg.sender) || caller_is_constituencyAdmin(msg.sender,constituency)),'Only super admins or constituency admins can count votes!');\n        uint count = 0;\n        for(uint i = 0; i < votingCentre_to_voters[voting_centre].length; i += 1)\n        {\n            if(voter_to_votingStatus[votingCentre_to_voters[voting_centre][i]])\n            {\n                count += 1;\n            }\n        }\n        return count;\n    }\n\n    function get_totalVotes_constituency(uint constituency) public view returns (uint) {\n        require(constituency < registered_constituencies, 'Constituency not registered!');\n        require(is_voteCount_day(constituency),'Votes can be counted only on set vote counting day.');\n        require((caller_is_superAdmin(msg.sender) || caller_is_constituencyAdmin(msg.sender,constituency)),'Only super admins or constituency admins can count votes!');\n        uint count = 0;\n        for(uint i = 0; i < constituency_to_candidates[constituency].length; i += 1)\n        {\n            count += vote_count[constituency_to_candidates[constituency][i]];\n        }\n        return count;\n    }\n\n    function get_totalVotes_candidate(address candidate, uint constituency) public view returns (uint) {\n        require(candidate_is_registered(candidate,constituency),'Candidate should be registered in that constituency!');\n        require(is_voteCount_day(constituency),'Votes can be counted only on set vote counting day.');\n        require((caller_is_superAdmin(msg.sender) || caller_is_constituencyAdmin(msg.sender,constituency)),'Only super admins or constituency admins can count votes!');\n        return vote_count[candidate];\n    }\n\n    function get_constituency_winner(uint constituency) public returns (address[] memory) {\n        require(constituency < registered_constituencies, 'Constituency not registered!');\n        require(is_resultDeclaration_day(constituency),'Results can be viewed only on result declaration day.');\n        require((caller_is_superAdmin(msg.sender) || caller_is_constituencyAdmin(msg.sender,constituency)),'Only super admins or constituency admins can count votes!');\n        uint current_winner_count = 0;\n        for(uint i = 0; i < constituency_to_candidates[constituency].length; i += 1)\n        {\n            if(vote_count[constituency_to_candidates[constituency][i]] > current_winner_count)\n            {\n                delete winning_candidates;\n                winning_candidates.push(constituency_to_candidates[constituency][i]);\n                current_winner_count = vote_count[constituency_to_candidates[constituency][i]];\n            }\n            else if(vote_count[constituency_to_candidates[constituency][i]] == current_winner_count)\n            {\n                winning_candidates.push(constituency_to_candidates[constituency][i]);\n            }\n        }\n        return winning_candidates;\n    }\n}",
  "sourcePath": "/home/tarun/Documents/personal_projects/Indian-voting-system/contracts/voting_system.sol",
  "compiler": {
    "name": "solc",
    "version": "0.5.8+commit.23d335f2.Emscripten.clang"
  },
  "schemaVersion": "3.0.16",
  "updatedAt": "2019-10-07T10:33:28.284Z",
  "devdoc": {
    "methods": {}
  },
  "userdoc": {
    "methods": {}
  }
}