{
  "contractName": "Voting_System",
  "abi": [
    {
      "inputs": [],
      "payable": false,
      "stateMutability": "nonpayable",
      "type": "constructor"
    },
    {
      "constant": true,
      "inputs": [],
      "name": "getAdmins",
      "outputs": [
        {
          "name": "",
          "type": "address[]"
        }
      ],
      "payable": false,
      "stateMutability": "view",
      "type": "function"
    },
    {
      "constant": false,
      "inputs": [
        {
          "name": "admin",
          "type": "address"
        }
      ],
      "name": "addAdmin",
      "outputs": [],
      "payable": false,
      "stateMutability": "nonpayable",
      "type": "function"
    },
    {
      "constant": false,
      "inputs": [
        {
          "name": "admin",
          "type": "address"
        }
      ],
      "name": "removeAdmin",
      "outputs": [],
      "payable": false,
      "stateMutability": "nonpayable",
      "type": "function"
    },
    {
      "constant": false,
      "inputs": [
        {
          "name": "voter",
          "type": "address"
        }
      ],
      "name": "registerVoter",
      "outputs": [],
      "payable": false,
      "stateMutability": "nonpayable",
      "type": "function"
    },
    {
      "constant": true,
      "inputs": [],
      "name": "getRegisteredVoters",
      "outputs": [
        {
          "name": "",
          "type": "address[]"
        }
      ],
      "payable": false,
      "stateMutability": "view",
      "type": "function"
    },
    {
      "constant": false,
      "inputs": [
        {
          "name": "candidate",
          "type": "address"
        }
      ],
      "name": "registerCandidate",
      "outputs": [],
      "payable": false,
      "stateMutability": "nonpayable",
      "type": "function"
    },
    {
      "constant": true,
      "inputs": [],
      "name": "getRegisteredCandidates",
      "outputs": [
        {
          "name": "",
          "type": "address[]"
        }
      ],
      "payable": false,
      "stateMutability": "view",
      "type": "function"
    },
    {
      "constant": false,
      "inputs": [
        {
          "name": "startDateTime",
          "type": "uint256"
        },
        {
          "name": "endDateTime",
          "type": "uint256"
        }
      ],
      "name": "setElectionDate",
      "outputs": [],
      "payable": false,
      "stateMutability": "nonpayable",
      "type": "function"
    },
    {
      "constant": false,
      "inputs": [
        {
          "name": "startDateTime",
          "type": "uint256"
        },
        {
          "name": "endDateTime",
          "type": "uint256"
        }
      ],
      "name": "setVoteCountDate",
      "outputs": [],
      "payable": false,
      "stateMutability": "nonpayable",
      "type": "function"
    },
    {
      "constant": false,
      "inputs": [
        {
          "name": "startDateTime",
          "type": "uint256"
        },
        {
          "name": "endDateTime",
          "type": "uint256"
        }
      ],
      "name": "setResultDeclareDate",
      "outputs": [],
      "payable": false,
      "stateMutability": "nonpayable",
      "type": "function"
    },
    {
      "constant": false,
      "inputs": [
        {
          "name": "choiceHash",
          "type": "bytes32"
        }
      ],
      "name": "vote",
      "outputs": [],
      "payable": false,
      "stateMutability": "nonpayable",
      "type": "function"
    },
    {
      "constant": true,
      "inputs": [],
      "name": "getTotalVotesCast",
      "outputs": [
        {
          "name": "",
          "type": "uint256"
        }
      ],
      "payable": false,
      "stateMutability": "view",
      "type": "function"
    },
    {
      "constant": true,
      "inputs": [
        {
          "name": "candidate",
          "type": "address"
        },
        {
          "name": "nonces",
          "type": "bytes32[]"
        }
      ],
      "name": "getTotalVotesCandidate",
      "outputs": [
        {
          "name": "",
          "type": "uint256"
        }
      ],
      "payable": false,
      "stateMutability": "view",
      "type": "function"
    },
    {
      "constant": false,
      "inputs": [
        {
          "name": "nonces",
          "type": "bytes32[]"
        }
      ],
      "name": "countAllVotes",
      "outputs": [],
      "payable": false,
      "stateMutability": "nonpayable",
      "type": "function"
    },
    {
      "constant": true,
      "inputs": [],
      "name": "getElectionWinners",
      "outputs": [
        {
          "name": "",
          "type": "address[]"
        }
      ],
      "payable": false,
      "stateMutability": "view",
      "type": "function"
    }
  ],
  "bytecode": "0x608060405234801561001057600080fd5b5060003390806001815401808255809150509060018203906000526020600020016000909192909190916101000a81548173ffffffffffffffffffffffffffffffffffffffff021916908373ffffffffffffffffffffffffffffffffffffffff160217905550506121da806100866000396000f3fe608060405234801561001057600080fd5b50600436106100f55760003560e01c806384aa3b9311610097578063ad96d04811610066578063ad96d04814610497578063cd8d3a94146104cf578063f2516dbf14610587578063f4dcf0ad146105e6576100f5565b806384aa3b931461031b57806385bf8c9b1461035f57806392e2c6d21461044b578063a69beaba14610469576100f5565b806338db6dd3116100d357806338db6dd3146101fc578063396b9ae0146102405780634039d4b91461029f57806370480275146102d7576100f5565b80631785f53c146100fa5780632bc4a6e71461013e57806331ae450b1461019d575b600080fd5b61013c6004803603602081101561011057600080fd5b81019080803573ffffffffffffffffffffffffffffffffffffffff16906020019092919050505061061e565b005b610146610829565b6040518080602001828103825283818151815260200191508051906020019060200280838360005b8381101561018957808201518184015260208101905061016e565b505050509050019250505060405180910390f35b6101a5610915565b6040518080602001828103825283818151815260200191508051906020019060200280838360005b838110156101e85780820151818401526020810190506101cd565b505050509050019250505060405180910390f35b61023e6004803603602081101561021257600080fd5b81019080803573ffffffffffffffffffffffffffffffffffffffff169060200190929190505050610a01565b005b610248610ac8565b6040518080602001828103825283818151815260200191508051906020019060200280838360005b8381101561028b578082015181840152602081019050610270565b505050509050019250505060405180910390f35b6102d5600480360360408110156102b557600080fd5b810190808035906020019092919080359060200190929190505050610bb4565b005b610319600480360360208110156102ed57600080fd5b81019080803573ffffffffffffffffffffffffffffffffffffffff169060200190929190505050610c24565b005b61035d6004803603602081101561033157600080fd5b81019080803573ffffffffffffffffffffffffffffffffffffffff169060200190929190505050610cf9565b005b6104356004803603604081101561037557600080fd5b81019080803573ffffffffffffffffffffffffffffffffffffffff169060200190929190803590602001906401000000008111156103b257600080fd5b8201836020820111156103c457600080fd5b803590602001918460208302840111640100000000831117156103e657600080fd5b919080806020026020016040519081016040528093929190818152602001838360200280828437600081840152601f19601f820116905080830192505050505050509192919290505050610e1e565b6040518082815260200191505060405180910390f35b61045361103b565b6040518082815260200191505060405180910390f35b6104956004803603602081101561047f57600080fd5b81019080803590602001909291905050506110a6565b005b6104cd600480360360408110156104ad57600080fd5b810190808035906020019092919080359060200190929190505050611255565b005b610585600480360360208110156104e557600080fd5b810190808035906020019064010000000081111561050257600080fd5b82018360208201111561051457600080fd5b8035906020019184602083028401116401000000008311171561053657600080fd5b919080806020026020016040519081016040528093929190818152602001838360200280828437600081840152601f19601f8201169050808301925050505050505091929192905050506112c5565b005b61058f61152e565b6040518080602001828103825283818151815260200191508051906020019060200280838360005b838110156105d25780820151818401526020810190506105b7565b505050509050019250505060405180910390f35b61061c600480360360408110156105fc57600080fd5b8101908080359060200190929190803590602001909291905050506119b4565b005b61062733611a24565b61067c576040517f08c379a00000000000000000000000000000000000000000000000000000000081526004018080602001828103825260218152602001806121146021913960400191505060405180910390fd5b60008090505b60008054905081101561070a578173ffffffffffffffffffffffffffffffffffffffff16600082815481106106b357fe5b9060005260206000200160009054906101000a900473ffffffffffffffffffffffffffffffffffffffff1673ffffffffffffffffffffffffffffffffffffffff1614156106ff5761070a565b600181019050610682565b6001600080549050038110156108255760008190505b6001600080549050038110156107cb576000600182018154811061074057fe5b9060005260206000200160009054906101000a900473ffffffffffffffffffffffffffffffffffffffff166000828154811061077857fe5b9060005260206000200160006101000a81548173ffffffffffffffffffffffffffffffffffffffff021916908373ffffffffffffffffffffffffffffffffffffffff160217905550600181019050610720565b506000600160008054905003815481106107e157fe5b9060005260206000200160006101000a81549073ffffffffffffffffffffffffffffffffffffffff021916905560008054809190600190036108239190611f3f565b505b5050565b606061083433611a24565b610889576040517f08c379a000000000000000000000000000000000000000000000000000000000815260040180806020018281038252602181526020018061209a6021913960400191505060405180910390fd5b600180548060200260200160405190810160405280929190818152602001828054801561090b57602002820191906000526020600020905b8160009054906101000a900473ffffffffffffffffffffffffffffffffffffffff1673ffffffffffffffffffffffffffffffffffffffff16815260200190600101908083116108c1575b5050505050905090565b606061092033611a24565b610975576040517f08c379a00000000000000000000000000000000000000000000000000000000081526004018080602001828103825260298152602001806121356029913960400191505060405180910390fd5b60008054806020026020016040519081016040528092919081815260200182805480156109f757602002820191906000526020600020905b8160009054906101000a900473ffffffffffffffffffffffffffffffffffffffff1673ffffffffffffffffffffffffffffffffffffffff16815260200190600101908083116109ad575b5050505050905090565b610a0a33611a24565b610a5f576040517f08c379a000000000000000000000000000000000000000000000000000000000815260040180806020018281038252602181526020018061209a6021913960400191505060405180910390fd5b60018190806001815401808255809150509060018203906000526020600020016000909192909190916101000a81548173ffffffffffffffffffffffffffffffffffffffff021916908373ffffffffffffffffffffffffffffffffffffffff1602179055505050565b6060610ad333611a24565b610b28576040517f08c379a0000000000000000000000000000000000000000000000000000000008152600401808060200182810382526025815260200180611fb66025913960400191505060405180910390fd5b6002805480602002602001604051908101604052809291908181526020018280548015610baa57602002820191906000526020600020905b8160009054906101000a900473ffffffffffffffffffffffffffffffffffffffff1673ffffffffffffffffffffffffffffffffffffffff1681526020019060010190808311610b60575b5050505050905090565b610bbd33611a24565b610c12576040517f08c379a0000000000000000000000000000000000000000000000000000000008152600401808060200182810382526025815260200180611f916025913960400191505060405180910390fd5b81600581905550806006819055505050565b610c2d33611a24565b610c82576040517f08c379a00000000000000000000000000000000000000000000000000000000081526004018080602001828103825260218152602001806121146021913960400191505060405180910390fd5b610c8b81611ac3565b610cf65760008190806001815401808255809150509060018203906000526020600020016000909192909190916101000a81548173ffffffffffffffffffffffffffffffffffffffff021916908373ffffffffffffffffffffffffffffffffffffffff160217905550505b50565b610d0233611a24565b610d57576040517f08c379a0000000000000000000000000000000000000000000000000000000008152600401808060200182810382526025815260200180611fb66025913960400191505060405180910390fd5b610d6081611b66565b610db5576040517f08c379a0000000000000000000000000000000000000000000000000000000008152600401808060200182810382526048815260200180611fdb6048913960600191505060405180910390fd5b60028190806001815401808255809150509060018203906000526020600020016000909192909190916101000a81548173ffffffffffffffffffffffffffffffffffffffff021916908373ffffffffffffffffffffffffffffffffffffffff1602179055505050565b6000610e2933611a24565b610e7e576040517f08c379a00000000000000000000000000000000000000000000000000000000081526004018080602001828103825260218152602001806120796021913960400191505060405180910390fd5b610e8783611c05565b610ef9576040517f08c379a000000000000000000000000000000000000000000000000000000000815260040180806020018281038252601f8152602001807f43616e6469646174652073686f756c6420626520726567697374657265642e0081525060200191505060405180910390fd5b610f01611ca4565b610f56576040517f08c379a00000000000000000000000000000000000000000000000000000000081526004018080602001828103825260338152602001806120466033913960400191505060405180910390fd5b600080905060008090505b835181101561103057600085858381518110610f7957fe5b6020026020010151604051602001808373ffffffffffffffffffffffffffffffffffffffff1673ffffffffffffffffffffffffffffffffffffffff1660601b81526014018281526020019250505060405160208183030381529060405280519060200120905060008090505b60048054905081101561102357816004828154811061100057fe5b90600052602060002001541415611018576001840193505b600181019050610fe5565b5050600181019050610f61565b508091505092915050565b600061104633611a24565b61109b576040517f08c379a00000000000000000000000000000000000000000000000000000000081526004018080602001828103825260218152602001806120796021913960400191505060405180910390fd5b600480549050905090565b6110af33611b66565b611104576040517f08c379a00000000000000000000000000000000000000000000000000000000081526004018080602001828103825260238152602001806120236023913960400191505060405180910390fd5b61110c611d4c565b611161576040517f08c379a000000000000000000000000000000000000000000000000000000000815260040180806020018281038252602d8152602001806120bb602d913960400191505060405180910390fd5b61116a33611df4565b156111c0576040517f08c379a000000000000000000000000000000000000000000000000000000000815260040180806020018281038252602d815260200180612182602d913960400191505060405180910390fd5b600481908060018154018082558091505090600182039060005260206000200160009091929091909150555060033390806001815401808255809150509060018203906000526020600020016000909192909190916101000a81548173ffffffffffffffffffffffffffffffffffffffff021916908373ffffffffffffffffffffffffffffffffffffffff1602179055505050565b61125e33611a24565b6112b3576040517f08c379a000000000000000000000000000000000000000000000000000000000815260040180806020018281038252602c8152602001806120e8602c913960400191505060405180910390fd5b8160098190555080600a819055505050565b6112ce33611a24565b611323576040517f08c379a00000000000000000000000000000000000000000000000000000000081526004018080602001828103825260218152602001806120796021913960400191505060405180910390fd5b61132b611ca4565b611380576040517f08c379a00000000000000000000000000000000000000000000000000000000081526004018080602001828103825260338152602001806120466033913960400191505060405180910390fd5b60008090505b815181101561152a5760008090505b60028054905081101561151e576000600282815481106113b157fe5b9060005260206000200160009054906101000a900473ffffffffffffffffffffffffffffffffffffffff168484815181106113e857fe5b6020026020010151604051602001808373ffffffffffffffffffffffffffffffffffffffff1673ffffffffffffffffffffffffffffffffffffffff1660601b81526014018281526020019250505060405160208183030381529060405280519060200120905060008090505b60048054905081101561151157816004828154811061146f57fe5b90600052602060002001541415611506576001600b60006002868154811061149357fe5b9060005260206000200160009054906101000a900473ffffffffffffffffffffffffffffffffffffffff1673ffffffffffffffffffffffffffffffffffffffff1673ffffffffffffffffffffffffffffffffffffffff168152602001908152602001600020600082825401925050819055505b600181019050611454565b5050600181019050611395565b50600181019050611386565b5050565b606061153933611a24565b61158e576040517f08c379a00000000000000000000000000000000000000000000000000000000081526004018080602001828103825260218152602001806120796021913960400191505060405180910390fd5b611596611e97565b6115eb576040517f08c379a00000000000000000000000000000000000000000000000000000000081526004018080602001828103825260338152602001806120466033913960400191505060405180910390fd5b6000809050600080905060008090505b6002805490508110156117995782600b60006002848154811061161a57fe5b9060005260206000200160009054906101000a900473ffffffffffffffffffffffffffffffffffffffff1673ffffffffffffffffffffffffffffffffffffffff1673ffffffffffffffffffffffffffffffffffffffff16815260200190815260200160002054111561170857600b60006002838154811061169757fe5b9060005260206000200160009054906101000a900473ffffffffffffffffffffffffffffffffffffffff1673ffffffffffffffffffffffffffffffffffffffff1673ffffffffffffffffffffffffffffffffffffffff1681526020019081526020016000205492506001915061178e565b82600b60006002848154811061171a57fe5b9060005260206000200160009054906101000a900473ffffffffffffffffffffffffffffffffffffffff1673ffffffffffffffffffffffffffffffffffffffff1673ffffffffffffffffffffffffffffffffffffffff16815260200190815260200160002054141561178d576001820191505b5b6001810190506115fb565b506060816040519080825280602002602001820160405280156117cb5781602001602082028038833980820191505090505b509050600080905060008090505b6002805490508110156118f45784600b6000600284815481106117f857fe5b9060005260206000200160009054906101000a900473ffffffffffffffffffffffffffffffffffffffff1673ffffffffffffffffffffffffffffffffffffffff1673ffffffffffffffffffffffffffffffffffffffff1681526020019081526020016000205414156118e9576002818154811061187157fe5b9060005260206000200160009054906101000a900473ffffffffffffffffffffffffffffffffffffffff168383815181106118a857fe5b602002602001019073ffffffffffffffffffffffffffffffffffffffff16908173ffffffffffffffffffffffffffffffffffffffff16815250506001820191505b6001810190506117d9565b506060816040519080825280602002602001820160405280156119265781602001602082028038833980820191505090505b509050600080905060008090505b838110156119a75784818151811061194857fe5b602002602001015183838151811061195c57fe5b602002602001019073ffffffffffffffffffffffffffffffffffffffff16908173ffffffffffffffffffffffffffffffffffffffff1681525050600182019150600181019050611934565b5081965050505050505090565b6119bd33611a24565b611a12576040517f08c379a000000000000000000000000000000000000000000000000000000000815260040180806020018281038252602481526020018061215e6024913960400191505060405180910390fd5b81600781905550806008819055505050565b6000806000905060008090505b600080549050811015611ab9578373ffffffffffffffffffffffffffffffffffffffff1660008281548110611a6257fe5b9060005260206000200160009054906101000a900473ffffffffffffffffffffffffffffffffffffffff1673ffffffffffffffffffffffffffffffffffffffff161415611aae57600191505b600181019050611a31565b5080915050919050565b6000806000905060008090505b600080549050811015611b5c578373ffffffffffffffffffffffffffffffffffffffff1660008281548110611b0157fe5b9060005260206000200160009054906101000a900473ffffffffffffffffffffffffffffffffffffffff1673ffffffffffffffffffffffffffffffffffffffff161415611b515760019150611b5c565b600181019050611ad0565b5080915050919050565b6000806000905060008090505b600180549050811015611bfb578373ffffffffffffffffffffffffffffffffffffffff1660018281548110611ba457fe5b9060005260206000200160009054906101000a900473ffffffffffffffffffffffffffffffffffffffff1673ffffffffffffffffffffffffffffffffffffffff161415611bf057600191505b600181019050611b73565b5080915050919050565b6000806000905060008090505b600280549050811015611c9a578373ffffffffffffffffffffffffffffffffffffffff1660028281548110611c4357fe5b9060005260206000200160009054906101000a900473ffffffffffffffffffffffffffffffffffffffff1673ffffffffffffffffffffffffffffffffffffffff161415611c8f57600191505b600181019050611c12565b5080915050919050565b60008060075414158015611cbb5750600060085414155b611d2d576040517f08c379a000000000000000000000000000000000000000000000000000000000815260040180806020018281038252601b8152602001807f566f746520636f756e74696e672064617465206e6f74207365742e000000000081525060200191505060405180910390fd5b60004290506007548110158015611d4657506008548111155b91505090565b60008060055414158015611d635750600060065414155b611dd5576040517f08c379a00000000000000000000000000000000000000000000000000000000081526004018080602001828103825260168152602001807f456c656374696f6e2064617465206e6f74207365742e0000000000000000000081525060200191505060405180910390fd5b60004290506005548110158015611dee57506006548111155b91505090565b6000806000905060008090505b600380549050811015611e8d578373ffffffffffffffffffffffffffffffffffffffff1660038281548110611e3257fe5b9060005260206000200160009054906101000a900473ffffffffffffffffffffffffffffffffffffffff1673ffffffffffffffffffffffffffffffffffffffff161415611e825760019150611e8d565b600181019050611e01565b5080915050919050565b60008060095414158015611eae57506000600a5414155b611f20576040517f08c379a00000000000000000000000000000000000000000000000000000000081526004018080602001828103825260208152602001807f526573756c74206465636c61726174696f6e2064617465206e6f74207365742e81525060200191505060405180910390fd5b60004290506009548110158015611f395750600a548111155b91505090565b815481835581811115611f6657818360005260206000209182019101611f659190611f6b565b5b505050565b611f8d91905b80821115611f89576000816000905550600101611f71565b5090565b9056fe4f6e6c792061646d696e732063616e2073657420616e20656c656374696f6e20646174652e4f6e6c792061646d696e732063616e20726567697374657220612063616e6469646174652e43616e6469646174652073686f756c642062652072656769737465726564206173206120766f74657220746f20626520726567697374657265642061732063616e64696461746521566f7465722073686f756c64206265207265676973746572656420746f20766f74652e566f7465732063616e20626520636f756e746564206f6e6c79206f6e2073657420766f746520636f756e74696e67206461792e4f6e6c792061646d696e732063616e2073656520766f74652063686f696365732e4f6e6c792061646d696e732063616e207265676973746572206120766f74657221566f74696e672063616e20626520646f6e65206f6e6c79206f6e2073657420656c656374696f6e20646174652e4f6e6c792061646d696e732063616e2073657420726573756c74206465636c61726174696f6e20646174652e4f6e6c792061646d696e732063616e20616464206f746865722061646d696e732e4f6e6c792061646d696e732063616e20676574206c697374206f66206f746865722061646d696e732e4f6e6c792061646d696e732063616e2073657420766f746520636f756e7420646174652e566f74657220686173206f6e6c79206f6e6520766f746520616e6420697420686173206265656e20636173742ea165627a7a72305820c56a5a4da55df97a4d876a2c8aff8f6e3b76f8db17d2579ed5d02f8b910a10fd0029",
  "source": "pragma solidity >=0.4.22 <0.6.0;\n\ncontract Voting_System\n{\n    address[] private admins;\n    address[] private voters;\n    address[] private candidates;\n    address[] private votedVoters;\n    bytes32[] private voteHashes;\n    uint256 private electionStartDateTime;\n    uint256 private electionEndDateTime;\n    uint256 private voteCountStartDateTime;\n    uint256 private voteCountEndDateTime;\n    uint256 private resultDeclareStartDateTime;\n    uint256 private resultDeclareEndDateTime;\n    mapping (address => uint) private candidateToVoteCount;\n\n    constructor () public {\n        admins.push(msg.sender);\n    }\n\n    function callerIsAdmin(address caller) private view returns(bool) {\n        bool caller_is_super_admin = false;\n        for(uint i = 0; i<admins.length; i += 1)\n        {\n            if(admins[i]==caller)\n            {\n                caller_is_super_admin = true;\n            }\n        }\n        return caller_is_super_admin;\n    }\n\n    function voterIsRegistered(address voter) private view returns (bool) {\n        bool voterRegistered = false;\n        for(uint i = 0; i<voters.length; i += 1)\n        {\n            if(voters[i] == voter)\n            {\n                voterRegistered = true;\n            }\n        }\n        return voterRegistered;\n    }\n\n    function candidateIsRegistered(address candidate) private view returns (bool) {\n        bool candidateRegistered = false;\n        for(uint i = 0; i<candidates.length; i += 1)\n        {\n            if(candidates[i] == candidate)\n            {\n                candidateRegistered = true;\n            }\n        }\n        return candidateRegistered;\n    }\n\n    function isElectionDay() private view returns (bool) {\n        require(electionStartDateTime != 0 && electionEndDateTime != 0, 'Election date not set.');\n        uint256 currentTime = now;\n        return (currentTime >= electionStartDateTime && currentTime <= electionEndDateTime);\n    }\n\n    function isVoteCountDay() private view returns (bool) {\n        require(voteCountStartDateTime != 0 && voteCountEndDateTime != 0, 'Vote counting date not set.');\n        uint256 current_time = now;\n        return (current_time >= voteCountStartDateTime && current_time <= voteCountEndDateTime);\n    }\n\n    function isResultDeclarationDay() private view returns (bool) {\n        require(resultDeclareStartDateTime != 0 && resultDeclareEndDateTime != 0, 'Result declaration date not set.');\n        uint256 current_time = now;\n        return (current_time >= resultDeclareStartDateTime && current_time <= resultDeclareEndDateTime);\n    }\n\n    function voterHasVoted(address voter) private view returns (bool) {\n        bool voterVoted = false;\n        for(uint i = 0; i<votedVoters.length; i += 1)\n        {\n            if(votedVoters[i] == voter)\n            {\n                voterVoted = true;\n                break;\n            }\n        }\n        return voterVoted;\n    }\n\n    function adminAdded(address potentialAdmin) private view returns(bool) {\n        bool potentialAdminIsAdmin = false;\n        for(uint i = 0; i<admins.length; i += 1)\n        {\n            if(admins[i] == potentialAdmin)\n            {\n                potentialAdminIsAdmin = true;\n                break;\n            }\n        }\n        return potentialAdminIsAdmin;\n    }\n\n    function getAdmins() public view returns (address[] memory){\n        require(callerIsAdmin(msg.sender),'Only admins can get list of other admins.');\n        return admins;\n    }\n\n    function addAdmin(address admin) public {\n        require(callerIsAdmin(msg.sender), 'Only admins can add other admins.');\n        if(!adminAdded(admin))\n        {\n            admins.push(admin);\n        }\n    }\n\n    function removeAdmin(address admin) public {\n        require(callerIsAdmin(msg.sender), 'Only admins can add other admins.');\n        uint index = 0;\n        for( ; index<admins.length; index += 1)\n        {\n            if(admins[index] == admin)\n            {\n                break;\n            }\n        }\n        if(index < admins.length-1)\n        {\n            for(uint i = index; i < admins.length-1 ; i += 1)\n            {\n                admins[i] = admins[i+1];\n            }\n            delete admins[admins.length-1];\n            admins.length--;\n        }\n    }\n\n    function registerVoter(address voter) public {\n        require(callerIsAdmin(msg.sender), 'Only admins can register a voter!');\n        voters.push(voter);\n    }\n\n    function getRegisteredVoters() public view returns (address[] memory) {\n        require(callerIsAdmin(msg.sender), 'Only admins can register a voter!');\n        return voters;\n    }\n\n    function registerCandidate(address candidate) public {\n        require(callerIsAdmin(msg.sender), 'Only admins can register a candidate.');\n        require(voterIsRegistered(candidate),'Candidate should be registered as a voter to be registered as candidate!');\n        candidates.push(candidate);\n    }\n\n    function getRegisteredCandidates() public view returns (address[] memory) {\n        require(callerIsAdmin(msg.sender), 'Only admins can register a candidate.');\n        return candidates;\n    }\n\n    function setElectionDate(uint256 startDateTime, uint256 endDateTime) public {\n        require(callerIsAdmin(msg.sender), 'Only admins can set an election date.');\n        electionStartDateTime = startDateTime;\n        electionEndDateTime = endDateTime;\n    }\n\n    function setVoteCountDate(uint256 startDateTime, uint256 endDateTime) public {\n        require(callerIsAdmin(msg.sender), 'Only admins can set vote count date.');\n        voteCountStartDateTime = startDateTime;\n        voteCountEndDateTime = endDateTime;\n    }\n\n    function setResultDeclareDate(uint256 startDateTime, uint256 endDateTime) public {\n        require(callerIsAdmin(msg.sender), 'Only admins can set result declaration date.');\n        resultDeclareStartDateTime = startDateTime;\n        resultDeclareEndDateTime = endDateTime;\n    }\n\n    function vote(bytes32 choiceHash) public {\n        require(voterIsRegistered(msg.sender), 'Voter should be registered to vote.');\n        require(isElectionDay(),'Voting can be done only on set election date.');\n        require(!voterHasVoted(msg.sender), 'Voter has only one vote and it has been cast.');\n        voteHashes.push(choiceHash);\n        votedVoters.push(msg.sender);\n    }\n\n    function getTotalVotesCast() public view returns (uint) {\n        require(callerIsAdmin(msg.sender),'Only admins can see vote choices.');\n        return voteHashes.length;\n\n    }\n\n    function getTotalVotesCandidate(address candidate, bytes32[] memory nonces) public view returns (uint) {\n        require(callerIsAdmin(msg.sender),'Only admins can see vote choices.');\n        require(candidateIsRegistered(candidate),'Candidate should be registered.');\n        require(isVoteCountDay(),'Votes can be counted only on set vote counting day.');\n        uint totalVotes = 0;\n        for(uint i = 0; i<nonces.length; i += 1)\n        {\n            bytes32 candidateHash = keccak256(abi.encodePacked(candidate, nonces[i]));\n            for(uint j = 0; j<voteHashes.length; j += 1)\n            {\n                if(voteHashes[j] == candidateHash)\n                {\n                    totalVotes += 1;\n                }\n            }\n        }\n        return totalVotes;\n    }\n\n    function countAllVotes(bytes32[] memory nonces) public {\n        require(callerIsAdmin(msg.sender),'Only admins can see vote choices.');\n        require(isVoteCountDay(),'Votes can be counted only on set vote counting day.');\n        for(uint i = 0; i<nonces.length; i += 1)\n        {\n            for(uint j = 0; j<candidates.length; j += 1)\n            {\n                bytes32 candidateHash = keccak256(abi.encodePacked(candidates[j], nonces[i]));\n                for(uint k = 0; k<voteHashes.length; k += 1)\n                {\n                    if(voteHashes[k] == candidateHash)\n                    {\n                        candidateToVoteCount[candidates[j]] += 1;\n                    }\n                }\n            }\n        }\n    }\n\n    function getElectionWinners() public view returns (address[] memory) {\n        require(callerIsAdmin(msg.sender),'Only admins can see vote choices.');\n        require(isResultDeclarationDay(),'Votes can be counted only on set vote counting day.');\n        uint maxVotes = 0;\n        uint totalMaxVotes = 0;\n        for(uint i = 0; i<candidates.length; i += 1)\n        {\n            if(candidateToVoteCount[candidates[i]] > maxVotes)\n            {\n                maxVotes = candidateToVoteCount[candidates[i]];\n                totalMaxVotes = 1;\n            }\n            else if(candidateToVoteCount[candidates[i]] == maxVotes)\n            {\n                totalMaxVotes += 1;\n            }\n        }\n        address[] memory tempCandidates = new address[](totalMaxVotes);\n        uint totalWinners = 0;\n        for(uint i = 0; i<candidates.length; i += 1)\n        {\n            if(candidateToVoteCount[candidates[i]] == maxVotes)\n            {\n                tempCandidates[totalWinners] = candidates[i];\n                totalWinners += 1;\n            }\n        }\n        address[] memory winners = new address[](totalWinners);\n        uint currIndex = 0;\n        for(uint i = 0; i<totalWinners; i += 1)\n        {\n            winners[currIndex] = tempCandidates[i];\n            currIndex += 1;\n        }\n        return winners;\n    }\n}",
  "sourcePath": "/home/tarun/Documents/personal_projects/blockchain-voting-application/contracts/voting_system.sol",
  "compiler": {
    "name": "solc",
    "version": "0.5.8+commit.23d335f2.Emscripten.clang"
  },
  "schemaVersion": "3.0.16",
  "updatedAt": "2019-10-15T08:11:39.022Z",
  "devdoc": {
    "methods": {}
  },
  "userdoc": {
    "methods": {}
  }
}