{
  "contractName": "Voting_System",
  "abi": [
    {
      "inputs": [],
      "payable": false,
      "stateMutability": "nonpayable",
      "type": "constructor"
    },
    {
      "constant": true,
      "inputs": [],
      "name": "getAdmins",
      "outputs": [
        {
          "name": "",
          "type": "address[]"
        }
      ],
      "payable": false,
      "stateMutability": "view",
      "type": "function"
    },
    {
      "constant": false,
      "inputs": [
        {
          "name": "admin",
          "type": "address"
        }
      ],
      "name": "addAdmin",
      "outputs": [],
      "payable": false,
      "stateMutability": "nonpayable",
      "type": "function"
    },
    {
      "constant": false,
      "inputs": [
        {
          "name": "voter",
          "type": "address"
        }
      ],
      "name": "registerVoter",
      "outputs": [],
      "payable": false,
      "stateMutability": "nonpayable",
      "type": "function"
    },
    {
      "constant": true,
      "inputs": [],
      "name": "getRegisteredVoters",
      "outputs": [
        {
          "name": "",
          "type": "address[]"
        }
      ],
      "payable": false,
      "stateMutability": "view",
      "type": "function"
    },
    {
      "constant": false,
      "inputs": [
        {
          "name": "candidate",
          "type": "address"
        }
      ],
      "name": "registerCandidate",
      "outputs": [],
      "payable": false,
      "stateMutability": "nonpayable",
      "type": "function"
    },
    {
      "constant": true,
      "inputs": [],
      "name": "getRegisteredCandidates",
      "outputs": [
        {
          "name": "",
          "type": "address[]"
        }
      ],
      "payable": false,
      "stateMutability": "view",
      "type": "function"
    },
    {
      "constant": false,
      "inputs": [
        {
          "name": "startDateTime",
          "type": "uint256"
        },
        {
          "name": "endDateTime",
          "type": "uint256"
        }
      ],
      "name": "setElectionDate",
      "outputs": [],
      "payable": false,
      "stateMutability": "nonpayable",
      "type": "function"
    },
    {
      "constant": false,
      "inputs": [
        {
          "name": "startDateTime",
          "type": "uint256"
        },
        {
          "name": "endDateTime",
          "type": "uint256"
        }
      ],
      "name": "setVoteCountDate",
      "outputs": [],
      "payable": false,
      "stateMutability": "nonpayable",
      "type": "function"
    },
    {
      "constant": false,
      "inputs": [
        {
          "name": "startDateTime",
          "type": "uint256"
        },
        {
          "name": "endDateTime",
          "type": "uint256"
        }
      ],
      "name": "setResultDeclareDate",
      "outputs": [],
      "payable": false,
      "stateMutability": "nonpayable",
      "type": "function"
    },
    {
      "constant": false,
      "inputs": [
        {
          "name": "choiceHash",
          "type": "bytes32"
        }
      ],
      "name": "vote",
      "outputs": [],
      "payable": false,
      "stateMutability": "nonpayable",
      "type": "function"
    },
    {
      "constant": true,
      "inputs": [],
      "name": "getTotalVotesCast",
      "outputs": [
        {
          "name": "",
          "type": "uint256"
        }
      ],
      "payable": false,
      "stateMutability": "view",
      "type": "function"
    },
    {
      "constant": true,
      "inputs": [
        {
          "name": "candidate",
          "type": "address"
        },
        {
          "name": "nonces",
          "type": "bytes32[]"
        }
      ],
      "name": "getTotalVotesCandidate",
      "outputs": [
        {
          "name": "",
          "type": "uint256"
        }
      ],
      "payable": false,
      "stateMutability": "view",
      "type": "function"
    },
    {
      "constant": false,
      "inputs": [
        {
          "name": "nonces",
          "type": "bytes32[]"
        }
      ],
      "name": "countAllVotes",
      "outputs": [],
      "payable": false,
      "stateMutability": "nonpayable",
      "type": "function"
    },
    {
      "constant": true,
      "inputs": [],
      "name": "getElectionWinners",
      "outputs": [
        {
          "name": "",
          "type": "address[]"
        }
      ],
      "payable": false,
      "stateMutability": "view",
      "type": "function"
    }
  ],
  "bytecode": "0x608060405234801561001057600080fd5b5060003390806001815401808255809150509060018203906000526020600020016000909192909190916101000a81548173ffffffffffffffffffffffffffffffffffffffff021916908373ffffffffffffffffffffffffffffffffffffffff16021790555050611f2f806100866000396000f3fe608060405234801561001057600080fd5b50600436106100ea5760003560e01c806385bf8c9b1161008c578063ad96d04811610066578063ad96d04814610448578063cd8d3a9414610480578063f2516dbf14610538578063f4dcf0ad14610597576100ea565b806385bf8c9b1461031057806392e2c6d2146103fc578063a69beaba1461041a576100ea565b8063396b9ae0116100c8578063396b9ae0146101f15780634039d4b914610250578063704802751461028857806384aa3b93146102cc576100ea565b80632bc4a6e7146100ef57806331ae450b1461014e57806338db6dd3146101ad575b600080fd5b6100f76105cf565b6040518080602001828103825283818151815260200191508051906020019060200280838360005b8381101561013a57808201518184015260208101905061011f565b505050509050019250505060405180910390f35b6101566106bb565b6040518080602001828103825283818151815260200191508051906020019060200280838360005b8381101561019957808201518184015260208101905061017e565b505050509050019250505060405180910390f35b6101ef600480360360208110156101c357600080fd5b81019080803573ffffffffffffffffffffffffffffffffffffffff1690602001909291905050506107a7565b005b6101f961086e565b6040518080602001828103825283818151815260200191508051906020019060200280838360005b8381101561023c578082015181840152602081019050610221565b505050509050019250505060405180910390f35b6102866004803603604081101561026657600080fd5b81019080803590602001909291908035906020019092919050505061095a565b005b6102ca6004803603602081101561029e57600080fd5b81019080803573ffffffffffffffffffffffffffffffffffffffff1690602001909291905050506109ca565b005b61030e600480360360208110156102e257600080fd5b81019080803573ffffffffffffffffffffffffffffffffffffffff169060200190929190505050610a9f565b005b6103e66004803603604081101561032657600080fd5b81019080803573ffffffffffffffffffffffffffffffffffffffff1690602001909291908035906020019064010000000081111561036357600080fd5b82018360208201111561037557600080fd5b8035906020019184602083028401116401000000008311171561039757600080fd5b919080806020026020016040519081016040528093929190818152602001838360200280828437600081840152601f19601f820116905080830192505050505050509192919290505050610bc4565b6040518082815260200191505060405180910390f35b610404610de1565b6040518082815260200191505060405180910390f35b6104466004803603602081101561043057600080fd5b8101908080359060200190929190505050610e4c565b005b61047e6004803603604081101561045e57600080fd5b810190808035906020019092919080359060200190929190505050610ffb565b005b6105366004803603602081101561049657600080fd5b81019080803590602001906401000000008111156104b357600080fd5b8201836020820111156104c557600080fd5b803590602001918460208302840111640100000000831117156104e757600080fd5b919080806020026020016040519081016040528093929190818152602001838360200280828437600081840152601f19601f82011690508083019250505050505050919291929050505061106b565b005b6105406112d4565b6040518080602001828103825283818151815260200191508051906020019060200280838360005b83811015610583578082015181840152602081019050610568565b505050509050019250505060405180910390f35b6105cd600480360360408110156105ad57600080fd5b81019080803590602001909291908035906020019092919050505061175a565b005b60606105da336117ca565b61062f576040517f08c379a0000000000000000000000000000000000000000000000000000000008152600401808060200182810382526021815260200180611def6021913960400191505060405180910390fd5b60018054806020026020016040519081016040528092919081815260200182805480156106b157602002820191906000526020600020905b8160009054906101000a900473ffffffffffffffffffffffffffffffffffffffff1673ffffffffffffffffffffffffffffffffffffffff1681526020019060010190808311610667575b5050505050905090565b60606106c6336117ca565b61071b576040517f08c379a0000000000000000000000000000000000000000000000000000000008152600401808060200182810382526029815260200180611e8a6029913960400191505060405180910390fd5b600080548060200260200160405190810160405280929190818152602001828054801561079d57602002820191906000526020600020905b8160009054906101000a900473ffffffffffffffffffffffffffffffffffffffff1673ffffffffffffffffffffffffffffffffffffffff1681526020019060010190808311610753575b5050505050905090565b6107b0336117ca565b610805576040517f08c379a0000000000000000000000000000000000000000000000000000000008152600401808060200182810382526021815260200180611def6021913960400191505060405180910390fd5b60018190806001815401808255809150509060018203906000526020600020016000909192909190916101000a81548173ffffffffffffffffffffffffffffffffffffffff021916908373ffffffffffffffffffffffffffffffffffffffff1602179055505050565b6060610879336117ca565b6108ce576040517f08c379a0000000000000000000000000000000000000000000000000000000008152600401808060200182810382526025815260200180611d0b6025913960400191505060405180910390fd5b600280548060200260200160405190810160405280929190818152602001828054801561095057602002820191906000526020600020905b8160009054906101000a900473ffffffffffffffffffffffffffffffffffffffff1673ffffffffffffffffffffffffffffffffffffffff1681526020019060010190808311610906575b5050505050905090565b610963336117ca565b6109b8576040517f08c379a0000000000000000000000000000000000000000000000000000000008152600401808060200182810382526025815260200180611ce66025913960400191505060405180910390fd5b81600581905550806006819055505050565b6109d3336117ca565b610a28576040517f08c379a0000000000000000000000000000000000000000000000000000000008152600401808060200182810382526021815260200180611e696021913960400191505060405180910390fd5b610a3181611869565b610a9c5760008190806001815401808255809150509060018203906000526020600020016000909192909190916101000a81548173ffffffffffffffffffffffffffffffffffffffff021916908373ffffffffffffffffffffffffffffffffffffffff160217905550505b50565b610aa8336117ca565b610afd576040517f08c379a0000000000000000000000000000000000000000000000000000000008152600401808060200182810382526025815260200180611d0b6025913960400191505060405180910390fd5b610b068161190c565b610b5b576040517f08c379a0000000000000000000000000000000000000000000000000000000008152600401808060200182810382526048815260200180611d306048913960600191505060405180910390fd5b60028190806001815401808255809150509060018203906000526020600020016000909192909190916101000a81548173ffffffffffffffffffffffffffffffffffffffff021916908373ffffffffffffffffffffffffffffffffffffffff1602179055505050565b6000610bcf336117ca565b610c24576040517f08c379a0000000000000000000000000000000000000000000000000000000008152600401808060200182810382526021815260200180611dce6021913960400191505060405180910390fd5b610c2d836119ab565b610c9f576040517f08c379a000000000000000000000000000000000000000000000000000000000815260040180806020018281038252601f8152602001807f43616e6469646174652073686f756c6420626520726567697374657265642e0081525060200191505060405180910390fd5b610ca7611a4a565b610cfc576040517f08c379a0000000000000000000000000000000000000000000000000000000008152600401808060200182810382526033815260200180611d9b6033913960400191505060405180910390fd5b600080905060008090505b8351811015610dd657600085858381518110610d1f57fe5b6020026020010151604051602001808373ffffffffffffffffffffffffffffffffffffffff1673ffffffffffffffffffffffffffffffffffffffff1660601b81526014018281526020019250505060405160208183030381529060405280519060200120905060008090505b600480549050811015610dc9578160048281548110610da657fe5b90600052602060002001541415610dbe576001840193505b600181019050610d8b565b5050600181019050610d07565b508091505092915050565b6000610dec336117ca565b610e41576040517f08c379a0000000000000000000000000000000000000000000000000000000008152600401808060200182810382526021815260200180611dce6021913960400191505060405180910390fd5b600480549050905090565b610e553361190c565b610eaa576040517f08c379a0000000000000000000000000000000000000000000000000000000008152600401808060200182810382526023815260200180611d786023913960400191505060405180910390fd5b610eb2611af2565b610f07576040517f08c379a000000000000000000000000000000000000000000000000000000000815260040180806020018281038252602d815260200180611e10602d913960400191505060405180910390fd5b610f1033611b9a565b15610f66576040517f08c379a000000000000000000000000000000000000000000000000000000000815260040180806020018281038252602d815260200180611ed7602d913960400191505060405180910390fd5b600481908060018154018082558091505090600182039060005260206000200160009091929091909150555060033390806001815401808255809150509060018203906000526020600020016000909192909190916101000a81548173ffffffffffffffffffffffffffffffffffffffff021916908373ffffffffffffffffffffffffffffffffffffffff1602179055505050565b611004336117ca565b611059576040517f08c379a000000000000000000000000000000000000000000000000000000000815260040180806020018281038252602c815260200180611e3d602c913960400191505060405180910390fd5b8160098190555080600a819055505050565b611074336117ca565b6110c9576040517f08c379a0000000000000000000000000000000000000000000000000000000008152600401808060200182810382526021815260200180611dce6021913960400191505060405180910390fd5b6110d1611a4a565b611126576040517f08c379a0000000000000000000000000000000000000000000000000000000008152600401808060200182810382526033815260200180611d9b6033913960400191505060405180910390fd5b60008090505b81518110156112d05760008090505b6002805490508110156112c45760006002828154811061115757fe5b9060005260206000200160009054906101000a900473ffffffffffffffffffffffffffffffffffffffff1684848151811061118e57fe5b6020026020010151604051602001808373ffffffffffffffffffffffffffffffffffffffff1673ffffffffffffffffffffffffffffffffffffffff1660601b81526014018281526020019250505060405160208183030381529060405280519060200120905060008090505b6004805490508110156112b757816004828154811061121557fe5b906000526020600020015414156112ac576001600b60006002868154811061123957fe5b9060005260206000200160009054906101000a900473ffffffffffffffffffffffffffffffffffffffff1673ffffffffffffffffffffffffffffffffffffffff1673ffffffffffffffffffffffffffffffffffffffff168152602001908152602001600020600082825401925050819055505b6001810190506111fa565b505060018101905061113b565b5060018101905061112c565b5050565b60606112df336117ca565b611334576040517f08c379a0000000000000000000000000000000000000000000000000000000008152600401808060200182810382526021815260200180611dce6021913960400191505060405180910390fd5b61133c611c3d565b611391576040517f08c379a0000000000000000000000000000000000000000000000000000000008152600401808060200182810382526033815260200180611d9b6033913960400191505060405180910390fd5b6000809050600080905060008090505b60028054905081101561153f5782600b6000600284815481106113c057fe5b9060005260206000200160009054906101000a900473ffffffffffffffffffffffffffffffffffffffff1673ffffffffffffffffffffffffffffffffffffffff1673ffffffffffffffffffffffffffffffffffffffff1681526020019081526020016000205411156114ae57600b60006002838154811061143d57fe5b9060005260206000200160009054906101000a900473ffffffffffffffffffffffffffffffffffffffff1673ffffffffffffffffffffffffffffffffffffffff1673ffffffffffffffffffffffffffffffffffffffff16815260200190815260200160002054925060019150611534565b82600b6000600284815481106114c057fe5b9060005260206000200160009054906101000a900473ffffffffffffffffffffffffffffffffffffffff1673ffffffffffffffffffffffffffffffffffffffff1673ffffffffffffffffffffffffffffffffffffffff168152602001908152602001600020541415611533576001820191505b5b6001810190506113a1565b506060816040519080825280602002602001820160405280156115715781602001602082028038833980820191505090505b509050600080905060008090505b60028054905081101561169a5784600b60006002848154811061159e57fe5b9060005260206000200160009054906101000a900473ffffffffffffffffffffffffffffffffffffffff1673ffffffffffffffffffffffffffffffffffffffff1673ffffffffffffffffffffffffffffffffffffffff16815260200190815260200160002054141561168f576002818154811061161757fe5b9060005260206000200160009054906101000a900473ffffffffffffffffffffffffffffffffffffffff1683838151811061164e57fe5b602002602001019073ffffffffffffffffffffffffffffffffffffffff16908173ffffffffffffffffffffffffffffffffffffffff16815250506001820191505b60018101905061157f565b506060816040519080825280602002602001820160405280156116cc5781602001602082028038833980820191505090505b509050600080905060008090505b8381101561174d578481815181106116ee57fe5b602002602001015183838151811061170257fe5b602002602001019073ffffffffffffffffffffffffffffffffffffffff16908173ffffffffffffffffffffffffffffffffffffffff16815250506001820191506001810190506116da565b5081965050505050505090565b611763336117ca565b6117b8576040517f08c379a0000000000000000000000000000000000000000000000000000000008152600401808060200182810382526024815260200180611eb36024913960400191505060405180910390fd5b81600781905550806008819055505050565b6000806000905060008090505b60008054905081101561185f578373ffffffffffffffffffffffffffffffffffffffff166000828154811061180857fe5b9060005260206000200160009054906101000a900473ffffffffffffffffffffffffffffffffffffffff1673ffffffffffffffffffffffffffffffffffffffff16141561185457600191505b6001810190506117d7565b5080915050919050565b6000806000905060008090505b600080549050811015611902578373ffffffffffffffffffffffffffffffffffffffff16600082815481106118a757fe5b9060005260206000200160009054906101000a900473ffffffffffffffffffffffffffffffffffffffff1673ffffffffffffffffffffffffffffffffffffffff1614156118f75760019150611902565b600181019050611876565b5080915050919050565b6000806000905060008090505b6001805490508110156119a1578373ffffffffffffffffffffffffffffffffffffffff166001828154811061194a57fe5b9060005260206000200160009054906101000a900473ffffffffffffffffffffffffffffffffffffffff1673ffffffffffffffffffffffffffffffffffffffff16141561199657600191505b600181019050611919565b5080915050919050565b6000806000905060008090505b600280549050811015611a40578373ffffffffffffffffffffffffffffffffffffffff16600282815481106119e957fe5b9060005260206000200160009054906101000a900473ffffffffffffffffffffffffffffffffffffffff1673ffffffffffffffffffffffffffffffffffffffff161415611a3557600191505b6001810190506119b8565b5080915050919050565b60008060075414158015611a615750600060085414155b611ad3576040517f08c379a000000000000000000000000000000000000000000000000000000000815260040180806020018281038252601b8152602001807f566f746520636f756e74696e672064617465206e6f74207365742e000000000081525060200191505060405180910390fd5b60004290506007548110158015611aec57506008548111155b91505090565b60008060055414158015611b095750600060065414155b611b7b576040517f08c379a00000000000000000000000000000000000000000000000000000000081526004018080602001828103825260168152602001807f456c656374696f6e2064617465206e6f74207365742e0000000000000000000081525060200191505060405180910390fd5b60004290506005548110158015611b9457506006548111155b91505090565b6000806000905060008090505b600380549050811015611c33578373ffffffffffffffffffffffffffffffffffffffff1660038281548110611bd857fe5b9060005260206000200160009054906101000a900473ffffffffffffffffffffffffffffffffffffffff1673ffffffffffffffffffffffffffffffffffffffff161415611c285760019150611c33565b600181019050611ba7565b5080915050919050565b60008060095414158015611c5457506000600a5414155b611cc6576040517f08c379a00000000000000000000000000000000000000000000000000000000081526004018080602001828103825260208152602001807f526573756c74206465636c61726174696f6e2064617465206e6f74207365742e81525060200191505060405180910390fd5b60004290506009548110158015611cdf5750600a548111155b9150509056fe4f6e6c792061646d696e732063616e2073657420616e20656c656374696f6e20646174652e4f6e6c792061646d696e732063616e20726567697374657220612063616e6469646174652e43616e6469646174652073686f756c642062652072656769737465726564206173206120766f74657220746f20626520726567697374657265642061732063616e64696461746521566f7465722073686f756c64206265207265676973746572656420746f20766f74652e566f7465732063616e20626520636f756e746564206f6e6c79206f6e2073657420766f746520636f756e74696e67206461792e4f6e6c792061646d696e732063616e2073656520766f74652063686f696365732e4f6e6c792061646d696e732063616e207265676973746572206120766f74657221566f74696e672063616e20626520646f6e65206f6e6c79206f6e2073657420656c656374696f6e20646174652e4f6e6c792061646d696e732063616e2073657420726573756c74206465636c61726174696f6e20646174652e4f6e6c792061646d696e732063616e20616464206f746865722061646d696e732e4f6e6c792061646d696e732063616e20676574206c697374206f66206f746865722061646d696e732e4f6e6c792061646d696e732063616e2073657420766f746520636f756e7420646174652e566f74657220686173206f6e6c79206f6e6520766f746520616e6420697420686173206265656e20636173742ea165627a7a72305820ce9f7fc86caa9e8afe7efbc5a2a1790756d65d040d30d4d57ee874a0b5358bf20029",
  "source": "pragma solidity >=0.4.22 <0.6.0;\n\ncontract Voting_System\n{\n    address[] private admins;\n    address[] private voters;\n    address[] private candidates;\n    address[] private votedVoters;\n    bytes32[] private voteHashes;\n    uint256 private electionStartDateTime;\n    uint256 private electionEndDateTime;\n    uint256 private voteCountStartDateTime;\n    uint256 private voteCountEndDateTime;\n    uint256 private resultDeclareStartDateTime;\n    uint256 private resultDeclareEndDateTime;\n    mapping (address => uint) private candidateToVoteCount;\n\n    constructor () public {\n        admins.push(msg.sender);\n    }\n\n    function callerIsAdmin(address caller) private view returns(bool) {\n        bool caller_is_super_admin = false;\n        for(uint i = 0; i<admins.length; i += 1)\n        {\n            if(admins[i]==caller)\n            {\n                caller_is_super_admin = true;\n            }\n        }\n        return caller_is_super_admin;\n    }\n\n    function voterIsRegistered(address voter) private view returns (bool) {\n        bool voterRegistered = false;\n        for(uint i = 0; i<voters.length; i += 1)\n        {\n            if(voters[i] == voter)\n            {\n                voterRegistered = true;\n            }\n        }\n        return voterRegistered;\n    }\n\n    function candidateIsRegistered(address candidate) private view returns (bool) {\n        bool candidateRegistered = false;\n        for(uint i = 0; i<candidates.length; i += 1)\n        {\n            if(candidates[i] == candidate)\n            {\n                candidateRegistered = true;\n            }\n        }\n        return candidateRegistered;\n    }\n\n    function isElectionDay() private view returns (bool) {\n        require(electionStartDateTime != 0 && electionEndDateTime != 0, 'Election date not set.');\n        uint256 currentTime = now;\n        return (currentTime >= electionStartDateTime && currentTime <= electionEndDateTime);\n    }\n\n    function isVoteCountDay() private view returns (bool) {\n        require(voteCountStartDateTime != 0 && voteCountEndDateTime != 0, 'Vote counting date not set.');\n        uint256 current_time = now;\n        return (current_time >= voteCountStartDateTime && current_time <= voteCountEndDateTime);\n    }\n\n    function isResultDeclarationDay() private view returns (bool) {\n        require(resultDeclareStartDateTime != 0 && resultDeclareEndDateTime != 0, 'Result declaration date not set.');\n        uint256 current_time = now;\n        return (current_time >= resultDeclareStartDateTime && current_time <= resultDeclareEndDateTime);\n    }\n\n    function voterHasVoted(address voter) private view returns (bool) {\n        bool voterVoted = false;\n        for(uint i = 0; i<votedVoters.length; i += 1)\n        {\n            if(votedVoters[i] == voter)\n            {\n                voterVoted = true;\n                break;\n            }\n        }\n        return voterVoted;\n    }\n\n    function adminAdded(address potentialAdmin) private view returns(bool) {\n        bool potentialAdminIsAdmin = false;\n        for(uint i = 0; i<admins.length; i += 1)\n        {\n            if(admins[i] == potentialAdmin)\n            {\n                potentialAdminIsAdmin = true;\n                break;\n            }\n        }\n        return potentialAdminIsAdmin;\n    }\n\n    function getAdmins() public view returns (address[] memory){\n        require(callerIsAdmin(msg.sender),'Only admins can get list of other admins.');\n        return admins;\n    }\n\n    function addAdmin(address admin) public {\n        require(callerIsAdmin(msg.sender), 'Only admins can add other admins.');\n        if(!adminAdded(admin))\n        {\n            admins.push(admin);\n        }\n    }\n\n    function registerVoter(address voter) public {\n        require(callerIsAdmin(msg.sender), 'Only admins can register a voter!');\n        voters.push(voter);\n    }\n\n    function getRegisteredVoters() public view returns (address[] memory) {\n        require(callerIsAdmin(msg.sender), 'Only admins can register a voter!');\n        return voters;\n    }\n\n    function registerCandidate(address candidate) public {\n        require(callerIsAdmin(msg.sender), 'Only admins can register a candidate.');\n        require(voterIsRegistered(candidate),'Candidate should be registered as a voter to be registered as candidate!');\n        candidates.push(candidate);\n    }\n\n    function getRegisteredCandidates() public view returns (address[] memory) {\n        require(callerIsAdmin(msg.sender), 'Only admins can register a candidate.');\n        return candidates;\n    }\n\n    function setElectionDate(uint256 startDateTime, uint256 endDateTime) public {\n        require(callerIsAdmin(msg.sender), 'Only admins can set an election date.');\n        electionStartDateTime = startDateTime;\n        electionEndDateTime = endDateTime;\n    }\n\n    function setVoteCountDate(uint256 startDateTime, uint256 endDateTime) public {\n        require(callerIsAdmin(msg.sender), 'Only admins can set vote count date.');\n        voteCountStartDateTime = startDateTime;\n        voteCountEndDateTime = endDateTime;\n    }\n\n    function setResultDeclareDate(uint256 startDateTime, uint256 endDateTime) public {\n        require(callerIsAdmin(msg.sender), 'Only admins can set result declaration date.');\n        resultDeclareStartDateTime = startDateTime;\n        resultDeclareEndDateTime = endDateTime;\n    }\n\n    function vote(bytes32 choiceHash) public {\n        require(voterIsRegistered(msg.sender), 'Voter should be registered to vote.');\n        require(isElectionDay(),'Voting can be done only on set election date.');\n        require(!voterHasVoted(msg.sender), 'Voter has only one vote and it has been cast.');\n        voteHashes.push(choiceHash);\n        votedVoters.push(msg.sender);\n    }\n\n    function getTotalVotesCast() public view returns (uint) {\n        require(callerIsAdmin(msg.sender),'Only admins can see vote choices.');\n        return voteHashes.length;\n\n    }\n\n    function getTotalVotesCandidate(address candidate, bytes32[] memory nonces) public view returns (uint) {\n        require(callerIsAdmin(msg.sender),'Only admins can see vote choices.');\n        require(candidateIsRegistered(candidate),'Candidate should be registered.');\n        require(isVoteCountDay(),'Votes can be counted only on set vote counting day.');\n        uint totalVotes = 0;\n        for(uint i = 0; i<nonces.length; i += 1)\n        {\n            bytes32 candidateHash = keccak256(abi.encodePacked(candidate, nonces[i]));\n            for(uint j = 0; j<voteHashes.length; j += 1)\n            {\n                if(voteHashes[j] == candidateHash)\n                {\n                    totalVotes += 1;\n                }\n            }\n        }\n        return totalVotes;\n    }\n\n    function countAllVotes(bytes32[] memory nonces) public {\n        require(callerIsAdmin(msg.sender),'Only admins can see vote choices.');\n        require(isVoteCountDay(),'Votes can be counted only on set vote counting day.');\n        for(uint i = 0; i<nonces.length; i += 1)\n        {\n            for(uint j = 0; j<candidates.length; j += 1)\n            {\n                bytes32 candidateHash = keccak256(abi.encodePacked(candidates[j], nonces[i]));\n                for(uint k = 0; k<voteHashes.length; k += 1)\n                {\n                    if(voteHashes[k] == candidateHash)\n                    {\n                        candidateToVoteCount[candidates[j]] += 1;\n                    }\n                }\n            }\n        }\n    }\n\n    function getElectionWinners() public view returns (address[] memory) {\n        require(callerIsAdmin(msg.sender),'Only admins can see vote choices.');\n        require(isResultDeclarationDay(),'Votes can be counted only on set vote counting day.');\n        uint maxVotes = 0;\n        uint totalMaxVotes = 0;\n        for(uint i = 0; i<candidates.length; i += 1)\n        {\n            if(candidateToVoteCount[candidates[i]] > maxVotes)\n            {\n                maxVotes = candidateToVoteCount[candidates[i]];\n                totalMaxVotes = 1;\n            }\n            else if(candidateToVoteCount[candidates[i]] == maxVotes)\n            {\n                totalMaxVotes += 1;\n            }\n        }\n        address[] memory tempCandidates = new address[](totalMaxVotes);\n        uint totalWinners = 0;\n        for(uint i = 0; i<candidates.length; i += 1)\n        {\n            if(candidateToVoteCount[candidates[i]] == maxVotes)\n            {\n                tempCandidates[totalWinners] = candidates[i];\n                totalWinners += 1;\n            }\n        }\n        address[] memory winners = new address[](totalWinners);\n        uint currIndex = 0;\n        for(uint i = 0; i<totalWinners; i += 1)\n        {\n            winners[currIndex] = tempCandidates[i];\n            currIndex += 1;\n        }\n        return winners;\n    }\n}",
  "sourcePath": "/home/tarun/Documents/personal_projects/blockchain-voting-application/contracts/voting_system.sol",
  "compiler": {
    "name": "solc",
    "version": "0.5.8+commit.23d335f2.Emscripten.clang"
  },
  "schemaVersion": "3.0.16",
  "updatedAt": "2019-10-11T15:12:44.947Z",
  "devdoc": {
    "methods": {}
  },
  "userdoc": {
    "methods": {}
  }
}