{
  "contractName": "Voting_System",
  "abi": [
    {
      "inputs": [],
      "payable": false,
      "stateMutability": "nonpayable",
      "type": "constructor"
    },
    {
      "constant": false,
      "inputs": [
        {
          "name": "addr",
          "type": "address"
        }
      ],
      "name": "makeSuperAdmin",
      "outputs": [],
      "payable": false,
      "stateMutability": "nonpayable",
      "type": "function"
    },
    {
      "constant": false,
      "inputs": [
        {
          "name": "admin",
          "type": "address"
        }
      ],
      "name": "addAdmin",
      "outputs": [],
      "payable": false,
      "stateMutability": "nonpayable",
      "type": "function"
    },
    {
      "constant": false,
      "inputs": [
        {
          "name": "admin",
          "type": "address"
        }
      ],
      "name": "removeAdmin",
      "outputs": [],
      "payable": false,
      "stateMutability": "nonpayable",
      "type": "function"
    },
    {
      "constant": true,
      "inputs": [],
      "name": "getAdmins",
      "outputs": [
        {
          "name": "",
          "type": "address[]"
        }
      ],
      "payable": false,
      "stateMutability": "view",
      "type": "function"
    },
    {
      "constant": false,
      "inputs": [
        {
          "name": "voter",
          "type": "address"
        }
      ],
      "name": "registerVoter",
      "outputs": [],
      "payable": false,
      "stateMutability": "nonpayable",
      "type": "function"
    },
    {
      "constant": false,
      "inputs": [
        {
          "name": "voter",
          "type": "address"
        }
      ],
      "name": "removeVoter",
      "outputs": [],
      "payable": false,
      "stateMutability": "nonpayable",
      "type": "function"
    },
    {
      "constant": true,
      "inputs": [],
      "name": "getRegisteredVoters",
      "outputs": [
        {
          "name": "",
          "type": "address[]"
        }
      ],
      "payable": false,
      "stateMutability": "view",
      "type": "function"
    },
    {
      "constant": false,
      "inputs": [
        {
          "name": "candidate",
          "type": "address"
        }
      ],
      "name": "registerCandidate",
      "outputs": [],
      "payable": false,
      "stateMutability": "nonpayable",
      "type": "function"
    },
    {
      "constant": false,
      "inputs": [
        {
          "name": "candidate",
          "type": "address"
        }
      ],
      "name": "removeCandidate",
      "outputs": [],
      "payable": false,
      "stateMutability": "nonpayable",
      "type": "function"
    },
    {
      "constant": true,
      "inputs": [],
      "name": "getRegisteredCandidates",
      "outputs": [
        {
          "name": "",
          "type": "address[]"
        }
      ],
      "payable": false,
      "stateMutability": "view",
      "type": "function"
    },
    {
      "constant": false,
      "inputs": [
        {
          "name": "startDateTime",
          "type": "uint256"
        },
        {
          "name": "endDateTime",
          "type": "uint256"
        }
      ],
      "name": "setElectionDate",
      "outputs": [],
      "payable": false,
      "stateMutability": "nonpayable",
      "type": "function"
    },
    {
      "constant": false,
      "inputs": [
        {
          "name": "startDateTime",
          "type": "uint256"
        },
        {
          "name": "endDateTime",
          "type": "uint256"
        }
      ],
      "name": "setVoteCountDate",
      "outputs": [],
      "payable": false,
      "stateMutability": "nonpayable",
      "type": "function"
    },
    {
      "constant": false,
      "inputs": [
        {
          "name": "choiceHash",
          "type": "bytes32"
        }
      ],
      "name": "vote",
      "outputs": [],
      "payable": false,
      "stateMutability": "nonpayable",
      "type": "function"
    },
    {
      "constant": true,
      "inputs": [],
      "name": "getTotalVotesCast",
      "outputs": [
        {
          "name": "",
          "type": "uint256"
        }
      ],
      "payable": false,
      "stateMutability": "view",
      "type": "function"
    },
    {
      "constant": true,
      "inputs": [
        {
          "name": "candidate",
          "type": "address"
        },
        {
          "name": "nonces",
          "type": "bytes32[]"
        }
      ],
      "name": "getTotalVotesCandidate",
      "outputs": [
        {
          "name": "",
          "type": "uint256"
        }
      ],
      "payable": false,
      "stateMutability": "view",
      "type": "function"
    },
    {
      "constant": false,
      "inputs": [
        {
          "name": "nonces",
          "type": "bytes32[]"
        }
      ],
      "name": "countAllVotes",
      "outputs": [],
      "payable": false,
      "stateMutability": "nonpayable",
      "type": "function"
    },
    {
      "constant": true,
      "inputs": [
        {
          "name": "candidate",
          "type": "address"
        }
      ],
      "name": "getVoteCountCandidate",
      "outputs": [
        {
          "name": "",
          "type": "uint256"
        }
      ],
      "payable": false,
      "stateMutability": "view",
      "type": "function"
    }
  ],
  "bytecode": "0x608060405234801561001057600080fd5b5060008060006101000a81548173ffffffffffffffffffffffffffffffffffffffff021916908373ffffffffffffffffffffffffffffffffffffffff1602179055506000600b60006101000a81548160ff0219169083151502179055506125418061007c6000396000f3fe608060405234801561001057600080fd5b506004361061010b5760003560e01c806370480275116100a257806386c1ff681161007157806386c1ff681461054157806392e2c6d214610585578063a69beaba146105a3578063cd8d3a94146105d1578063f4dcf0ad146106895761010b565b8063704802751461038957806376eed174146103cd57806384aa3b931461041157806385bf8c9b146104555761010b565b8063396b9ae0116100de578063396b9ae0146102565780634039d4b9146102b55780634d2e4f5d146102ed5780636dd091f9146103455761010b565b80631785f53c146101105780632bc4a6e71461015457806331ae450b146101b357806338db6dd314610212575b600080fd5b6101526004803603602081101561012657600080fd5b81019080803573ffffffffffffffffffffffffffffffffffffffff1690602001909291905050506106c1565b005b61015c6108c7565b6040518080602001828103825283818151815260200191508051906020019060200280838360005b8381101561019f578082015181840152602081019050610184565b505050509050019250505060405180910390f35b6101bb6109c3565b6040518080602001828103825283818151815260200191508051906020019060200280838360005b838110156101fe5780820151818401526020810190506101e3565b505050509050019250505060405180910390f35b6102546004803603602081101561022857600080fd5b81019080803573ffffffffffffffffffffffffffffffffffffffff169060200190929190505050610abf565b005b61025e610b96565b6040518080602001828103825283818151815260200191508051906020019060200280838360005b838110156102a1578082015181840152602081019050610286565b505050509050019250505060405180910390f35b6102eb600480360360408110156102cb57600080fd5b810190808035906020019092919080359060200190929190505050610c92565b005b61032f6004803603602081101561030357600080fd5b81019080803573ffffffffffffffffffffffffffffffffffffffff169060200190929190505050610d12565b6040518082815260200191505060405180910390f35b6103876004803603602081101561035b57600080fd5b81019080803573ffffffffffffffffffffffffffffffffffffffff169060200190929190505050610f23565b005b6103cb6004803603602081101561039f57600080fd5b81019080803573ffffffffffffffffffffffffffffffffffffffff16906020019092919050505061113e565b005b61040f600480360360208110156103e357600080fd5b81019080803573ffffffffffffffffffffffffffffffffffffffff169060200190929190505050611230565b005b6104536004803603602081101561042757600080fd5b81019080803573ffffffffffffffffffffffffffffffffffffffff16906020019092919050505061148c565b005b61052b6004803603604081101561046b57600080fd5b81019080803573ffffffffffffffffffffffffffffffffffffffff169060200190929190803590602001906401000000008111156104a857600080fd5b8201836020820111156104ba57600080fd5b803590602001918460208302840111640100000000831117156104dc57600080fd5b919080806020026020016040519081016040528093929190818152602001838360200280828437600081840152601f19601f820116905080830192505050505050509192919290505050611563565b6040518082815260200191505060405180910390f35b6105836004803603602081101561055757600080fd5b81019080803573ffffffffffffffffffffffffffffffffffffffff169060200190929190505050611790565b005b61058d6119ab565b6040518082815260200191505060405180910390f35b6105cf600480360360208110156105b957600080fd5b8101908080359060200190929190505050611a26565b005b610687600480360360208110156105e757600080fd5b810190808035906020019064010000000081111561060457600080fd5b82018360208201111561061657600080fd5b8035906020019184602083028401116401000000008311171561063857600080fd5b919080806020026020016040519081016040528093929190818152602001838360200280828437600081840152601f19601f820116905080830192505050505050509192919290505050611bd5565b005b6106bf6004803603604081101561069f57600080fd5b810190808035906020019092919080359060200190929190505050611e69565b005b6106ca33611ee9565b61071f576040517f08c379a00000000000000000000000000000000000000000000000000000000081526004018080602001828103825260298152602001806124466029913960400191505060405180910390fd5b60008090505b6001805490508110156107ad578173ffffffffffffffffffffffffffffffffffffffff166001828154811061075657fe5b9060005260206000200160009054906101000a900473ffffffffffffffffffffffffffffffffffffffff1673ffffffffffffffffffffffffffffffffffffffff1614156107a2576107ad565b600181019050610725565b60018080549050038110156108c35760008190505b600180805490500381101561086b576001808201815481106107e057fe5b9060005260206000200160009054906101000a900473ffffffffffffffffffffffffffffffffffffffff166001828154811061081857fe5b9060005260206000200160006101000a81548173ffffffffffffffffffffffffffffffffffffffff021916908373ffffffffffffffffffffffffffffffffffffffff1602179055506001810190506107c2565b506001808080549050038154811061087f57fe5b9060005260206000200160006101000a81549073ffffffffffffffffffffffffffffffffffffffff021916905560018054809190600190036108c19190612312565b505b5050565b60606108d233611f42565b806108e257506108e133611ee9565b5b610937576040517f08c379a00000000000000000000000000000000000000000000000000000000081526004018080602001828103825260218152602001806124256021913960400191505060405180910390fd5b60028054806020026020016040519081016040528092919081815260200182805480156109b957602002820191906000526020600020905b8160009054906101000a900473ffffffffffffffffffffffffffffffffffffffff1673ffffffffffffffffffffffffffffffffffffffff168152602001906001019080831161096f575b5050505050905090565b60606109ce33611f42565b806109de57506109dd33611ee9565b5b610a33576040517f08c379a000000000000000000000000000000000000000000000000000000000815260040180806020018281038252602981526020018061249c6029913960400191505060405180910390fd5b6001805480602002602001604051908101604052809291908181526020018280548015610ab557602002820191906000526020600020905b8160009054906101000a900473ffffffffffffffffffffffffffffffffffffffff1673ffffffffffffffffffffffffffffffffffffffff1681526020019060010190808311610a6b575b5050505050905090565b610ac833611f42565b80610ad85750610ad733611ee9565b5b610b2d576040517f08c379a00000000000000000000000000000000000000000000000000000000081526004018080602001828103825260218152602001806124256021913960400191505060405180910390fd5b60028190806001815401808255809150509060018203906000526020600020016000909192909190916101000a81548173ffffffffffffffffffffffffffffffffffffffff021916908373ffffffffffffffffffffffffffffffffffffffff1602179055505050565b6060610ba133611f42565b80610bb15750610bb033611ee9565b5b610c06576040517f08c379a00000000000000000000000000000000000000000000000000000000081526004018080602001828103825260258152602001806123896025913960400191505060405180910390fd5b6003805480602002602001604051908101604052809291908181526020018280548015610c8857602002820191906000526020600020905b8160009054906101000a900473ffffffffffffffffffffffffffffffffffffffff1673ffffffffffffffffffffffffffffffffffffffff1681526020019060010190808311610c3e575b5050505050905090565b610c9b33611f42565b80610cab5750610caa33611ee9565b5b610d00576040517f08c379a00000000000000000000000000000000000000000000000000000000081526004018080602001828103825260258152602001806123646025913960400191505060405180910390fd5b81600681905550806007819055505050565b6000610d1d33611f42565b80610d2d5750610d2c33611ee9565b5b610d82576040517f08c379a00000000000000000000000000000000000000000000000000000000081526004018080602001828103825260218152602001806124046021913960400191505060405180910390fd5b610d8a611fe1565b610ddf576040517f08c379a00000000000000000000000000000000000000000000000000000000081526004018080602001828103825260338152602001806123d16033913960400191505060405180910390fd5b610de882612089565b610e5a576040517f08c379a000000000000000000000000000000000000000000000000000000000815260040180806020018281038252601f8152602001807f43616e6469646174652073686f756c6420626520726567697374657265642e0081525060200191505060405180910390fd5b600b60009054906101000a900460ff16610edc576040517f08c379a000000000000000000000000000000000000000000000000000000000815260040180806020018281038252601e8152602001807f566f7465732068617665206e6f742062656e20636f756e74656420796574000081525060200191505060405180910390fd5b600a60008373ffffffffffffffffffffffffffffffffffffffff1673ffffffffffffffffffffffffffffffffffffffff168152602001908152602001600020549050919050565b610f2c33611f42565b80610f3c5750610f3b33611ee9565b5b610f91576040517f08c379a00000000000000000000000000000000000000000000000000000000081526004018080602001828103825260298152602001806124466029913960400191505060405180910390fd5b60008090505b60038054905081101561101f578173ffffffffffffffffffffffffffffffffffffffff1660038281548110610fc857fe5b9060005260206000200160009054906101000a900473ffffffffffffffffffffffffffffffffffffffff1673ffffffffffffffffffffffffffffffffffffffff1614156110145761101f565b600181019050610f97565b60016003805490500381101561113a5760008190505b6001600380549050038110156110e0576003600182018154811061105557fe5b9060005260206000200160009054906101000a900473ffffffffffffffffffffffffffffffffffffffff166003828154811061108d57fe5b9060005260206000200160006101000a81548173ffffffffffffffffffffffffffffffffffffffff021916908373ffffffffffffffffffffffffffffffffffffffff160217905550600181019050611035565b506003600160038054905003815481106110f657fe5b9060005260206000200160006101000a81549073ffffffffffffffffffffffffffffffffffffffff021916905560038054809190600190036111389190612312565b505b5050565b61114733611ee9565b6111b9576040517f08c379a00000000000000000000000000000000000000000000000000000000081526004018080602001828103825260208152602001807f4f6e6c792073757065722061646d696e2063616e206164642061646d696e732e81525060200191505060405180910390fd5b6111c281611f42565b61122d5760018190806001815401808255809150509060018203906000526020600020016000909192909190916101000a81548173ffffffffffffffffffffffffffffffffffffffff021916908373ffffffffffffffffffffffffffffffffffffffff160217905550505b50565b600073ffffffffffffffffffffffffffffffffffffffff166000809054906101000a900473ffffffffffffffffffffffffffffffffffffffff1673ffffffffffffffffffffffffffffffffffffffff161480611291575061129033611ee9565b5b611303576040517f08c379a00000000000000000000000000000000000000000000000000000000081526004018080602001828103825260208152602001807f5468652063616c6c65722073686f756c642062652073757065722061646d696e81525060200191505060405180910390fd5b600080905060008090505b6001805490508110156113bb576000809054906101000a900473ffffffffffffffffffffffffffffffffffffffff1673ffffffffffffffffffffffffffffffffffffffff166001828154811061136057fe5b9060005260206000200160009054906101000a900473ffffffffffffffffffffffffffffffffffffffff1673ffffffffffffffffffffffffffffffffffffffff1614156113b057600191506113bb565b60018101905061130e565b50801580156114185750600073ffffffffffffffffffffffffffffffffffffffff166000809054906101000a900473ffffffffffffffffffffffffffffffffffffffff1673ffffffffffffffffffffffffffffffffffffffff1614155b15611448576114476000809054906101000a900473ffffffffffffffffffffffffffffffffffffffff1661113e565b5b816000806101000a81548173ffffffffffffffffffffffffffffffffffffffff021916908373ffffffffffffffffffffffffffffffffffffffff1602179055505050565b61149533611f42565b806114a557506114a433611ee9565b5b6114fa576040517f08c379a00000000000000000000000000000000000000000000000000000000081526004018080602001828103825260258152602001806123896025913960400191505060405180910390fd5b60038190806001815401808255809150509060018203906000526020600020016000909192909190916101000a81548173ffffffffffffffffffffffffffffffffffffffff021916908373ffffffffffffffffffffffffffffffffffffffff1602179055505050565b600061156e33611f42565b8061157e575061157d33611ee9565b5b6115d3576040517f08c379a00000000000000000000000000000000000000000000000000000000081526004018080602001828103825260218152602001806124046021913960400191505060405180910390fd5b6115dc83612089565b61164e576040517f08c379a000000000000000000000000000000000000000000000000000000000815260040180806020018281038252601f8152602001807f43616e6469646174652073686f756c6420626520726567697374657265642e0081525060200191505060405180910390fd5b611656611fe1565b6116ab576040517f08c379a00000000000000000000000000000000000000000000000000000000081526004018080602001828103825260338152602001806123d16033913960400191505060405180910390fd5b600080905060008090505b8351811015611785576000858583815181106116ce57fe5b6020026020010151604051602001808373ffffffffffffffffffffffffffffffffffffffff1673ffffffffffffffffffffffffffffffffffffffff1660601b81526014018281526020019250505060405160208183030381529060405280519060200120905060008090505b60058054905081101561177857816005828154811061175557fe5b9060005260206000200154141561176d576001840193505b60018101905061173a565b50506001810190506116b6565b508091505092915050565b61179933611f42565b806117a957506117a833611ee9565b5b6117fe576040517f08c379a00000000000000000000000000000000000000000000000000000000081526004018080602001828103825260298152602001806124466029913960400191505060405180910390fd5b60008090505b60028054905081101561188c578173ffffffffffffffffffffffffffffffffffffffff166002828154811061183557fe5b9060005260206000200160009054906101000a900473ffffffffffffffffffffffffffffffffffffffff1673ffffffffffffffffffffffffffffffffffffffff1614156118815761188c565b600181019050611804565b6001600280549050038110156119a75760008190505b60016002805490500381101561194d57600260018201815481106118c257fe5b9060005260206000200160009054906101000a900473ffffffffffffffffffffffffffffffffffffffff16600282815481106118fa57fe5b9060005260206000200160006101000a81548173ffffffffffffffffffffffffffffffffffffffff021916908373ffffffffffffffffffffffffffffffffffffffff1602179055506001810190506118a2565b5060026001600280549050038154811061196357fe5b9060005260206000200160006101000a81549073ffffffffffffffffffffffffffffffffffffffff021916905560028054809190600190036119a59190612312565b505b5050565b60006119b633611f42565b806119c657506119c533611ee9565b5b611a1b576040517f08c379a00000000000000000000000000000000000000000000000000000000081526004018080602001828103825260218152602001806124046021913960400191505060405180910390fd5b600580549050905090565b611a2f33612128565b611a84576040517f08c379a00000000000000000000000000000000000000000000000000000000081526004018080602001828103825260238152602001806123ae6023913960400191505060405180910390fd5b611a8c6121c7565b611ae1576040517f08c379a000000000000000000000000000000000000000000000000000000000815260040180806020018281038252602d81526020018061246f602d913960400191505060405180910390fd5b611aea3361226f565b15611b40576040517f08c379a000000000000000000000000000000000000000000000000000000000815260040180806020018281038252602d8152602001806124e9602d913960400191505060405180910390fd5b600581908060018154018082558091505090600182039060005260206000200160009091929091909150555060043390806001815401808255809150509060018203906000526020600020016000909192909190916101000a81548173ffffffffffffffffffffffffffffffffffffffff021916908373ffffffffffffffffffffffffffffffffffffffff1602179055505050565b611bde33611f42565b80611bee5750611bed33611ee9565b5b611c43576040517f08c379a00000000000000000000000000000000000000000000000000000000081526004018080602001828103825260218152602001806124046021913960400191505060405180910390fd5b611c4b611fe1565b611ca0576040517f08c379a00000000000000000000000000000000000000000000000000000000081526004018080602001828103825260338152602001806123d16033913960400191505060405180910390fd5b60008090505b8151811015611e4a5760008090505b600380549050811015611e3e57600060038281548110611cd157fe5b9060005260206000200160009054906101000a900473ffffffffffffffffffffffffffffffffffffffff16848481518110611d0857fe5b6020026020010151604051602001808373ffffffffffffffffffffffffffffffffffffffff1673ffffffffffffffffffffffffffffffffffffffff1660601b81526014018281526020019250505060405160208183030381529060405280519060200120905060008090505b600580549050811015611e31578160058281548110611d8f57fe5b90600052602060002001541415611e26576001600a600060038681548110611db357fe5b9060005260206000200160009054906101000a900473ffffffffffffffffffffffffffffffffffffffff1673ffffffffffffffffffffffffffffffffffffffff1673ffffffffffffffffffffffffffffffffffffffff168152602001908152602001600020600082825401925050819055505b600181019050611d74565b5050600181019050611cb5565b50600181019050611ca6565b506001600b60006101000a81548160ff02191690831515021790555050565b611e7233611f42565b80611e825750611e8133611ee9565b5b611ed7576040517f08c379a00000000000000000000000000000000000000000000000000000000081526004018080602001828103825260248152602001806124c56024913960400191505060405180910390fd5b81600881905550806009819055505050565b60008060009054906101000a900473ffffffffffffffffffffffffffffffffffffffff1673ffffffffffffffffffffffffffffffffffffffff168273ffffffffffffffffffffffffffffffffffffffff16149050919050565b6000806000905060008090505b600180549050811015611fd7578373ffffffffffffffffffffffffffffffffffffffff1660018281548110611f8057fe5b9060005260206000200160009054906101000a900473ffffffffffffffffffffffffffffffffffffffff1673ffffffffffffffffffffffffffffffffffffffff161415611fcc57600191505b600181019050611f4f565b5080915050919050565b60008060085414158015611ff85750600060095414155b61206a576040517f08c379a000000000000000000000000000000000000000000000000000000000815260040180806020018281038252601b8152602001807f566f746520636f756e74696e672064617465206e6f74207365742e000000000081525060200191505060405180910390fd5b6000429050600854811015801561208357506009548111155b91505090565b6000806000905060008090505b60038054905081101561211e578373ffffffffffffffffffffffffffffffffffffffff16600382815481106120c757fe5b9060005260206000200160009054906101000a900473ffffffffffffffffffffffffffffffffffffffff1673ffffffffffffffffffffffffffffffffffffffff16141561211357600191505b600181019050612096565b5080915050919050565b6000806000905060008090505b6002805490508110156121bd578373ffffffffffffffffffffffffffffffffffffffff166002828154811061216657fe5b9060005260206000200160009054906101000a900473ffffffffffffffffffffffffffffffffffffffff1673ffffffffffffffffffffffffffffffffffffffff1614156121b257600191505b600181019050612135565b5080915050919050565b600080600654141580156121de5750600060075414155b612250576040517f08c379a00000000000000000000000000000000000000000000000000000000081526004018080602001828103825260168152602001807f456c656374696f6e2064617465206e6f74207365742e0000000000000000000081525060200191505060405180910390fd5b6000429050600654811015801561226957506007548111155b91505090565b6000806000905060008090505b600480549050811015612308578373ffffffffffffffffffffffffffffffffffffffff16600482815481106122ad57fe5b9060005260206000200160009054906101000a900473ffffffffffffffffffffffffffffffffffffffff1673ffffffffffffffffffffffffffffffffffffffff1614156122fd5760019150612308565b60018101905061227c565b5080915050919050565b81548183558181111561233957818360005260206000209182019101612338919061233e565b5b505050565b61236091905b8082111561235c576000816000905550600101612344565b5090565b9056fe4f6e6c792061646d696e732063616e2073657420616e20656c656374696f6e20646174652e4f6e6c792061646d696e732063616e20726567697374657220612063616e6469646174652e566f7465722073686f756c64206265207265676973746572656420746f20766f74652e566f7465732063616e20626520636f756e746564206f6e6c79206f6e2073657420766f746520636f756e74696e67206461792e4f6e6c792061646d696e732063616e2073656520766f74652063686f696365732e4f6e6c792061646d696e732063616e207265676973746572206120766f746572214f6e6c792073757065722061646d696e2063616e2072656d6f7665206f746865722061646d696e732e566f74696e672063616e20626520646f6e65206f6e6c79206f6e2073657420656c656374696f6e20646174652e4f6e6c792061646d696e732063616e20676574206c697374206f66206f746865722061646d696e732e4f6e6c792061646d696e732063616e2073657420766f746520636f756e7420646174652e566f74657220686173206f6e6c79206f6e6520766f746520616e6420697420686173206265656e20636173742ea165627a7a723058209228f8bd5db524bbf878576f22c6fca368317282a86f188f9e6ea5a3b4a644bd0029",
  "source": "pragma solidity >=0.4.22 <0.6.0;\n\ncontract Voting_System\n{\n    address superAdmin;\n    address[] private admins;\n    address[] private voters;\n    address[] private candidates;\n    address[] private votedVoters;\n    bytes32[] private voteHashes;\n    uint256 private electionStartDateTime;\n    uint256 private electionEndDateTime;\n    uint256 private voteCountStartDateTime;\n    uint256 private voteCountEndDateTime;\n    mapping (address => uint) private candidateToVoteCount;\n    bool voteCountingDone;\n\n    constructor () public {\n        superAdmin = address(0);\n        voteCountingDone = false;\n    }\n\n    function addressIsSuperAdmin(address caller) private view returns(bool) {\n        return (caller == superAdmin);\n    }\n\n    function addressIsAdmin(address caller) private view returns(bool) {\n        bool caller_is_admin = false;\n        for(uint i = 0; i<admins.length; i += 1)\n        {\n            if(admins[i]==caller)\n            {\n                caller_is_admin = true;\n            }\n        }\n        return caller_is_admin;\n    }\n\n    function voterIsRegistered(address voter) private view returns (bool) {\n        bool voterRegistered = false;\n        for(uint i = 0; i<voters.length; i += 1)\n        {\n            if(voters[i] == voter)\n            {\n                voterRegistered = true;\n            }\n        }\n        return voterRegistered;\n    }\n\n    function candidateIsRegistered(address candidate) private view returns (bool) {\n        bool candidateRegistered = false;\n        for(uint i = 0; i<candidates.length; i += 1)\n        {\n            if(candidates[i] == candidate)\n            {\n                candidateRegistered = true;\n            }\n        }\n        return candidateRegistered;\n    }\n\n    function isElectionDay() private view returns (bool) {\n        require(electionStartDateTime != 0 && electionEndDateTime != 0, 'Election date not set.');\n        uint256 currentTime = now;\n        return (currentTime >= electionStartDateTime && currentTime <= electionEndDateTime);\n    }\n\n    function isVoteCountDay() private view returns (bool) {\n        require(voteCountStartDateTime != 0 && voteCountEndDateTime != 0, 'Vote counting date not set.');\n        uint256 current_time = now;\n        return (current_time >= voteCountStartDateTime && current_time <= voteCountEndDateTime);\n    }\n\n    function voterHasVoted(address voter) private view returns (bool) {\n        bool voterVoted = false;\n        for(uint i = 0; i<votedVoters.length; i += 1)\n        {\n            if(votedVoters[i] == voter)\n            {\n                voterVoted = true;\n                break;\n            }\n        }\n        return voterVoted;\n    }\n\n    function makeSuperAdmin(address addr) public\n    {\n        require(superAdmin == address(0) || addressIsSuperAdmin(msg.sender), 'The caller should be super admin');\n        bool adminFound = false;\n        for(uint i = 0; i<admins.length; i += 1)\n        {\n            if(admins[i] == superAdmin)\n            {\n                adminFound = true;\n                break;\n            }\n        }\n        if(!adminFound && superAdmin != address(0))\n        {\n            addAdmin(superAdmin);\n        }\n        superAdmin = addr;\n    }\n\n    function addAdmin(address admin) public {\n        require(addressIsSuperAdmin(msg.sender), 'Only super admin can add admins.');\n        if(!addressIsAdmin(admin))\n        {\n            admins.push(admin);\n        }\n    }\n\n    function removeAdmin(address admin) public {\n        require(addressIsSuperAdmin(msg.sender), 'Only super admin can remove other admins.');\n        uint index = 0;\n        for( ; index<admins.length; index += 1)\n        {\n            if(admins[index] == admin)\n            {\n                break;\n            }\n        }\n        if(index < admins.length-1)\n        {\n            for(uint i = index; i < admins.length-1 ; i += 1)\n            {\n                admins[i] = admins[i+1];\n            }\n            delete admins[admins.length-1];\n            admins.length--;\n        }\n    }\n\n    function getAdmins() public view returns (address[] memory){\n        require(addressIsAdmin(msg.sender) || addressIsSuperAdmin(msg.sender),'Only admins can get list of other admins.');\n        return admins;\n    }\n\n    function registerVoter(address voter) public {\n        require(addressIsAdmin(msg.sender) || addressIsSuperAdmin(msg.sender), 'Only admins can register a voter!');\n        voters.push(voter);\n    }\n\n    function removeVoter(address voter) public {\n        require(addressIsAdmin(msg.sender) || addressIsSuperAdmin(msg.sender), 'Only super admin can remove other admins.');\n        uint index = 0;\n        for( ; index<voters.length; index += 1)\n        {\n            if(voters[index] == voter)\n            {\n                break;\n            }\n        }\n        if(index < voters.length-1)\n        {\n            for(uint i = index; i < voters.length-1 ; i += 1)\n            {\n                voters[i] = voters[i+1];\n            }\n            delete voters[voters.length-1];\n            voters.length--;\n        }\n    }\n\n    function getRegisteredVoters() public view returns (address[] memory) {\n        require(addressIsAdmin(msg.sender) || addressIsSuperAdmin(msg.sender), 'Only admins can register a voter!');\n        return voters;\n    }\n\n    function registerCandidate(address candidate) public {\n        require(addressIsAdmin(msg.sender) || addressIsSuperAdmin(msg.sender), 'Only admins can register a candidate.');\n        candidates.push(candidate);\n    }\n\n    function removeCandidate(address candidate) public {\n        require(addressIsAdmin(msg.sender) || addressIsSuperAdmin(msg.sender), 'Only super admin can remove other admins.');\n        uint index = 0;\n        for( ; index<candidates.length; index += 1)\n        {\n            if(candidates[index] == candidate)\n            {\n                break;\n            }\n        }\n        if(index < candidates.length-1)\n        {\n            for(uint i = index; i < candidates.length-1 ; i += 1)\n            {\n                candidates[i] = candidates[i+1];\n            }\n            delete candidates[candidates.length-1];\n            candidates.length--;\n        }\n    }\n\n    function getRegisteredCandidates() public view returns (address[] memory) {\n        require(addressIsAdmin(msg.sender) || addressIsSuperAdmin(msg.sender), 'Only admins can register a candidate.');\n        return candidates;\n    }\n\n    function setElectionDate(uint256 startDateTime, uint256 endDateTime) public {\n        require(addressIsAdmin(msg.sender) || addressIsSuperAdmin(msg.sender), 'Only admins can set an election date.');\n        electionStartDateTime = startDateTime;\n        electionEndDateTime = endDateTime;\n    }\n\n    function setVoteCountDate(uint256 startDateTime, uint256 endDateTime) public {\n        require(addressIsAdmin(msg.sender) || addressIsSuperAdmin(msg.sender), 'Only admins can set vote count date.');\n        voteCountStartDateTime = startDateTime;\n        voteCountEndDateTime = endDateTime;\n    }\n\n    function vote(bytes32 choiceHash) public {\n        require(voterIsRegistered(msg.sender), 'Voter should be registered to vote.');\n        require(isElectionDay(),'Voting can be done only on set election date.');\n        require(!voterHasVoted(msg.sender), 'Voter has only one vote and it has been cast.');\n        voteHashes.push(choiceHash);\n        votedVoters.push(msg.sender);\n    }\n\n    function getTotalVotesCast() public view returns (uint) {\n        require(addressIsAdmin(msg.sender) || addressIsSuperAdmin(msg.sender),'Only admins can see vote choices.');\n        return voteHashes.length;\n\n    }\n\n    function getTotalVotesCandidate(address candidate, bytes32[] memory nonces) public view returns (uint) {\n        require(addressIsAdmin(msg.sender) || addressIsSuperAdmin(msg.sender),'Only admins can see vote choices.');\n        require(candidateIsRegistered(candidate),'Candidate should be registered.');\n        require(isVoteCountDay(),'Votes can be counted only on set vote counting day.');\n        uint totalVotes = 0;\n        for(uint i = 0; i<nonces.length; i += 1)\n        {\n            bytes32 candidateHash = keccak256(abi.encodePacked(candidate, nonces[i]));\n            for(uint j = 0; j<voteHashes.length; j += 1)\n            {\n                if(voteHashes[j] == candidateHash)\n                {\n                    totalVotes += 1;\n                }\n            }\n        }\n        return totalVotes;\n    }\n\n    function countAllVotes(bytes32[] memory nonces) public {\n        require(addressIsAdmin(msg.sender) || addressIsSuperAdmin(msg.sender),'Only admins can see vote choices.');\n        require(isVoteCountDay(),'Votes can be counted only on set vote counting day.');\n        for(uint i = 0; i<nonces.length; i += 1)\n        {\n            for(uint j = 0; j<candidates.length; j += 1)\n            {\n                bytes32 candidateHash = keccak256(abi.encodePacked(candidates[j], nonces[i]));\n                for(uint k = 0; k<voteHashes.length; k += 1)\n                {\n                    if(voteHashes[k] == candidateHash)\n                    {\n                        candidateToVoteCount[candidates[j]] += 1;\n                    }\n                }\n            }\n        }\n        voteCountingDone = true;\n    }\n\n    function getVoteCountCandidate(address candidate) public view returns (uint) {\n        require(addressIsAdmin(msg.sender) || addressIsSuperAdmin(msg.sender),'Only admins can see vote choices.');\n        require(isVoteCountDay(),'Votes can be counted only on set vote counting day.');\n        require(candidateIsRegistered(candidate),'Candidate should be registered.');\n        require(voteCountingDone, 'Votes have not ben counted yet');\n        return candidateToVoteCount[candidate];\n    }\n}",
  "sourcePath": "/home/tarun/Documents/personal_projects/blockchain-voting-application/contracts/voting_system.sol",
  "compiler": {
    "name": "solc",
    "version": "0.5.8+commit.23d335f2.Emscripten.clang"
  },
  "schemaVersion": "3.0.16",
  "updatedAt": "2019-10-18T11:39:43.333Z",
  "devdoc": {
    "methods": {}
  },
  "userdoc": {
    "methods": {}
  }
}