{
  "contractName": "Voting_System",
  "abi": [
    {
      "inputs": [],
      "payable": false,
      "stateMutability": "nonpayable",
      "type": "constructor"
    },
    {
      "constant": false,
      "inputs": [
        {
          "name": "addr",
          "type": "address"
        }
      ],
      "name": "makeSuperAdmin",
      "outputs": [],
      "payable": false,
      "stateMutability": "nonpayable",
      "type": "function"
    },
    {
      "constant": false,
      "inputs": [
        {
          "name": "admin",
          "type": "address"
        }
      ],
      "name": "addAdmin",
      "outputs": [],
      "payable": false,
      "stateMutability": "nonpayable",
      "type": "function"
    },
    {
      "constant": false,
      "inputs": [
        {
          "name": "admin",
          "type": "address"
        }
      ],
      "name": "removeAdmin",
      "outputs": [],
      "payable": false,
      "stateMutability": "nonpayable",
      "type": "function"
    },
    {
      "constant": true,
      "inputs": [],
      "name": "getAdmins",
      "outputs": [
        {
          "name": "",
          "type": "address[]"
        }
      ],
      "payable": false,
      "stateMutability": "view",
      "type": "function"
    },
    {
      "constant": false,
      "inputs": [
        {
          "name": "voter",
          "type": "address"
        }
      ],
      "name": "registerVoter",
      "outputs": [],
      "payable": false,
      "stateMutability": "nonpayable",
      "type": "function"
    },
    {
      "constant": false,
      "inputs": [
        {
          "name": "voter",
          "type": "address"
        }
      ],
      "name": "removeVoter",
      "outputs": [],
      "payable": false,
      "stateMutability": "nonpayable",
      "type": "function"
    },
    {
      "constant": true,
      "inputs": [],
      "name": "getRegisteredVoters",
      "outputs": [
        {
          "name": "",
          "type": "address[]"
        }
      ],
      "payable": false,
      "stateMutability": "view",
      "type": "function"
    },
    {
      "constant": false,
      "inputs": [
        {
          "name": "candidate",
          "type": "address"
        }
      ],
      "name": "registerCandidate",
      "outputs": [],
      "payable": false,
      "stateMutability": "nonpayable",
      "type": "function"
    },
    {
      "constant": false,
      "inputs": [
        {
          "name": "candidate",
          "type": "address"
        }
      ],
      "name": "removeCandidate",
      "outputs": [],
      "payable": false,
      "stateMutability": "nonpayable",
      "type": "function"
    },
    {
      "constant": true,
      "inputs": [],
      "name": "getRegisteredCandidates",
      "outputs": [
        {
          "name": "",
          "type": "address[]"
        }
      ],
      "payable": false,
      "stateMutability": "view",
      "type": "function"
    },
    {
      "constant": false,
      "inputs": [
        {
          "name": "startDateTime",
          "type": "uint256"
        },
        {
          "name": "endDateTime",
          "type": "uint256"
        }
      ],
      "name": "setElectionDate",
      "outputs": [],
      "payable": false,
      "stateMutability": "nonpayable",
      "type": "function"
    },
    {
      "constant": false,
      "inputs": [
        {
          "name": "startDateTime",
          "type": "uint256"
        },
        {
          "name": "endDateTime",
          "type": "uint256"
        }
      ],
      "name": "setVoteCountDate",
      "outputs": [],
      "payable": false,
      "stateMutability": "nonpayable",
      "type": "function"
    },
    {
      "constant": false,
      "inputs": [
        {
          "name": "choiceHash",
          "type": "bytes32"
        }
      ],
      "name": "vote",
      "outputs": [],
      "payable": false,
      "stateMutability": "nonpayable",
      "type": "function"
    },
    {
      "constant": true,
      "inputs": [],
      "name": "getTotalVotesCast",
      "outputs": [
        {
          "name": "",
          "type": "uint256"
        }
      ],
      "payable": false,
      "stateMutability": "view",
      "type": "function"
    },
    {
      "constant": true,
      "inputs": [
        {
          "name": "candidate",
          "type": "address"
        },
        {
          "name": "nonces",
          "type": "bytes32[]"
        }
      ],
      "name": "getTotalVotesCandidate",
      "outputs": [
        {
          "name": "",
          "type": "uint256"
        }
      ],
      "payable": false,
      "stateMutability": "view",
      "type": "function"
    },
    {
      "constant": false,
      "inputs": [
        {
          "name": "nonces",
          "type": "bytes32[]"
        }
      ],
      "name": "countAllVotes",
      "outputs": [],
      "payable": false,
      "stateMutability": "nonpayable",
      "type": "function"
    }
  ],
  "bytecode": "0x608060405234801561001057600080fd5b5060008060006101000a81548173ffffffffffffffffffffffffffffffffffffffff021916908373ffffffffffffffffffffffffffffffffffffffff160217905550612298806100616000396000f3fe608060405234801561001057600080fd5b50600436106101005760003560e01c806376eed1741161009757806392e2c6d21161006657806392e2c6d214610522578063a69beaba14610540578063cd8d3a941461056e578063f4dcf0ad1461062657610100565b806376eed1741461036a57806384aa3b93146103ae57806385bf8c9b146103f257806386c1ff68146104de57610100565b8063396b9ae0116100d3578063396b9ae01461024b5780634039d4b9146102aa5780636dd091f9146102e2578063704802751461032657610100565b80631785f53c146101055780632bc4a6e71461014957806331ae450b146101a857806338db6dd314610207575b600080fd5b6101476004803603602081101561011b57600080fd5b81019080803573ffffffffffffffffffffffffffffffffffffffff16906020019092919050505061065e565b005b610151610864565b6040518080602001828103825283818151815260200191508051906020019060200280838360005b83811015610194578082015181840152602081019050610179565b505050509050019250505060405180910390f35b6101b0610950565b6040518080602001828103825283818151815260200191508051906020019060200280838360005b838110156101f35780820151818401526020810190506101d8565b505050509050019250505060405180910390f35b6102496004803603602081101561021d57600080fd5b81019080803573ffffffffffffffffffffffffffffffffffffffff169060200190929190505050610a3c565b005b610253610b03565b6040518080602001828103825283818151815260200191508051906020019060200280838360005b8381101561029657808201518184015260208101905061027b565b505050509050019250505060405180910390f35b6102e0600480360360408110156102c057600080fd5b810190808035906020019092919080359060200190929190505050610bef565b005b610324600480360360208110156102f857600080fd5b81019080803573ffffffffffffffffffffffffffffffffffffffff169060200190929190505050610c5f565b005b6103686004803603602081101561033c57600080fd5b81019080803573ffffffffffffffffffffffffffffffffffffffff169060200190929190505050610e6a565b005b6103ac6004803603602081101561038057600080fd5b81019080803573ffffffffffffffffffffffffffffffffffffffff169060200190929190505050610f5c565b005b6103f0600480360360208110156103c457600080fd5b81019080803573ffffffffffffffffffffffffffffffffffffffff1690602001909291905050506111b8565b005b6104c86004803603604081101561040857600080fd5b81019080803573ffffffffffffffffffffffffffffffffffffffff1690602001909291908035906020019064010000000081111561044557600080fd5b82018360208201111561045757600080fd5b8035906020019184602083028401116401000000008311171561047957600080fd5b919080806020026020016040519081016040528093929190818152602001838360200280828437600081840152601f19601f8201169050808301925050505050505091929192905050506112dd565b6040518082815260200191505060405180910390f35b610520600480360360208110156104f457600080fd5b81019080803573ffffffffffffffffffffffffffffffffffffffff1690602001909291905050506114fa565b005b61052a611705565b6040518082815260200191505060405180910390f35b61056c6004803603602081101561055657600080fd5b8101908080359060200190929190505050611770565b005b6106246004803603602081101561058457600080fd5b81019080803590602001906401000000008111156105a157600080fd5b8201836020820111156105b357600080fd5b803590602001918460208302840111640100000000831117156105d557600080fd5b919080806020026020016040519081016040528093929190818152602001838360200280828437600081840152601f19601f82011690508083019250505050505050919291929050505061191f565b005b61065c6004803603604081101561063c57600080fd5b810190808035906020019092919080359060200190929190505050611b88565b005b61066733611bf8565b6106bc576040517f08c379a000000000000000000000000000000000000000000000000000000000815260040180806020018281038252602981526020018061219d6029913960400191505060405180910390fd5b60008090505b60018054905081101561074a578173ffffffffffffffffffffffffffffffffffffffff16600182815481106106f357fe5b9060005260206000200160009054906101000a900473ffffffffffffffffffffffffffffffffffffffff1673ffffffffffffffffffffffffffffffffffffffff16141561073f5761074a565b6001810190506106c2565b60018080549050038110156108605760008190505b60018080549050038110156108085760018082018154811061077d57fe5b9060005260206000200160009054906101000a900473ffffffffffffffffffffffffffffffffffffffff16600182815481106107b557fe5b9060005260206000200160006101000a81548173ffffffffffffffffffffffffffffffffffffffff021916908373ffffffffffffffffffffffffffffffffffffffff16021790555060018101905061075f565b506001808080549050038154811061081c57fe5b9060005260206000200160006101000a81549073ffffffffffffffffffffffffffffffffffffffff0219169055600180548091906001900361085e9190612021565b505b5050565b606061086f33611c51565b6108c4576040517f08c379a000000000000000000000000000000000000000000000000000000000815260040180806020018281038252602181526020018061217c6021913960400191505060405180910390fd5b600280548060200260200160405190810160405280929190818152602001828054801561094657602002820191906000526020600020905b8160009054906101000a900473ffffffffffffffffffffffffffffffffffffffff1673ffffffffffffffffffffffffffffffffffffffff16815260200190600101908083116108fc575b5050505050905090565b606061095b33611c51565b6109b0576040517f08c379a00000000000000000000000000000000000000000000000000000000081526004018080602001828103825260298152602001806121f36029913960400191505060405180910390fd5b6001805480602002602001604051908101604052809291908181526020018280548015610a3257602002820191906000526020600020905b8160009054906101000a900473ffffffffffffffffffffffffffffffffffffffff1673ffffffffffffffffffffffffffffffffffffffff16815260200190600101908083116109e8575b5050505050905090565b610a4533611c51565b610a9a576040517f08c379a000000000000000000000000000000000000000000000000000000000815260040180806020018281038252602181526020018061217c6021913960400191505060405180910390fd5b60028190806001815401808255809150509060018203906000526020600020016000909192909190916101000a81548173ffffffffffffffffffffffffffffffffffffffff021916908373ffffffffffffffffffffffffffffffffffffffff1602179055505050565b6060610b0e33611c51565b610b63576040517f08c379a00000000000000000000000000000000000000000000000000000000081526004018080602001828103825260258152602001806120986025913960400191505060405180910390fd5b6003805480602002602001604051908101604052809291908181526020018280548015610be557602002820191906000526020600020905b8160009054906101000a900473ffffffffffffffffffffffffffffffffffffffff1673ffffffffffffffffffffffffffffffffffffffff1681526020019060010190808311610b9b575b5050505050905090565b610bf833611c51565b610c4d576040517f08c379a00000000000000000000000000000000000000000000000000000000081526004018080602001828103825260258152602001806120736025913960400191505060405180910390fd5b81600681905550806007819055505050565b610c6833611c51565b610cbd576040517f08c379a000000000000000000000000000000000000000000000000000000000815260040180806020018281038252602981526020018061219d6029913960400191505060405180910390fd5b60008090505b600380549050811015610d4b578173ffffffffffffffffffffffffffffffffffffffff1660038281548110610cf457fe5b9060005260206000200160009054906101000a900473ffffffffffffffffffffffffffffffffffffffff1673ffffffffffffffffffffffffffffffffffffffff161415610d4057610d4b565b600181019050610cc3565b600160038054905003811015610e665760008190505b600160038054905003811015610e0c5760036001820181548110610d8157fe5b9060005260206000200160009054906101000a900473ffffffffffffffffffffffffffffffffffffffff1660038281548110610db957fe5b9060005260206000200160006101000a81548173ffffffffffffffffffffffffffffffffffffffff021916908373ffffffffffffffffffffffffffffffffffffffff160217905550600181019050610d61565b50600360016003805490500381548110610e2257fe5b9060005260206000200160006101000a81549073ffffffffffffffffffffffffffffffffffffffff02191690556003805480919060019003610e649190612021565b505b5050565b610e7333611bf8565b610ee5576040517f08c379a00000000000000000000000000000000000000000000000000000000081526004018080602001828103825260208152602001807f4f6e6c792073757065722061646d696e2063616e206164642061646d696e732e81525060200191505060405180910390fd5b610eee81611c51565b610f595760018190806001815401808255809150509060018203906000526020600020016000909192909190916101000a81548173ffffffffffffffffffffffffffffffffffffffff021916908373ffffffffffffffffffffffffffffffffffffffff160217905550505b50565b600073ffffffffffffffffffffffffffffffffffffffff166000809054906101000a900473ffffffffffffffffffffffffffffffffffffffff1673ffffffffffffffffffffffffffffffffffffffff161480610fbd5750610fbc33611bf8565b5b61102f576040517f08c379a00000000000000000000000000000000000000000000000000000000081526004018080602001828103825260208152602001807f5468652063616c6c65722073686f756c642062652073757065722061646d696e81525060200191505060405180910390fd5b600080905060008090505b6001805490508110156110e7576000809054906101000a900473ffffffffffffffffffffffffffffffffffffffff1673ffffffffffffffffffffffffffffffffffffffff166001828154811061108c57fe5b9060005260206000200160009054906101000a900473ffffffffffffffffffffffffffffffffffffffff1673ffffffffffffffffffffffffffffffffffffffff1614156110dc57600191506110e7565b60018101905061103a565b50801580156111445750600073ffffffffffffffffffffffffffffffffffffffff166000809054906101000a900473ffffffffffffffffffffffffffffffffffffffff1673ffffffffffffffffffffffffffffffffffffffff1614155b15611174576111736000809054906101000a900473ffffffffffffffffffffffffffffffffffffffff16610e6a565b5b816000806101000a81548173ffffffffffffffffffffffffffffffffffffffff021916908373ffffffffffffffffffffffffffffffffffffffff1602179055505050565b6111c133611c51565b611216576040517f08c379a00000000000000000000000000000000000000000000000000000000081526004018080602001828103825260258152602001806120986025913960400191505060405180910390fd5b61121f81611cf0565b611274576040517f08c379a00000000000000000000000000000000000000000000000000000000081526004018080602001828103825260488152602001806120bd6048913960600191505060405180910390fd5b60038190806001815401808255809150509060018203906000526020600020016000909192909190916101000a81548173ffffffffffffffffffffffffffffffffffffffff021916908373ffffffffffffffffffffffffffffffffffffffff1602179055505050565b60006112e833611c51565b61133d576040517f08c379a000000000000000000000000000000000000000000000000000000000815260040180806020018281038252602181526020018061215b6021913960400191505060405180910390fd5b61134683611d8f565b6113b8576040517f08c379a000000000000000000000000000000000000000000000000000000000815260040180806020018281038252601f8152602001807f43616e6469646174652073686f756c6420626520726567697374657265642e0081525060200191505060405180910390fd5b6113c0611e2e565b611415576040517f08c379a00000000000000000000000000000000000000000000000000000000081526004018080602001828103825260338152602001806121286033913960400191505060405180910390fd5b600080905060008090505b83518110156114ef5760008585838151811061143857fe5b6020026020010151604051602001808373ffffffffffffffffffffffffffffffffffffffff1673ffffffffffffffffffffffffffffffffffffffff1660601b81526014018281526020019250505060405160208183030381529060405280519060200120905060008090505b6005805490508110156114e25781600582815481106114bf57fe5b906000526020600020015414156114d7576001840193505b6001810190506114a4565b5050600181019050611420565b508091505092915050565b61150333611c51565b611558576040517f08c379a000000000000000000000000000000000000000000000000000000000815260040180806020018281038252602981526020018061219d6029913960400191505060405180910390fd5b60008090505b6002805490508110156115e6578173ffffffffffffffffffffffffffffffffffffffff166002828154811061158f57fe5b9060005260206000200160009054906101000a900473ffffffffffffffffffffffffffffffffffffffff1673ffffffffffffffffffffffffffffffffffffffff1614156115db576115e6565b60018101905061155e565b6001600280549050038110156117015760008190505b6001600280549050038110156116a7576002600182018154811061161c57fe5b9060005260206000200160009054906101000a900473ffffffffffffffffffffffffffffffffffffffff166002828154811061165457fe5b9060005260206000200160006101000a81548173ffffffffffffffffffffffffffffffffffffffff021916908373ffffffffffffffffffffffffffffffffffffffff1602179055506001810190506115fc565b506002600160028054905003815481106116bd57fe5b9060005260206000200160006101000a81549073ffffffffffffffffffffffffffffffffffffffff021916905560028054809190600190036116ff9190612021565b505b5050565b600061171033611c51565b611765576040517f08c379a000000000000000000000000000000000000000000000000000000000815260040180806020018281038252602181526020018061215b6021913960400191505060405180910390fd5b600580549050905090565b61177933611cf0565b6117ce576040517f08c379a00000000000000000000000000000000000000000000000000000000081526004018080602001828103825260238152602001806121056023913960400191505060405180910390fd5b6117d6611ed6565b61182b576040517f08c379a000000000000000000000000000000000000000000000000000000000815260040180806020018281038252602d8152602001806121c6602d913960400191505060405180910390fd5b61183433611f7e565b1561188a576040517f08c379a000000000000000000000000000000000000000000000000000000000815260040180806020018281038252602d815260200180612240602d913960400191505060405180910390fd5b600581908060018154018082558091505090600182039060005260206000200160009091929091909150555060043390806001815401808255809150509060018203906000526020600020016000909192909190916101000a81548173ffffffffffffffffffffffffffffffffffffffff021916908373ffffffffffffffffffffffffffffffffffffffff1602179055505050565b61192833611c51565b61197d576040517f08c379a000000000000000000000000000000000000000000000000000000000815260040180806020018281038252602181526020018061215b6021913960400191505060405180910390fd5b611985611e2e565b6119da576040517f08c379a00000000000000000000000000000000000000000000000000000000081526004018080602001828103825260338152602001806121286033913960400191505060405180910390fd5b60008090505b8151811015611b845760008090505b600380549050811015611b7857600060038281548110611a0b57fe5b9060005260206000200160009054906101000a900473ffffffffffffffffffffffffffffffffffffffff16848481518110611a4257fe5b6020026020010151604051602001808373ffffffffffffffffffffffffffffffffffffffff1673ffffffffffffffffffffffffffffffffffffffff1660601b81526014018281526020019250505060405160208183030381529060405280519060200120905060008090505b600580549050811015611b6b578160058281548110611ac957fe5b90600052602060002001541415611b60576001600a600060038681548110611aed57fe5b9060005260206000200160009054906101000a900473ffffffffffffffffffffffffffffffffffffffff1673ffffffffffffffffffffffffffffffffffffffff1673ffffffffffffffffffffffffffffffffffffffff168152602001908152602001600020600082825401925050819055505b600181019050611aae565b50506001810190506119ef565b506001810190506119e0565b5050565b611b9133611c51565b611be6576040517f08c379a000000000000000000000000000000000000000000000000000000000815260040180806020018281038252602481526020018061221c6024913960400191505060405180910390fd5b81600881905550806009819055505050565b60008060009054906101000a900473ffffffffffffffffffffffffffffffffffffffff1673ffffffffffffffffffffffffffffffffffffffff168273ffffffffffffffffffffffffffffffffffffffff16149050919050565b6000806000905060008090505b600180549050811015611ce6578373ffffffffffffffffffffffffffffffffffffffff1660018281548110611c8f57fe5b9060005260206000200160009054906101000a900473ffffffffffffffffffffffffffffffffffffffff1673ffffffffffffffffffffffffffffffffffffffff161415611cdb57600191505b600181019050611c5e565b5080915050919050565b6000806000905060008090505b600280549050811015611d85578373ffffffffffffffffffffffffffffffffffffffff1660028281548110611d2e57fe5b9060005260206000200160009054906101000a900473ffffffffffffffffffffffffffffffffffffffff1673ffffffffffffffffffffffffffffffffffffffff161415611d7a57600191505b600181019050611cfd565b5080915050919050565b6000806000905060008090505b600380549050811015611e24578373ffffffffffffffffffffffffffffffffffffffff1660038281548110611dcd57fe5b9060005260206000200160009054906101000a900473ffffffffffffffffffffffffffffffffffffffff1673ffffffffffffffffffffffffffffffffffffffff161415611e1957600191505b600181019050611d9c565b5080915050919050565b60008060085414158015611e455750600060095414155b611eb7576040517f08c379a000000000000000000000000000000000000000000000000000000000815260040180806020018281038252601b8152602001807f566f746520636f756e74696e672064617465206e6f74207365742e000000000081525060200191505060405180910390fd5b60004290506008548110158015611ed057506009548111155b91505090565b60008060065414158015611eed5750600060075414155b611f5f576040517f08c379a00000000000000000000000000000000000000000000000000000000081526004018080602001828103825260168152602001807f456c656374696f6e2064617465206e6f74207365742e0000000000000000000081525060200191505060405180910390fd5b60004290506006548110158015611f7857506007548111155b91505090565b6000806000905060008090505b600480549050811015612017578373ffffffffffffffffffffffffffffffffffffffff1660048281548110611fbc57fe5b9060005260206000200160009054906101000a900473ffffffffffffffffffffffffffffffffffffffff1673ffffffffffffffffffffffffffffffffffffffff16141561200c5760019150612017565b600181019050611f8b565b5080915050919050565b81548183558181111561204857818360005260206000209182019101612047919061204d565b5b505050565b61206f91905b8082111561206b576000816000905550600101612053565b5090565b9056fe4f6e6c792061646d696e732063616e2073657420616e20656c656374696f6e20646174652e4f6e6c792061646d696e732063616e20726567697374657220612063616e6469646174652e43616e6469646174652073686f756c642062652072656769737465726564206173206120766f74657220746f20626520726567697374657265642061732063616e64696461746521566f7465722073686f756c64206265207265676973746572656420746f20766f74652e566f7465732063616e20626520636f756e746564206f6e6c79206f6e2073657420766f746520636f756e74696e67206461792e4f6e6c792061646d696e732063616e2073656520766f74652063686f696365732e4f6e6c792061646d696e732063616e207265676973746572206120766f746572214f6e6c792073757065722061646d696e2063616e2072656d6f7665206f746865722061646d696e732e566f74696e672063616e20626520646f6e65206f6e6c79206f6e2073657420656c656374696f6e20646174652e4f6e6c792061646d696e732063616e20676574206c697374206f66206f746865722061646d696e732e4f6e6c792061646d696e732063616e2073657420766f746520636f756e7420646174652e566f74657220686173206f6e6c79206f6e6520766f746520616e6420697420686173206265656e20636173742ea165627a7a723058201c727399d5b8f9e82966a8bd5d3706da9f705d4ce5623de0bf3285d8d662137e0029",
  "source": "pragma solidity >=0.4.22 <0.6.0;\n\ncontract Voting_System\n{\n    address superAdmin;\n    address[] private admins;\n    address[] private voters;\n    address[] private candidates;\n    address[] private votedVoters;\n    bytes32[] private voteHashes;\n    uint256 private electionStartDateTime;\n    uint256 private electionEndDateTime;\n    uint256 private voteCountStartDateTime;\n    uint256 private voteCountEndDateTime;\n    mapping (address => uint) private candidateToVoteCount;\n\n    constructor () public {\n        superAdmin = address(0);\n    }\n\n    function addressIsSuperAdmin(address caller) private view returns(bool) {\n        return (caller == superAdmin);\n    }\n\n    function addressIsAdmin(address caller) private view returns(bool) {\n        bool caller_is_super_admin = false;\n        for(uint i = 0; i<admins.length; i += 1)\n        {\n            if(admins[i]==caller)\n            {\n                caller_is_super_admin = true;\n            }\n        }\n        return caller_is_super_admin;\n    }\n\n    function voterIsRegistered(address voter) private view returns (bool) {\n        bool voterRegistered = false;\n        for(uint i = 0; i<voters.length; i += 1)\n        {\n            if(voters[i] == voter)\n            {\n                voterRegistered = true;\n            }\n        }\n        return voterRegistered;\n    }\n\n    function candidateIsRegistered(address candidate) private view returns (bool) {\n        bool candidateRegistered = false;\n        for(uint i = 0; i<candidates.length; i += 1)\n        {\n            if(candidates[i] == candidate)\n            {\n                candidateRegistered = true;\n            }\n        }\n        return candidateRegistered;\n    }\n\n    function isElectionDay() private view returns (bool) {\n        require(electionStartDateTime != 0 && electionEndDateTime != 0, 'Election date not set.');\n        uint256 currentTime = now;\n        return (currentTime >= electionStartDateTime && currentTime <= electionEndDateTime);\n    }\n\n    function isVoteCountDay() private view returns (bool) {\n        require(voteCountStartDateTime != 0 && voteCountEndDateTime != 0, 'Vote counting date not set.');\n        uint256 current_time = now;\n        return (current_time >= voteCountStartDateTime && current_time <= voteCountEndDateTime);\n    }\n\n    function voterHasVoted(address voter) private view returns (bool) {\n        bool voterVoted = false;\n        for(uint i = 0; i<votedVoters.length; i += 1)\n        {\n            if(votedVoters[i] == voter)\n            {\n                voterVoted = true;\n                break;\n            }\n        }\n        return voterVoted;\n    }\n\n    function makeSuperAdmin(address addr) public\n    {\n        require(superAdmin == address(0) || addressIsSuperAdmin(msg.sender), 'The caller should be super admin');\n        bool adminFound = false;\n        for(uint i = 0; i<admins.length; i += 1)\n        {\n            if(admins[i] == superAdmin)\n            {\n                adminFound = true;\n                break;\n            }\n        }\n        if(!adminFound && superAdmin != address(0))\n        {\n            addAdmin(superAdmin);\n        }\n        superAdmin = addr;\n    }\n\n    function addAdmin(address admin) public {\n        require(addressIsSuperAdmin(msg.sender), 'Only super admin can add admins.');\n        if(!addressIsAdmin(admin))\n        {\n            admins.push(admin);\n        }\n    }\n\n    function removeAdmin(address admin) public {\n        require(addressIsSuperAdmin(msg.sender), 'Only super admin can remove other admins.');\n        uint index = 0;\n        for( ; index<admins.length; index += 1)\n        {\n            if(admins[index] == admin)\n            {\n                break;\n            }\n        }\n        if(index < admins.length-1)\n        {\n            for(uint i = index; i < admins.length-1 ; i += 1)\n            {\n                admins[i] = admins[i+1];\n            }\n            delete admins[admins.length-1];\n            admins.length--;\n        }\n    }\n\n    function getAdmins() public view returns (address[] memory){\n        require(addressIsAdmin(msg.sender),'Only admins can get list of other admins.');\n        return admins;\n    }\n\n    function registerVoter(address voter) public {\n        require(addressIsAdmin(msg.sender), 'Only admins can register a voter!');\n        voters.push(voter);\n    }\n\n    function removeVoter(address voter) public {\n        require(addressIsAdmin(msg.sender), 'Only super admin can remove other admins.');\n        uint index = 0;\n        for( ; index<voters.length; index += 1)\n        {\n            if(voters[index] == voter)\n            {\n                break;\n            }\n        }\n        if(index < voters.length-1)\n        {\n            for(uint i = index; i < voters.length-1 ; i += 1)\n            {\n                voters[i] = voters[i+1];\n            }\n            delete voters[voters.length-1];\n            voters.length--;\n        }\n    }\n\n    function getRegisteredVoters() public view returns (address[] memory) {\n        require(addressIsAdmin(msg.sender), 'Only admins can register a voter!');\n        return voters;\n    }\n\n    function registerCandidate(address candidate) public {\n        require(addressIsAdmin(msg.sender), 'Only admins can register a candidate.');\n        require(voterIsRegistered(candidate),'Candidate should be registered as a voter to be registered as candidate!');\n        candidates.push(candidate);\n    }\n\n    function removeCandidate(address candidate) public {\n        require(addressIsAdmin(msg.sender), 'Only super admin can remove other admins.');\n        uint index = 0;\n        for( ; index<candidates.length; index += 1)\n        {\n            if(candidates[index] == candidate)\n            {\n                break;\n            }\n        }\n        if(index < candidates.length-1)\n        {\n            for(uint i = index; i < candidates.length-1 ; i += 1)\n            {\n                candidates[i] = candidates[i+1];\n            }\n            delete candidates[candidates.length-1];\n            candidates.length--;\n        }\n    }\n\n    function getRegisteredCandidates() public view returns (address[] memory) {\n        require(addressIsAdmin(msg.sender), 'Only admins can register a candidate.');\n        return candidates;\n    }\n\n    function setElectionDate(uint256 startDateTime, uint256 endDateTime) public {\n        require(addressIsAdmin(msg.sender), 'Only admins can set an election date.');\n        electionStartDateTime = startDateTime;\n        electionEndDateTime = endDateTime;\n    }\n\n    function setVoteCountDate(uint256 startDateTime, uint256 endDateTime) public {\n        require(addressIsAdmin(msg.sender), 'Only admins can set vote count date.');\n        voteCountStartDateTime = startDateTime;\n        voteCountEndDateTime = endDateTime;\n    }\n\n    function vote(bytes32 choiceHash) public {\n        require(voterIsRegistered(msg.sender), 'Voter should be registered to vote.');\n        require(isElectionDay(),'Voting can be done only on set election date.');\n        require(!voterHasVoted(msg.sender), 'Voter has only one vote and it has been cast.');\n        voteHashes.push(choiceHash);\n        votedVoters.push(msg.sender);\n    }\n\n    function getTotalVotesCast() public view returns (uint) {\n        require(addressIsAdmin(msg.sender),'Only admins can see vote choices.');\n        return voteHashes.length;\n\n    }\n\n    function getTotalVotesCandidate(address candidate, bytes32[] memory nonces) public view returns (uint) {\n        require(addressIsAdmin(msg.sender),'Only admins can see vote choices.');\n        require(candidateIsRegistered(candidate),'Candidate should be registered.');\n        require(isVoteCountDay(),'Votes can be counted only on set vote counting day.');\n        uint totalVotes = 0;\n        for(uint i = 0; i<nonces.length; i += 1)\n        {\n            bytes32 candidateHash = keccak256(abi.encodePacked(candidate, nonces[i]));\n            for(uint j = 0; j<voteHashes.length; j += 1)\n            {\n                if(voteHashes[j] == candidateHash)\n                {\n                    totalVotes += 1;\n                }\n            }\n        }\n        return totalVotes;\n    }\n\n    function countAllVotes(bytes32[] memory nonces) public {\n        require(addressIsAdmin(msg.sender),'Only admins can see vote choices.');\n        require(isVoteCountDay(),'Votes can be counted only on set vote counting day.');\n        for(uint i = 0; i<nonces.length; i += 1)\n        {\n            for(uint j = 0; j<candidates.length; j += 1)\n            {\n                bytes32 candidateHash = keccak256(abi.encodePacked(candidates[j], nonces[i]));\n                for(uint k = 0; k<voteHashes.length; k += 1)\n                {\n                    if(voteHashes[k] == candidateHash)\n                    {\n                        candidateToVoteCount[candidates[j]] += 1;\n                    }\n                }\n            }\n        }\n    }\n}",
  "sourcePath": "/home/tarun/Documents/personal_projects/backup/blockchain-voting-application/contracts/voting_system.sol",
  "compiler": {
    "name": "solc",
    "version": "0.5.8+commit.23d335f2.Emscripten.clang"
  },
  "schemaVersion": "3.0.16",
  "updatedAt": "2019-10-17T16:28:44.534Z",
  "devdoc": {
    "methods": {}
  },
  "userdoc": {
    "methods": {}
  }
}