{
  "contractName": "Voting_System",
  "abi": [
    {
      "inputs": [
        {
          "name": "total_consts",
          "type": "uint256"
        }
      ],
      "payable": false,
      "stateMutability": "nonpayable",
      "type": "constructor"
    },
    {
      "constant": true,
      "inputs": [],
      "name": "get_superAdmins",
      "outputs": [
        {
          "name": "",
          "type": "address[]"
        }
      ],
      "payable": false,
      "stateMutability": "view",
      "type": "function"
    },
    {
      "constant": false,
      "inputs": [
        {
          "name": "admin",
          "type": "address"
        }
      ],
      "name": "add_superAdmin",
      "outputs": [],
      "payable": false,
      "stateMutability": "nonpayable",
      "type": "function"
    },
    {
      "constant": false,
      "inputs": [
        {
          "name": "const_name",
          "type": "string"
        }
      ],
      "name": "register_constituency",
      "outputs": [],
      "payable": false,
      "stateMutability": "nonpayable",
      "type": "function"
    },
    {
      "constant": false,
      "inputs": [
        {
          "name": "cAdmin",
          "type": "address"
        },
        {
          "name": "constituency",
          "type": "bytes32"
        }
      ],
      "name": "add_constituencyAdmin",
      "outputs": [],
      "payable": false,
      "stateMutability": "nonpayable",
      "type": "function"
    },
    {
      "constant": true,
      "inputs": [
        {
          "name": "constituency",
          "type": "bytes32"
        }
      ],
      "name": "get_constituency_admins",
      "outputs": [
        {
          "name": "",
          "type": "address[]"
        }
      ],
      "payable": false,
      "stateMutability": "view",
      "type": "function"
    },
    {
      "constant": false,
      "inputs": [
        {
          "name": "vc_name",
          "type": "string"
        },
        {
          "name": "constituency",
          "type": "bytes32"
        }
      ],
      "name": "register_votingCentre",
      "outputs": [],
      "payable": false,
      "stateMutability": "nonpayable",
      "type": "function"
    },
    {
      "constant": false,
      "inputs": [
        {
          "name": "voter",
          "type": "address"
        },
        {
          "name": "constituency",
          "type": "bytes32"
        }
      ],
      "name": "register_voter",
      "outputs": [],
      "payable": false,
      "stateMutability": "nonpayable",
      "type": "function"
    },
    {
      "constant": false,
      "inputs": [
        {
          "name": "voter",
          "type": "address"
        },
        {
          "name": "voting_centre",
          "type": "bytes32"
        }
      ],
      "name": "allocate_voter",
      "outputs": [],
      "payable": false,
      "stateMutability": "nonpayable",
      "type": "function"
    },
    {
      "constant": false,
      "inputs": [
        {
          "name": "candidate",
          "type": "address"
        },
        {
          "name": "constituency",
          "type": "bytes32"
        }
      ],
      "name": "register_candidate",
      "outputs": [],
      "payable": false,
      "stateMutability": "nonpayable",
      "type": "function"
    },
    {
      "constant": false,
      "inputs": [
        {
          "name": "constituency",
          "type": "bytes32"
        },
        {
          "name": "start_dateTime",
          "type": "uint256"
        },
        {
          "name": "end_dateTime",
          "type": "uint256"
        }
      ],
      "name": "set_electionDate",
      "outputs": [],
      "payable": false,
      "stateMutability": "nonpayable",
      "type": "function"
    },
    {
      "constant": false,
      "inputs": [
        {
          "name": "constituency",
          "type": "bytes32"
        },
        {
          "name": "start_dateTime",
          "type": "uint256"
        },
        {
          "name": "end_dateTime",
          "type": "uint256"
        }
      ],
      "name": "set_voteCountDate",
      "outputs": [],
      "payable": false,
      "stateMutability": "nonpayable",
      "type": "function"
    },
    {
      "constant": false,
      "inputs": [
        {
          "name": "constituency",
          "type": "bytes32"
        },
        {
          "name": "start_dateTime",
          "type": "uint256"
        },
        {
          "name": "end_dateTime",
          "type": "uint256"
        }
      ],
      "name": "set_resultDeclareDate",
      "outputs": [],
      "payable": false,
      "stateMutability": "nonpayable",
      "type": "function"
    },
    {
      "constant": true,
      "inputs": [
        {
          "name": "constituency",
          "type": "bytes32"
        }
      ],
      "name": "get_allCandidates_constituency",
      "outputs": [
        {
          "name": "",
          "type": "address[]"
        }
      ],
      "payable": false,
      "stateMutability": "view",
      "type": "function"
    },
    {
      "constant": false,
      "inputs": [
        {
          "name": "constituency",
          "type": "bytes32"
        },
        {
          "name": "voting_centre",
          "type": "bytes32"
        },
        {
          "name": "candidate",
          "type": "address"
        }
      ],
      "name": "vote",
      "outputs": [],
      "payable": false,
      "stateMutability": "nonpayable",
      "type": "function"
    },
    {
      "constant": true,
      "inputs": [
        {
          "name": "voting_centre",
          "type": "bytes32"
        }
      ],
      "name": "get_totalVotes_votingCentre",
      "outputs": [
        {
          "name": "",
          "type": "uint256"
        }
      ],
      "payable": false,
      "stateMutability": "view",
      "type": "function"
    },
    {
      "constant": true,
      "inputs": [
        {
          "name": "constituency",
          "type": "bytes32"
        }
      ],
      "name": "get_totalVotes_constituency",
      "outputs": [
        {
          "name": "",
          "type": "uint256"
        }
      ],
      "payable": false,
      "stateMutability": "view",
      "type": "function"
    },
    {
      "constant": true,
      "inputs": [
        {
          "name": "candidate",
          "type": "address"
        },
        {
          "name": "constituency",
          "type": "bytes32"
        }
      ],
      "name": "get_totalVotes_candidate",
      "outputs": [
        {
          "name": "",
          "type": "uint256"
        }
      ],
      "payable": false,
      "stateMutability": "view",
      "type": "function"
    },
    {
      "constant": false,
      "inputs": [
        {
          "name": "constituency",
          "type": "bytes32"
        }
      ],
      "name": "get_constituency_winner",
      "outputs": [
        {
          "name": "",
          "type": "address[]"
        }
      ],
      "payable": false,
      "stateMutability": "nonpayable",
      "type": "function"
    }
  ],
  "bytecode": "0x608060405234801561001057600080fd5b506040516020806134d18339810180604052602081101561003057600080fd5b8101908080519060200190929190505050806005819055506000600381905550600060048190555060003390806001815401808255809150509060018203906000526020600020016000909192909190916101000a81548173ffffffffffffffffffffffffffffffffffffffff021916908373ffffffffffffffffffffffffffffffffffffffff1602179055505050613403806100ce6000396000f3fe608060405234801561001057600080fd5b50600436106101165760003560e01c80638c644cf3116100a2578063b0531c2711610071578063b0531c2714610609578063b947b9e61461066b578063d1d744cf146106b9578063db617d6a146106fd578063eb7735c11461078057610116565b80638c644cf3146103f957806390c39eed1461043b57806397a5e739146104895780639a72a5861461054457610116565b80632b2e0390116100e95780632b2e0390146102625780634c3fcb56146102a4578063656186eb146102f25780637a16efa4146103345780638a7cfddb1461037657610116565b80630c30baf11461011b578063189e41161461017a5780631e6c522b146101bc578063212be1b21461020a575b600080fd5b610123610803565b6040518080602001828103825283818151815260200191508051906020019060200280838360005b8381101561016657808201518184015260208101905061014b565b505050509050019250505060405180910390f35b6101a66004803603602081101561019057600080fd5b81019080803590602001909291905050506108ef565b6040518082815260200191505060405180910390f35b610208600480360360408110156101d257600080fd5b81019080803573ffffffffffffffffffffffffffffffffffffffff16906020019092919080359060200190929190505050610b03565b005b6102606004803603606081101561022057600080fd5b810190808035906020019092919080359060200190929190803573ffffffffffffffffffffffffffffffffffffffff169060200190929190505050610cc7565b005b6102a26004803603606081101561027857600080fd5b8101908080359060200190929190803590602001909291908035906020019092919050505061103e565b005b6102f0600480360360408110156102ba57600080fd5b81019080803573ffffffffffffffffffffffffffffffffffffffff169060200190929190803590602001909291905050506111a7565b005b6103326004803603606081101561030857600080fd5b81019080803590602001909291908035906020019092919080359060200190929190505050611384565b005b6103606004803603602081101561034a57600080fd5b81019080803590602001909291905050506114ed565b6040518082815260200191505060405180910390f35b6103a26004803603602081101561038c57600080fd5b810190808035906020019092919050505061172f565b6040518080602001828103825283818151815260200191508051906020019060200280838360005b838110156103e55780820151818401526020810190506103ca565b505050509050019250505060405180910390f35b6104396004803603606081101561040f57600080fd5b810190808035906020019092919080359060200190929190803590602001909291905050506118a9565b005b6104876004803603604081101561045157600080fd5b81019080803573ffffffffffffffffffffffffffffffffffffffff16906020019092919080359060200190929190505050611a12565b005b6105426004803603602081101561049f57600080fd5b81019080803590602001906401000000008111156104bc57600080fd5b8201836020820111156104ce57600080fd5b803590602001918460018302840111640100000000831117156104f057600080fd5b91908080601f016020809104026020016040519081016040528093929190818152602001838380828437600081840152601f19601f820116905080830192505050505050509192919290505050611b66565b005b6106076004803603604081101561055a57600080fd5b810190808035906020019064010000000081111561057757600080fd5b82018360208201111561058957600080fd5b803590602001918460018302840111640100000000831117156105ab57600080fd5b91908080601f016020809104026020016040519081016040528093929190818152602001838380828437600081840152601f19601f82011690508083019250505050505050919291929080359060200190929190505050611ce5565b005b6106556004803603604081101561061f57600080fd5b81019080803573ffffffffffffffffffffffffffffffffffffffff16906020019092919080359060200190929190505050611e8e565b6040518082815260200191505060405180910390f35b6106b76004803603604081101561068157600080fd5b81019080803573ffffffffffffffffffffffffffffffffffffffff16906020019092919080359060200190929190505050612004565b005b6106fb600480360360208110156106cf57600080fd5b81019080803573ffffffffffffffffffffffffffffffffffffffff1690602001909291905050506121c1565b005b6107296004803603602081101561071357600080fd5b8101908080359060200190929190505050612288565b6040518080602001828103825283818151815260200191508051906020019060200280838360005b8381101561076c578082015181840152602081019050610751565b505050509050019250505060405180910390f35b6107ac6004803603602081101561079657600080fd5b8101908080359060200190929190505050612413565b6040518080602001828103825283818151815260200191508051906020019060200280838360005b838110156107ef5780820151818401526020810190506107d4565b505050509050019250505060405180910390f35b606061080e3361293a565b610863576040517f08c379a00000000000000000000000000000000000000000000000000000000081526004018080602001828103825260358152602001806130b46035913960400191505060405180910390fd5b60008054806020026020016040519081016040528092919081815260200182805480156108e557602002820191906000526020600020905b8160009054906101000a900473ffffffffffffffffffffffffffffffffffffffff1673ffffffffffffffffffffffffffffffffffffffff168152602001906001019080831161089b575b5050505050905090565b60006108fa826129d9565b61096c576040517f08c379a000000000000000000000000000000000000000000000000000000000815260040180806020018281038252601c8152602001807f436f6e7374697475656e6379206e6f742072656769737465726564210000000081525060200191505060405180910390fd5b61097582612a2c565b6109ca576040517f08c379a00000000000000000000000000000000000000000000000000000000081526004018080602001828103825260338152602001806130e96033913960400191505060405180910390fd5b6109d33361293a565b806109e457506109e33383612b12565b5b610a39576040517f08c379a00000000000000000000000000000000000000000000000000000000081526004018080602001828103825260398152602001806133086039913960400191505060405180910390fd5b600080905060008090505b600b600085815260200190815260200160002080549050811015610af95760026000600b60008781526020019081526020016000208381548110610a8457fe5b9060005260206000200160009054906101000a900473ffffffffffffffffffffffffffffffffffffffff1673ffffffffffffffffffffffffffffffffffffffff1673ffffffffffffffffffffffffffffffffffffffff1681526020019081526020016000205482019150600181019050610a44565b5080915050919050565b610b0c816129d9565b610b7e576040517f08c379a000000000000000000000000000000000000000000000000000000000815260040180806020018281038252601c8152602001807f436f6e7374697475656e6379206e6f742072656769737465726564210000000081525060200191505060405180910390fd5b610b873361293a565b80610b985750610b973382612b12565b5b610bed576040517f08c379a0000000000000000000000000000000000000000000000000000000008152600401808060200182810382526042815260200180612ffe6042913960600191505060405180910390fd5b610bf78282612bd4565b610c4c576040517f08c379a00000000000000000000000000000000000000000000000000000000081526004018080602001828103825260488152602001806130406048913960600191505060405180910390fd5b600b60008281526020019081526020016000208290806001815401808255809150509060018203906000526020600020016000909192909190916101000a81548173ffffffffffffffffffffffffffffffffffffffff021916908373ffffffffffffffffffffffffffffffffffffffff160217905550505050565b610cd0836129d9565b610d42576040517f08c379a000000000000000000000000000000000000000000000000000000000815260040180806020018281038252601c8152602001807f436f6e7374697475656e6379206e6f742072656769737465726564210000000081525060200191505060405180910390fd5b610d4b82612c9a565b610dbd576040517f08c379a000000000000000000000000000000000000000000000000000000000815260040180806020018281038252601c8152602001807f566f74696e672063656e747265206e6f7420726567697374657265640000000081525060200191505060405180910390fd5b610dc73384612bd4565b610e1c576040517f08c379a000000000000000000000000000000000000000000000000000000000815260040180806020018281038252602381526020018061327f6023913960400191505060405180910390fd5b610e268184612ced565b610e7b576040517f08c379a000000000000000000000000000000000000000000000000000000000815260040180806020018281038252603481526020018061315a6034913960400191505060405180910390fd5b6002600c60008581526020019081526020016000208054905014610eea576040517f08c379a00000000000000000000000000000000000000000000000000000000081526004018080602001828103825260268152602001806133b26026913960400191505060405180910390fd5b610ef383612db3565b610f48576040517f08c379a000000000000000000000000000000000000000000000000000000000815260040180806020018281038252602d81526020018061318e602d913960400191505060405180910390fd5b600f60003373ffffffffffffffffffffffffffffffffffffffff1673ffffffffffffffffffffffffffffffffffffffff16815260200190815260200160002060009054906101000a900460ff1615610feb576040517f08c379a000000000000000000000000000000000000000000000000000000000815260040180806020018281038252602d815260200180613385602d913960400191505060405180910390fd5b6001600260008373ffffffffffffffffffffffffffffffffffffffff1673ffffffffffffffffffffffffffffffffffffffff16815260200190815260200160002060008282540192505081905550505050565b611047836129d9565b6110b9576040517f08c379a000000000000000000000000000000000000000000000000000000000815260040180806020018281038252601c8152602001807f436f6e7374697475656e6379206e6f742072656769737465726564210000000081525060200191505060405180910390fd5b6110c23361293a565b806110d357506110d23384612b12565b5b611128576040517f08c379a0000000000000000000000000000000000000000000000000000000008152600401808060200182810382526042815260200180612ffe6042913960600191505060405180910390fd5b600d6000848152602001908152602001600020829080600181540180825580915050906001820390600052602060002001600090919290919091505550600d6000848152602001908152602001600020819080600181540180825580915050906001820390600052602060002001600090919290919091505550505050565b6111b081612c9a565b611222576040517f08c379a000000000000000000000000000000000000000000000000000000000815260040180806020018281038252601c8152602001807f566f74696e672063656e747265206e6f7420726567697374657265640000000081525060200191505060405180910390fd5b6000600960008381526020019081526020016000205490506112433361293a565b8061125457506112533382612b12565b5b6112a9576040517f08c379a000000000000000000000000000000000000000000000000000000000815260040180806020018281038252603e81526020018061311c603e913960400191505060405180910390fd5b6112b38382612bd4565b611308576040517f08c379a000000000000000000000000000000000000000000000000000000000815260040180806020018281038252603d8152602001806131bb603d913960400191505060405180910390fd5b600a60008381526020019081526020016000208390806001815401808255809150509060018203906000526020600020016000909192909190916101000a81548173ffffffffffffffffffffffffffffffffffffffff021916908373ffffffffffffffffffffffffffffffffffffffff16021790555050505050565b61138d836129d9565b6113ff576040517f08c379a000000000000000000000000000000000000000000000000000000000815260040180806020018281038252601c8152602001807f436f6e7374697475656e6379206e6f742072656769737465726564210000000081525060200191505060405180910390fd5b6114083361293a565b8061141957506114183384612b12565b5b61146e576040517f08c379a0000000000000000000000000000000000000000000000000000000008152600401808060200182810382526042815260200180612ffe6042913960600191505060405180910390fd5b600c6000848152602001908152602001600020829080600181540180825580915050906001820390600052602060002001600090919290919091505550600c6000848152602001908152602001600020819080600181540180825580915050906001820390600052602060002001600090919290919091505550505050565b60006114f882612c9a565b61156a576040517f08c379a000000000000000000000000000000000000000000000000000000000815260040180806020018281038252601c8152602001807f566f74696e672063656e747265206e6f7420726567697374657265640000000081525060200191505060405180910390fd5b60006009600084815260200190815260200160002054905061158b81612a2c565b6115e0576040517f08c379a00000000000000000000000000000000000000000000000000000000081526004018080602001828103825260338152602001806130e96033913960400191505060405180910390fd5b6115e93361293a565b806115fa57506115f93382612b12565b5b61164f576040517f08c379a00000000000000000000000000000000000000000000000000000000081526004018080602001828103825260398152602001806133086039913960400191505060405180910390fd5b600080905060008090505b600a60008681526020019081526020016000208054905081101561172457600f6000600a6000888152602001908152602001600020838154811061169a57fe5b9060005260206000200160009054906101000a900473ffffffffffffffffffffffffffffffffffffffff1673ffffffffffffffffffffffffffffffffffffffff1673ffffffffffffffffffffffffffffffffffffffff16815260200190815260200160002060009054906101000a900460ff1615611719576001820191505b60018101905061165a565b508092505050919050565b606061173a3361293a565b61178f576040517f08c379a00000000000000000000000000000000000000000000000000000000081526004018080602001828103825260358152602001806130b46035913960400191505060405180910390fd5b611798826129d9565b61180a576040517f08c379a000000000000000000000000000000000000000000000000000000000815260040180806020018281038252601c8152602001807f436f6e7374697475656e6379206e6f742072656769737465726564210000000081525060200191505060405180910390fd5b6001600083815260200190815260200160002080548060200260200160405190810160405280929190818152602001828054801561189d57602002820191906000526020600020905b8160009054906101000a900473ffffffffffffffffffffffffffffffffffffffff1673ffffffffffffffffffffffffffffffffffffffff1681526020019060010190808311611853575b50505050509050919050565b6118b2836129d9565b611924576040517f08c379a000000000000000000000000000000000000000000000000000000000815260040180806020018281038252601c8152602001807f436f6e7374697475656e6379206e6f742072656769737465726564210000000081525060200191505060405180910390fd5b61192d3361293a565b8061193e575061193d3384612b12565b5b611993576040517f08c379a0000000000000000000000000000000000000000000000000000000008152600401808060200182810382526042815260200180612ffe6042913960600191505060405180910390fd5b600e6000848152602001908152602001600020829080600181540180825580915050906001820390600052602060002001600090919290919091505550600e6000848152602001908152602001600020819080600181540180825580915050906001820390600052602060002001600090919290919091505550505050565b611a1b816129d9565b611a8d576040517f08c379a000000000000000000000000000000000000000000000000000000000815260040180806020018281038252601c8152602001807f436f6e7374697475656e6379206e6f742072656769737465726564210000000081525060200191505060405180910390fd5b611a963361293a565b611aeb576040517f08c379a000000000000000000000000000000000000000000000000000000000815260040180806020018281038252602e815260200180613224602e913960400191505060405180910390fd5b600160008281526020019081526020016000208290806001815401808255809150509060018203906000526020600020016000909192909190916101000a81548173ffffffffffffffffffffffffffffffffffffffff021916908373ffffffffffffffffffffffffffffffffffffffff160217905550505050565b611b6e612e99565b15611be1576040517f08c379a000000000000000000000000000000000000000000000000000000000815260040180806020018281038252601d8152602001807f416c6c20636f6e7374697475656e63696573207265676973746572656400000081525060200191505060405180910390fd5b611bea3361293a565b611c3f576040517f08c379a000000000000000000000000000000000000000000000000000000000815260040180806020018281038252602c815260200180613088602c913960400191505060405180910390fd5b6000816040516020018082805190602001908083835b60208310611c785780518252602082019150602081019050602083039250611c55565b6001836020036101000a03801982511681845116808217855250505050505090500191505060405160208183030381529060405280519060200120905060068190806001815401808255809150509060018203906000526020600020016000909192909190915055505050565b611cee816129d9565b611d60576040517f08c379a000000000000000000000000000000000000000000000000000000000815260040180806020018281038252601c8152602001807f436f6e7374697475656e6379206e6f742072656769737465726564210000000081525060200191505060405180910390fd5b611d693361293a565b80611d7a5750611d793382612b12565b5b611dcf576040517f08c379a00000000000000000000000000000000000000000000000000000000081526004018080602001828103825260448152602001806133416044913960600191505060405180910390fd5b6000826040516020018082805190602001908083835b60208310611e085780518252602082019150602081019050602083039250611de5565b6001836020036101000a0380198251168184511680821785525050505050509050019150506040516020818303038152906040528051906020012090506007819080600181540180825580915050906001820390600052602060002001600090919290919091505550816009600083815260200190815260200160002081905550505050565b6000611e9a8383612ced565b611eef576040517f08c379a000000000000000000000000000000000000000000000000000000000815260040180806020018281038252603481526020018061315a6034913960400191505060405180910390fd5b611ef882612a2c565b611f4d576040517f08c379a00000000000000000000000000000000000000000000000000000000081526004018080602001828103825260338152602001806130e96033913960400191505060405180910390fd5b611f563361293a565b80611f675750611f663383612b12565b5b611fbc576040517f08c379a00000000000000000000000000000000000000000000000000000000081526004018080602001828103825260398152602001806133086039913960400191505060405180910390fd5b600260008473ffffffffffffffffffffffffffffffffffffffff1673ffffffffffffffffffffffffffffffffffffffff16815260200190815260200160002054905092915050565b61200d816129d9565b61207f576040517f08c379a000000000000000000000000000000000000000000000000000000000815260040180806020018281038252601c8152602001807f436f6e7374697475656e6379206e6f742072656769737465726564210000000081525060200191505060405180910390fd5b6120883361293a565b8061209957506120983382612b12565b5b6120ee576040517f08c379a000000000000000000000000000000000000000000000000000000000815260040180806020018281038252603e81526020018061311c603e913960400191505060405180910390fd5b600860008281526020019081526020016000208290806001815401808255809150509060018203906000526020600020016000909192909190916101000a81548173ffffffffffffffffffffffffffffffffffffffff021916908373ffffffffffffffffffffffffffffffffffffffff160217905550506000600f60008473ffffffffffffffffffffffffffffffffffffffff1673ffffffffffffffffffffffffffffffffffffffff16815260200190815260200160002060006101000a81548160ff0219169083151502179055505050565b6121ca3361293a565b61221f576040517f08c379a000000000000000000000000000000000000000000000000000000000815260040180806020018281038252602d815260200180613252602d913960400191505060405180910390fd5b60008190806001815401808255809150509060018203906000526020600020016000909192909190916101000a81548173ffffffffffffffffffffffffffffffffffffffff021916908373ffffffffffffffffffffffffffffffffffffffff1602179055505050565b6060612293826129d9565b612305576040517f08c379a000000000000000000000000000000000000000000000000000000000815260040180806020018281038252601c8152602001807f436f6e7374697475656e6379206e6f742072656769737465726564210000000081525060200191505060405180910390fd5b61230e3361293a565b8061231f575061231e3383612b12565b5b612374576040517f08c379a0000000000000000000000000000000000000000000000000000000008152600401808060200182810382526042815260200180612ffe6042913960600191505060405180910390fd5b600b600083815260200190815260200160002080548060200260200160405190810160405280929190818152602001828054801561240757602002820191906000526020600020905b8160009054906101000a900473ffffffffffffffffffffffffffffffffffffffff1673ffffffffffffffffffffffffffffffffffffffff16815260200190600101908083116123bd575b50505050509050919050565b606061241e826129d9565b612490576040517f08c379a000000000000000000000000000000000000000000000000000000000815260040180806020018281038252601c8152602001807f436f6e7374697475656e6379206e6f742072656769737465726564210000000081525060200191505060405180910390fd5b61249982612eaa565b6124ee576040517f08c379a00000000000000000000000000000000000000000000000000000000081526004018080602001828103825260358152602001806132d36035913960400191505060405180910390fd5b6124f73361293a565b8061250857506125073383612b12565b5b61255d576040517f08c379a00000000000000000000000000000000000000000000000000000000081526004018080602001828103825260398152602001806133086039913960400191505060405180910390fd5b600080905060008090505b600b6000858152602001908152602001600020805490508110156128aa578160026000600b600088815260200190815260200160002084815481106125a957fe5b9060005260206000200160009054906101000a900473ffffffffffffffffffffffffffffffffffffffff1673ffffffffffffffffffffffffffffffffffffffff1673ffffffffffffffffffffffffffffffffffffffff16815260200190815260200160002054111561276057601060006126239190612f90565b6010600b6000868152602001908152602001600020828154811061264357fe5b9060005260206000200160009054906101000a900473ffffffffffffffffffffffffffffffffffffffff1690806001815401808255809150509060018203906000526020600020016000909192909190916101000a81548173ffffffffffffffffffffffffffffffffffffffff021916908373ffffffffffffffffffffffffffffffffffffffff1602179055505060026000600b600087815260200190815260200160002083815481106126f357fe5b9060005260206000200160009054906101000a900473ffffffffffffffffffffffffffffffffffffffff1673ffffffffffffffffffffffffffffffffffffffff1673ffffffffffffffffffffffffffffffffffffffff16815260200190815260200160002054915061289f565b8160026000600b6000888152602001908152602001600020848154811061278357fe5b9060005260206000200160009054906101000a900473ffffffffffffffffffffffffffffffffffffffff1673ffffffffffffffffffffffffffffffffffffffff1673ffffffffffffffffffffffffffffffffffffffff16815260200190815260200160002054141561289e576010600b6000868152602001908152602001600020828154811061280f57fe5b9060005260206000200160009054906101000a900473ffffffffffffffffffffffffffffffffffffffff1690806001815401808255809150509060018203906000526020600020016000909192909190916101000a81548173ffffffffffffffffffffffffffffffffffffffff021916908373ffffffffffffffffffffffffffffffffffffffff160217905550505b5b600181019050612568565b50601080548060200260200160405190810160405280929190818152602001828054801561292d57602002820191906000526020600020905b8160009054906101000a900473ffffffffffffffffffffffffffffffffffffffff1673ffffffffffffffffffffffffffffffffffffffff16815260200190600101908083116128e3575b5050505050915050919050565b6000806000905060008090505b6000805490508110156129cf578373ffffffffffffffffffffffffffffffffffffffff166000828154811061297857fe5b9060005260206000200160009054906101000a900473ffffffffffffffffffffffffffffffffffffffff1673ffffffffffffffffffffffffffffffffffffffff1614156129c457600191505b600181019050612947565b5080915050919050565b6000806000905060008090505b600680549050811015612a22578360068281548110612a0157fe5b90600052602060002001541415612a1757600191505b6001810190506129e6565b5080915050919050565b60006002600d60008481526020019081526020016000208054905014612a9d576040517f08c379a000000000000000000000000000000000000000000000000000000000815260040180806020018281038252602c8152602001806131f8602c913960400191505060405180910390fd5b60004290506000600d6000858152602001908152602001600020600081548110612ac357fe5b90600052602060002001548210158015612b065750600d6000858152602001908152602001600020600181548110612af757fe5b90600052602060002001548211155b90508092505050919050565b6000806000905060008090505b6001600085815260200190815260200160002080549050811015612bc9578473ffffffffffffffffffffffffffffffffffffffff16600160008681526020019081526020016000208281548110612b7257fe5b9060005260206000200160009054906101000a900473ffffffffffffffffffffffffffffffffffffffff1673ffffffffffffffffffffffffffffffffffffffff161415612bbe57600191505b600181019050612b1f565b508091505092915050565b6000806000905060008090505b6008600085815260200190815260200160002080549050811015612c8f578473ffffffffffffffffffffffffffffffffffffffff16600860008681526020019081526020016000208281548110612c3457fe5b9060005260206000200160009054906101000a900473ffffffffffffffffffffffffffffffffffffffff1673ffffffffffffffffffffffffffffffffffffffff161415612c845760019150612c8f565b600181019050612be1565b508091505092915050565b6000806000905060008090505b600780549050811015612ce3578360078281548110612cc257fe5b90600052602060002001541415612cd857600191505b600181019050612ca7565b5080915050919050565b6000806000905060008090505b600b600085815260200190815260200160002080549050811015612da8578473ffffffffffffffffffffffffffffffffffffffff16600b60008681526020019081526020016000208281548110612d4d57fe5b9060005260206000200160009054906101000a900473ffffffffffffffffffffffffffffffffffffffff1673ffffffffffffffffffffffffffffffffffffffff161415612d9d5760019150612da8565b600181019050612cfa565b508091505092915050565b60006002600c60008481526020019081526020016000208054905014612e24576040517f08c379a0000000000000000000000000000000000000000000000000000000008152600401808060200182810382526027815260200180612fd76027913960400191505060405180910390fd5b60004290506000600c6000858152602001908152602001600020600081548110612e4a57fe5b90600052602060002001548210158015612e8d5750600c6000858152602001908152602001600020600181548110612e7e57fe5b90600052602060002001548211155b90508092505050919050565b600060055460068054905014905090565b60006002600e60008481526020019081526020016000208054905014612f1b576040517f08c379a00000000000000000000000000000000000000000000000000000000081526004018080602001828103825260318152602001806132a26031913960400191505060405180910390fd5b60004290506000600e6000858152602001908152602001600020600081548110612f4157fe5b90600052602060002001548210158015612f845750600e6000858152602001908152602001600020600181548110612f7557fe5b90600052602060002001548211155b90508092505050919050565b5080546000825590600052602060002090810190612fae9190612fb1565b50565b612fd391905b80821115612fcf576000816000905550600101612fb7565b5090565b9056fe456c656374696f6e2064617465206e6f742073657420666f7220636f6e7374697475656e63792e4f6e6c792073757065722061646d696e73206f7220636f6e7374697475656e63792061646d696e732063616e20726567697374657220612063616e6469646174652143616e6469646174652073686f756c642062652072656769737465726564206173206120766f74657220746f20626520726567697374657265642061732063616e646964617465214f6e6c792073757065722061646d696e732063616e20726567697374657220636f6e7374697475656e6379214f6e6c792073757065722061646d696e732063616e20676574206c697374206f66206f746865722073757065722061646d696e732e566f7465732063616e20626520636f756e746564206f6e6c79206f6e2073657420766f746520636f756e74696e67206461792e4f6e6c792073757065722061646d696e73206f7220636f6e7374697475656e63792061646d696e732063616e207265676973746572206120766f7465722143616e6469646174652073686f756c64206265207265676973746572656420696e207468617420636f6e7374697475656e637921566f74696e672063616e20626520646f6e65206f6e6c79206f6e2073657420656c656374696f6e20646174652e566f7465722073686f756c64206265207265676973746572656420746f20616c6c6f6361746520766f74657220746f20766f74696e672063656e747265566f746520636f756e74696e672064617465206e6f742073657420666f7220636f6e7374697475656e63792e4f6e6c792073757065722061646d696e732063616e2061646420636f6e7374697475656e63792061646d696e73214f6e6c792073757065722061646d696e732063616e20616464206f746865722073757065722061646d696e7321566f7465722073686f756c64206265207265676973746572656420746f20766f746521526573756c74206465636c61726174696f6e2064617465206e6f742073657420666f7220636f6e7374697475656e63792e526573756c74732063616e20626520766965776564206f6e6c79206f6e20726573756c74206465636c61726174696f6e206461792e4f6e6c792073757065722061646d696e73206f7220636f6e7374697475656e63792061646d696e732063616e20636f756e7420766f746573214f6e6c792073757065722061646d696e73206f7220636f6e7374697475656e63792061646d696e732063616e20726567697374657220766f74696e672063656e74726521566f74657220686173206f6e6c79206f6e6520766f746520616e6420697420686173206265656e20636173742e456c656374696f6e20646179206e6f742073657420666f7220636f6e7374697475656e637921a165627a7a7230582094ce52c666ad8835cc5130bbe0b01c585dfff770a0aaa4beda529890376a9c850029",
  "source": "pragma solidity >=0.4.22 <0.6.0;\n\ncontract Voting_System\n{\n    address[] private super_admins;\n    mapping (bytes32 => address[]) private constituencies_to_admins;\n    mapping (address => uint) private vote_count;\n    uint private total_admissible_voters;\n    uint private total_votes_cast;\n    uint private total_constituencies;\n    bytes32[] private registered_constituencies;\n    bytes32[] private registered_voting_centres;\n    mapping (bytes32 => address[]) private constituency_to_voters;\n    mapping (bytes32 => bytes32) private votingCentre_to_constituency;\n    mapping (bytes32 => address[]) private votingCentre_to_voters;\n    mapping (bytes32 => address[]) private constituency_to_candidates;\n    mapping (bytes32 => uint256[]) private constituency_to_electionDateTime;\n    mapping (bytes32 => uint256[]) private constituency_to_voteCountDateTime;\n    mapping (bytes32 => uint256[]) private constituency_to_resultDeclareCountDateTime;\n    mapping (address => bool) private voter_to_votingStatus;\n    address[] private winning_candidates;\n\n    constructor (uint total_consts) public {\n        total_constituencies = total_consts;\n        total_admissible_voters = 0;\n        total_votes_cast = 0;\n        // registered_voting_centres = 0;\n        // registered_constituencies = 0;\n        super_admins.push(msg.sender);\n        // return_uint = 0;\n    }\n\n    function caller_is_superAdmin(address caller) private view returns(bool) {\n        bool caller_is_super_admin = false;\n        for(uint i = 0; i<super_admins.length; i += 1)\n        {\n            if(super_admins[i]==caller)\n            {\n                caller_is_super_admin = true;\n            }\n        }\n        return caller_is_super_admin;\n    }\n\n    function constituency_is_registered(bytes32 constituency) private view returns(bool) {\n        bool cir = false;\n        for(uint i = 0; i<registered_constituencies.length; i += 1)\n        {\n            if(registered_constituencies[i] == constituency)\n            {\n                cir = true;\n            }\n        }\n        return cir;\n    }\n\n    function votingCentre_is_registered(bytes32 voting_centre) private view returns(bool) {\n        bool vir = false;\n        for(uint i = 0; i<registered_voting_centres.length; i += 1)\n        {\n            if(registered_voting_centres[i] == voting_centre)\n            {\n                vir = true;\n            }\n        }\n        return vir;\n    }\n\n    function all_constituencies_registered() private view returns (bool) {\n        return (registered_constituencies.length == total_constituencies);\n    }\n\n    function caller_is_constituencyAdmin(address caller, bytes32 constituency) private view returns (bool) {\n        bool caller_is_cAdmin = false;\n        for(uint i = 0; i<constituencies_to_admins[constituency].length; i += 1)\n        {\n            if(constituencies_to_admins[constituency][i]==caller)\n            {\n                caller_is_cAdmin = true;\n            }\n        }\n        return caller_is_cAdmin;\n    }\n\n    function voter_is_registered(address voter, bytes32 constituency) private view returns (bool) {\n        bool voter_registered = false;\n        for(uint i = 0; i<constituency_to_voters[constituency].length; i += 1)\n        {\n            if(constituency_to_voters[constituency][i] == voter)\n            {\n                voter_registered = true;\n                break;\n            }\n        }\n        return voter_registered;\n    }\n\n    function candidate_is_registered(address candidate, bytes32 constituency) private view returns (bool) {\n        bool candidate_registered = false;\n        for(uint i = 0; i<constituency_to_candidates[constituency].length; i += 1)\n        {\n            if(constituency_to_candidates[constituency][i] == candidate)\n            {\n                candidate_registered = true;\n                break;\n            }\n        }\n        return candidate_registered;\n    }\n\n    function is_election_day(bytes32 constituency) private view returns (bool) {\n        require(constituency_to_electionDateTime[constituency].length == 2, 'Election date not set for constituency.');\n        uint256 current_time = now;\n        bool is_electionDay = (current_time >= constituency_to_electionDateTime[constituency][0] && current_time <= constituency_to_electionDateTime[constituency][1]);\n        return is_electionDay;\n    }\n\n    function is_voteCount_day(bytes32 constituency) private view returns (bool) {\n        require(constituency_to_voteCountDateTime[constituency].length == 2, 'Vote counting date not set for constituency.');\n        uint256 current_time = now;\n        bool is_voteCountDay = (current_time >= constituency_to_voteCountDateTime[constituency][0] && current_time <= constituency_to_voteCountDateTime[constituency][1]);\n        return is_voteCountDay;\n    }\n\n    function is_resultDeclaration_day(bytes32 constituency) private view returns (bool) {\n        require(constituency_to_resultDeclareCountDateTime[constituency].length == 2, 'Result declaration date not set for constituency.');\n        uint256 current_time = now;\n        bool is_resultDeclarationDay = (current_time >= constituency_to_resultDeclareCountDateTime[constituency][0] && current_time <= constituency_to_resultDeclareCountDateTime[constituency][1]);\n        return is_resultDeclarationDay;\n    }\n\n    function get_superAdmins() public view returns (address[] memory){\n        require(caller_is_superAdmin(msg.sender),'Only super admins can get list of other super admins.');\n        return super_admins;\n    }\n\n    function add_superAdmin(address admin) public {\n        require(caller_is_superAdmin(msg.sender), 'Only super admins can add other super admins!');\n        super_admins.push(admin);\n    }\n\n    function register_constituency(string memory const_name) public {\n        require(!all_constituencies_registered(),'All constituencies registered');\n        require(caller_is_superAdmin(msg.sender),'Only super admins can register constituency!');\n        bytes32 const_hash = keccak256(abi.encodePacked(const_name));\n        registered_constituencies.push(const_hash);\n    }\n\n    function add_constituencyAdmin(address cAdmin, bytes32 constituency) public {\n        require(constituency_is_registered(constituency),'Constituency not registered!');\n        require(caller_is_superAdmin(msg.sender),'Only super admins can add constituency admins!');\n        constituencies_to_admins[constituency].push(cAdmin);\n    }\n\n    function get_constituency_admins(bytes32 constituency) public view returns (address[] memory) {\n        require(caller_is_superAdmin(msg.sender),'Only super admins can get list of other super admins.');\n        require(constituency_is_registered(constituency),'Constituency not registered!');\n        return constituencies_to_admins[constituency];\n    }\n\n    function register_votingCentre(string memory vc_name, bytes32 constituency) public {\n        require(constituency_is_registered(constituency),'Constituency not registered!');\n        require((caller_is_superAdmin(msg.sender) || caller_is_constituencyAdmin(msg.sender,constituency)),'Only super admins or constituency admins can register voting centre!');\n        bytes32 vc_hash = keccak256(abi.encodePacked(vc_name));\n        registered_voting_centres.push(vc_hash);\n        votingCentre_to_constituency[vc_hash] = constituency;\n    }\n\n    function register_voter(address voter, bytes32 constituency) public {\n        require(constituency_is_registered(constituency),'Constituency not registered!');\n        require((caller_is_superAdmin(msg.sender) || caller_is_constituencyAdmin(msg.sender,constituency)),'Only super admins or constituency admins can register a voter!');\n        constituency_to_voters[constituency].push(voter);\n        voter_to_votingStatus[voter] = false;\n    }\n\n    function allocate_voter(address voter, bytes32 voting_centre) public {\n        // require(voting_centre < registered_voting_centres, 'Voting centre not registered');\n        require(votingCentre_is_registered(voting_centre),'Voting centre not registered');\n        bytes32 constituency = votingCentre_to_constituency[voting_centre];\n        require((caller_is_superAdmin(msg.sender) || caller_is_constituencyAdmin(msg.sender,constituency)),'Only super admins or constituency admins can register a voter!');\n        require(voter_is_registered(voter,constituency),'Voter should be registered to allocate voter to voting centre');\n        votingCentre_to_voters[voting_centre].push(voter);\n    }\n\n    function register_candidate(address candidate, bytes32 constituency) public {\n        require(constituency_is_registered(constituency),'Constituency not registered!');\n        require((caller_is_superAdmin(msg.sender) || caller_is_constituencyAdmin(msg.sender,constituency)),'Only super admins or constituency admins can register a candidate!');\n        require(voter_is_registered(candidate,constituency),'Candidate should be registered as a voter to be registered as candidate!');\n        constituency_to_candidates[constituency].push(candidate);\n    }\n\n    function set_electionDate(bytes32 constituency, uint256 start_dateTime, uint256 end_dateTime) public {\n        require(constituency_is_registered(constituency),'Constituency not registered!');\n        require((caller_is_superAdmin(msg.sender) || caller_is_constituencyAdmin(msg.sender,constituency)),'Only super admins or constituency admins can register a candidate!');\n        constituency_to_electionDateTime[constituency].push(start_dateTime);\n        constituency_to_electionDateTime[constituency].push(end_dateTime);\n    }\n\n    function set_voteCountDate(bytes32 constituency, uint256 start_dateTime, uint256 end_dateTime) public {\n        require(constituency_is_registered(constituency),'Constituency not registered!');\n        require((caller_is_superAdmin(msg.sender) || caller_is_constituencyAdmin(msg.sender,constituency)),'Only super admins or constituency admins can register a candidate!');\n        constituency_to_voteCountDateTime[constituency].push(start_dateTime);\n        constituency_to_voteCountDateTime[constituency].push(end_dateTime);\n    }\n\n    function set_resultDeclareDate(bytes32 constituency, uint256 start_dateTime, uint256 end_dateTime) public {\n        require(constituency_is_registered(constituency),'Constituency not registered!');\n        require((caller_is_superAdmin(msg.sender) || caller_is_constituencyAdmin(msg.sender,constituency)),'Only super admins or constituency admins can register a candidate!');\n        constituency_to_resultDeclareCountDateTime[constituency].push(start_dateTime);\n        constituency_to_resultDeclareCountDateTime[constituency].push(end_dateTime);\n    }\n\n    function get_allCandidates_constituency(bytes32 constituency) public view returns (address[] memory) {\n        require(constituency_is_registered(constituency),'Constituency not registered!');\n        require((caller_is_superAdmin(msg.sender) || caller_is_constituencyAdmin(msg.sender,constituency)),'Only super admins or constituency admins can register a candidate!');\n        return constituency_to_candidates[constituency];\n    }\n\n    function vote(bytes32 constituency, bytes32 voting_centre, address candidate) public {\n        require(constituency_is_registered(constituency),'Constituency not registered!');\n        require(votingCentre_is_registered(voting_centre),'Voting centre not registered');\n        require(voter_is_registered(msg.sender,constituency),'Voter should be registered to vote!');\n        require(candidate_is_registered(candidate,constituency),'Candidate should be registered in that constituency!');\n        require(constituency_to_electionDateTime[constituency].length == 2,'Election day not set for constituency!');\n        require(is_election_day(constituency),'Voting can be done only on set election date.');\n        require(!voter_to_votingStatus[msg.sender],'Voter has only one vote and it has been cast.');\n        vote_count[candidate] += 1;\n    }\n\n    function get_totalVotes_votingCentre(bytes32 voting_centre) public view returns (uint) {\n        require(votingCentre_is_registered(voting_centre),'Voting centre not registered');\n        bytes32 constituency = votingCentre_to_constituency[voting_centre];\n        require(is_voteCount_day(constituency),'Votes can be counted only on set vote counting day.');\n        require((caller_is_superAdmin(msg.sender) || caller_is_constituencyAdmin(msg.sender,constituency)),'Only super admins or constituency admins can count votes!');\n        uint count = 0;\n        for(uint i = 0; i < votingCentre_to_voters[voting_centre].length; i += 1)\n        {\n            if(voter_to_votingStatus[votingCentre_to_voters[voting_centre][i]])\n            {\n                count += 1;\n            }\n        }\n        return count;\n    }\n\n    function get_totalVotes_constituency(bytes32 constituency) public view returns (uint) {\n        require(constituency_is_registered(constituency),'Constituency not registered!');\n        require(is_voteCount_day(constituency),'Votes can be counted only on set vote counting day.');\n        require((caller_is_superAdmin(msg.sender) || caller_is_constituencyAdmin(msg.sender,constituency)),'Only super admins or constituency admins can count votes!');\n        uint count = 0;\n        for(uint i = 0; i < constituency_to_candidates[constituency].length; i += 1)\n        {\n            count += vote_count[constituency_to_candidates[constituency][i]];\n        }\n        return count;\n    }\n\n    function get_totalVotes_candidate(address candidate, bytes32 constituency) public view returns (uint) {\n        require(candidate_is_registered(candidate,constituency),'Candidate should be registered in that constituency!');\n        require(is_voteCount_day(constituency),'Votes can be counted only on set vote counting day.');\n        require((caller_is_superAdmin(msg.sender) || caller_is_constituencyAdmin(msg.sender,constituency)),'Only super admins or constituency admins can count votes!');\n        return vote_count[candidate];\n    }\n\n    function get_constituency_winner(bytes32 constituency) public returns (address[] memory) {\n        require(constituency_is_registered(constituency),'Constituency not registered!');\n        require(is_resultDeclaration_day(constituency),'Results can be viewed only on result declaration day.');\n        require((caller_is_superAdmin(msg.sender) || caller_is_constituencyAdmin(msg.sender,constituency)),'Only super admins or constituency admins can count votes!');\n        uint current_winner_count = 0;\n        for(uint i = 0; i < constituency_to_candidates[constituency].length; i += 1)\n        {\n            if(vote_count[constituency_to_candidates[constituency][i]] > current_winner_count)\n            {\n                delete winning_candidates;\n                winning_candidates.push(constituency_to_candidates[constituency][i]);\n                current_winner_count = vote_count[constituency_to_candidates[constituency][i]];\n            }\n            else if(vote_count[constituency_to_candidates[constituency][i]] == current_winner_count)\n            {\n                winning_candidates.push(constituency_to_candidates[constituency][i]);\n            }\n        }\n        return winning_candidates;\n    }\n}",
  "sourcePath": "/home/tarun/Documents/personal_projects/Indian-voting-system/contracts/voting_system.sol",
  "compiler": {
    "name": "solc",
    "version": "0.5.8+commit.23d335f2.Emscripten.clang"
  },
  "schemaVersion": "3.0.16",
  "updatedAt": "2019-10-07T13:21:45.391Z",
  "devdoc": {
    "methods": {}
  },
  "userdoc": {
    "methods": {}
  }
}