{
  "contractName": "Voting_System",
  "abi": [
    {
      "inputs": [
        {
          "name": "total_consts",
          "type": "uint256"
        }
      ],
      "payable": false,
      "stateMutability": "nonpayable",
      "type": "constructor"
    },
    {
      "constant": false,
      "inputs": [
        {
          "name": "admin",
          "type": "address"
        }
      ],
      "name": "add_superAdmin",
      "outputs": [],
      "payable": false,
      "stateMutability": "nonpayable",
      "type": "function"
    },
    {
      "constant": false,
      "inputs": [
        {
          "name": "cAdmin",
          "type": "address"
        },
        {
          "name": "constituency",
          "type": "uint256"
        }
      ],
      "name": "add_constituencyAdmin",
      "outputs": [],
      "payable": false,
      "stateMutability": "nonpayable",
      "type": "function"
    },
    {
      "constant": false,
      "inputs": [],
      "name": "register_constituency",
      "outputs": [
        {
          "name": "",
          "type": "uint256"
        }
      ],
      "payable": false,
      "stateMutability": "nonpayable",
      "type": "function"
    },
    {
      "constant": false,
      "inputs": [
        {
          "name": "constituency",
          "type": "uint256"
        }
      ],
      "name": "register_votingCentre",
      "outputs": [
        {
          "name": "",
          "type": "uint256"
        }
      ],
      "payable": false,
      "stateMutability": "nonpayable",
      "type": "function"
    },
    {
      "constant": false,
      "inputs": [
        {
          "name": "voter",
          "type": "address"
        },
        {
          "name": "constituency",
          "type": "uint256"
        }
      ],
      "name": "register_voter",
      "outputs": [],
      "payable": false,
      "stateMutability": "nonpayable",
      "type": "function"
    },
    {
      "constant": false,
      "inputs": [
        {
          "name": "voter",
          "type": "address"
        },
        {
          "name": "voting_centre",
          "type": "uint256"
        }
      ],
      "name": "allocate_voter",
      "outputs": [],
      "payable": false,
      "stateMutability": "nonpayable",
      "type": "function"
    },
    {
      "constant": false,
      "inputs": [
        {
          "name": "candidate",
          "type": "address"
        },
        {
          "name": "constituency",
          "type": "uint256"
        }
      ],
      "name": "register_candidate",
      "outputs": [],
      "payable": false,
      "stateMutability": "nonpayable",
      "type": "function"
    },
    {
      "constant": false,
      "inputs": [
        {
          "name": "constituency",
          "type": "uint256"
        },
        {
          "name": "start_dateTime",
          "type": "uint256"
        },
        {
          "name": "end_dateTime",
          "type": "uint256"
        }
      ],
      "name": "set_electionDate",
      "outputs": [],
      "payable": false,
      "stateMutability": "nonpayable",
      "type": "function"
    },
    {
      "constant": false,
      "inputs": [
        {
          "name": "constituency",
          "type": "uint256"
        },
        {
          "name": "voting_centre",
          "type": "uint256"
        },
        {
          "name": "candidate",
          "type": "address"
        }
      ],
      "name": "vote",
      "outputs": [],
      "payable": false,
      "stateMutability": "nonpayable",
      "type": "function"
    },
    {
      "constant": true,
      "inputs": [
        {
          "name": "voting_centre",
          "type": "uint256"
        }
      ],
      "name": "get_totalVotes_votingCentre",
      "outputs": [
        {
          "name": "",
          "type": "uint256"
        }
      ],
      "payable": false,
      "stateMutability": "view",
      "type": "function"
    },
    {
      "constant": true,
      "inputs": [
        {
          "name": "constituency",
          "type": "uint256"
        }
      ],
      "name": "get_totalVotes_constituency",
      "outputs": [
        {
          "name": "",
          "type": "uint256"
        }
      ],
      "payable": false,
      "stateMutability": "view",
      "type": "function"
    },
    {
      "constant": true,
      "inputs": [
        {
          "name": "candidate",
          "type": "address"
        },
        {
          "name": "constituency",
          "type": "uint256"
        }
      ],
      "name": "get_totalVotes_candidate",
      "outputs": [
        {
          "name": "",
          "type": "uint256"
        }
      ],
      "payable": false,
      "stateMutability": "view",
      "type": "function"
    },
    {
      "constant": false,
      "inputs": [
        {
          "name": "constituency",
          "type": "uint256"
        }
      ],
      "name": "get_constituency_winner",
      "outputs": [
        {
          "name": "",
          "type": "address[]"
        }
      ],
      "payable": false,
      "stateMutability": "nonpayable",
      "type": "function"
    }
  ],
  "bytecode": "0x608060405234801561001057600080fd5b506040516020806125258339810180604052602081101561003057600080fd5b810190808051906020019092919050505080600581905550600060038190555060006004819055506000600781905550600060068190555060003390806001815401808255809150509060018203906000526020600020016000909192909190916101000a81548173ffffffffffffffffffffffffffffffffffffffff021916908373ffffffffffffffffffffffffffffffffffffffff1602179055505050612447806100de6000396000f3fe608060405234801561001057600080fd5b50600436106100cf5760003560e01c80635e0a75ad1161008c578063c813f23611610066578063c813f2361461037d578063ce64599e146103cb578063d1d744cf1461042d578063d87bcde614610471576100cf565b80635e0a75ad146102935780636e5d07e1146102e1578063c61f66881461032f576100cf565b806310a0e105146100d45780631306f66d1461011657806327fa43b814610158578063336e0d81146101db5780633fb7292c146101f957806350d915831461023b575b600080fd5b610114600480360360608110156100ea57600080fd5b810190808035906020019092919080359060200190929190803590602001909291905050506104b3565b005b6101426004803603602081101561012c57600080fd5b8101908080359060200190929190505050610618565b6040518082815260200191505060405180910390f35b6101846004803603602081101561016e57600080fd5b81019080803590602001909291905050506107ca565b6040518080602001828103825283818151815260200191508051906020019060200280838360005b838110156101c75780820151818401526020810190506101ac565b505050509050019250505060405180910390f35b6101e3610c8f565b6040518082815260200191505060405180910390f35b6102256004803603602081101561020f57600080fd5b8101908080359060200190929190505050610d87565b6040518082815260200191505060405180910390f35b6102916004803603606081101561025157600080fd5b810190808035906020019092919080359060200190929190803573ffffffffffffffffffffffffffffffffffffffff169060200190929190505050610ea8565b005b6102df600480360360408110156102a957600080fd5b81019080803573ffffffffffffffffffffffffffffffffffffffff16906020019092919080359060200190929190505050611274565b005b61032d600480360360408110156102f757600080fd5b81019080803573ffffffffffffffffffffffffffffffffffffffff16906020019092919080359060200190929190505050611434565b005b61037b6004803603604081101561034557600080fd5b81019080803573ffffffffffffffffffffffffffffffffffffffff1690602001909291908035906020019092919050505061166f565b005b6103c96004803603604081101561039357600080fd5b81019080803573ffffffffffffffffffffffffffffffffffffffff16906020019092919080359060200190929190505050611828565b005b610417600480360360408110156103e157600080fd5b81019080803573ffffffffffffffffffffffffffffffffffffffff16906020019092919080359060200190929190505050611a01565b6040518082815260200191505060405180910390f35b61046f6004803603602081101561044357600080fd5b81019080803573ffffffffffffffffffffffffffffffffffffffff169060200190929190505050611b19565b005b61049d6004803603602081101561048757600080fd5b8101908080359060200190929190505050611be0565b6040518082815260200191505060405180910390f35b600654831061052a576040517f08c379a000000000000000000000000000000000000000000000000000000000815260040180806020018281038252601c8152602001807f436f6e7374697475656e6379206e6f742072656769737465726564210000000081525060200191505060405180910390fd5b61053333611dc0565b8061054457506105433384611e70565b5b610599576040517f08c379a00000000000000000000000000000000000000000000000000000000081526004018080602001828103825260428152602001806121386042913960600191505060405180910390fd5b600c6000848152602001908152602001600020829080600181540180825580915050906001820390600052602060002001600090919290919091505550600c6000848152602001908152602001600020819080600181540180825580915050906001820390600052602060002001600090919290919091505550505050565b60006006548210610691576040517f08c379a000000000000000000000000000000000000000000000000000000000815260040180806020018281038252601c8152602001807f436f6e7374697475656e6379206e6f742072656769737465726564210000000081525060200191505060405180910390fd5b61069a33611dc0565b806106ab57506106aa3383611e70565b5b610700576040517f08c379a000000000000000000000000000000000000000000000000000000000815260040180806020018281038252603981526020018061234c6039913960400191505060405180910390fd5b600080905060008090505b600b6000858152602001908152602001600020805490508110156107c05760026000600b6000878152602001908152602001600020838154811061074b57fe5b9060005260206000200160009054906101000a900473ffffffffffffffffffffffffffffffffffffffff1673ffffffffffffffffffffffffffffffffffffffff1673ffffffffffffffffffffffffffffffffffffffff168152602001908152602001600020548201915060018101905061070b565b5080915050919050565b60606006548210610843576040517f08c379a000000000000000000000000000000000000000000000000000000000815260040180806020018281038252601c8152602001807f436f6e7374697475656e6379206e6f742072656769737465726564210000000081525060200191505060405180910390fd5b61084c33611dc0565b8061085d575061085c3383611e70565b5b6108b2576040517f08c379a000000000000000000000000000000000000000000000000000000000815260040180806020018281038252603981526020018061234c6039913960400191505060405180910390fd5b600080905060008090505b600b600085815260200190815260200160002080549050811015610bff578160026000600b600088815260200190815260200160002084815481106108fe57fe5b9060005260206000200160009054906101000a900473ffffffffffffffffffffffffffffffffffffffff1673ffffffffffffffffffffffffffffffffffffffff1673ffffffffffffffffffffffffffffffffffffffff168152602001908152602001600020541115610ab557600e600061097891906120f1565b600e600b6000868152602001908152602001600020828154811061099857fe5b9060005260206000200160009054906101000a900473ffffffffffffffffffffffffffffffffffffffff1690806001815401808255809150509060018203906000526020600020016000909192909190916101000a81548173ffffffffffffffffffffffffffffffffffffffff021916908373ffffffffffffffffffffffffffffffffffffffff1602179055505060026000600b60008781526020019081526020016000208381548110610a4857fe5b9060005260206000200160009054906101000a900473ffffffffffffffffffffffffffffffffffffffff1673ffffffffffffffffffffffffffffffffffffffff1673ffffffffffffffffffffffffffffffffffffffff168152602001908152602001600020549150610bf4565b8160026000600b60008881526020019081526020016000208481548110610ad857fe5b9060005260206000200160009054906101000a900473ffffffffffffffffffffffffffffffffffffffff1673ffffffffffffffffffffffffffffffffffffffff1673ffffffffffffffffffffffffffffffffffffffff168152602001908152602001600020541415610bf357600e600b60008681526020019081526020016000208281548110610b6457fe5b9060005260206000200160009054906101000a900473ffffffffffffffffffffffffffffffffffffffff1690806001815401808255809150509060018203906000526020600020016000909192909190916101000a81548173ffffffffffffffffffffffffffffffffffffffff021916908373ffffffffffffffffffffffffffffffffffffffff160217905550505b5b6001810190506108bd565b50600e805480602002602001604051908101604052809291908181526020018280548015610c8257602002820191906000526020600020905b8160009054906101000a900473ffffffffffffffffffffffffffffffffffffffff1673ffffffffffffffffffffffffffffffffffffffff1681526020019060010190808311610c38575b5050505050915050919050565b600060055460065410610d0a576040517f08c379a000000000000000000000000000000000000000000000000000000000815260040180806020018281038252601e8152602001807f416c6c20636f6e7374697475656e63696573207265676973746572656421000081525060200191505060405180910390fd5b610d1333611dc0565b610d68576040517f08c379a000000000000000000000000000000000000000000000000000000000815260040180806020018281038252602c8152602001806121c2602c913960400191505060405180910390fd5b6000600654905060016006600082825401925050819055508091505090565b60006006548210610e00576040517f08c379a000000000000000000000000000000000000000000000000000000000815260040180806020018281038252601c8152602001807f436f6e7374697475656e6379206e6f742072656769737465726564210000000081525060200191505060405180910390fd5b610e0933611dc0565b80610e1a5750610e193383611e70565b5b610e6f576040517f08c379a00000000000000000000000000000000000000000000000000000000081526004018080602001828103825260448152602001806123856044913960600191505060405180910390fd5b60006007549050600160076000828254019250508190555082600960008381526020019081526020016000208190555080915050919050565b6006548310610f1f576040517f08c379a000000000000000000000000000000000000000000000000000000000815260040180806020018281038252601c8152602001807f436f6e7374697475656e6379206e6f742072656769737465726564210000000081525060200191505060405180910390fd5b6007548210610f96576040517f08c379a000000000000000000000000000000000000000000000000000000000815260040180806020018281038252601d8152602001807f566f74696e672063656e747265206e6f7420726567697374657265642100000081525060200191505060405180910390fd5b610fa03384611f43565b610ff5576040517f08c379a00000000000000000000000000000000000000000000000000000000081526004018080602001828103825260238152602001806123296023913960400191505060405180910390fd5b610fff818461201a565b611054576040517f08c379a000000000000000000000000000000000000000000000000000000000815260040180806020018281038252603481526020018061225d6034913960400191505060405180910390fd5b6002600c600085815260200190815260200160002080549050146110c3576040517f08c379a00000000000000000000000000000000000000000000000000000000081526004018080602001828103825260268152602001806123f66026913960400191505060405180910390fd5b6000429050600c60008581526020019081526020016000206000815481106110e757fe5b90600052602060002001548110806111275750600c600085815260200190815260200160002060018154811061111957fe5b906000526020600020015481115b1561117d576040517f08c379a00000000000000000000000000000000000000000000000000000000081526004018080602001828103825260318152602001806121ee6031913960400191505060405180910390fd5b600d60003373ffffffffffffffffffffffffffffffffffffffff1673ffffffffffffffffffffffffffffffffffffffff16815260200190815260200160002060009054906101000a900460ff1615611220576040517f08c379a000000000000000000000000000000000000000000000000000000000815260040180806020018281038252602d8152602001806123c9602d913960400191505060405180910390fd5b6001600260008473ffffffffffffffffffffffffffffffffffffffff1673ffffffffffffffffffffffffffffffffffffffff1681526020019081526020016000206000828254019250508190555050505050565b60065481106112eb576040517f08c379a000000000000000000000000000000000000000000000000000000000815260040180806020018281038252601c8152602001807f436f6e7374697475656e6379206e6f742072656769737465726564210000000081525060200191505060405180910390fd5b6112f433611dc0565b8061130557506113043382611e70565b5b61135a576040517f08c379a00000000000000000000000000000000000000000000000000000000081526004018080602001828103825260428152602001806121386042913960600191505060405180910390fd5b6113648282611f43565b6113b9576040517f08c379a000000000000000000000000000000000000000000000000000000000815260040180806020018281038252604881526020018061217a6048913960600191505060405180910390fd5b600b60008281526020019081526020016000208290806001815401808255809150509060018203906000526020600020016000909192909190916101000a81548173ffffffffffffffffffffffffffffffffffffffff021916908373ffffffffffffffffffffffffffffffffffffffff160217905550505050565b60065481106114ab576040517f08c379a000000000000000000000000000000000000000000000000000000000815260040180806020018281038252601c8152602001807f436f6e7374697475656e6379206e6f742072656769737465726564210000000081525060200191505060405180910390fd5b6114b433611dc0565b611509576040517f08c379a000000000000000000000000000000000000000000000000000000000815260040180806020018281038252602e8152602001806122ce602e913960400191505060405180910390fd5b600080905060008090505b60008054905081101561159c573373ffffffffffffffffffffffffffffffffffffffff166000828154811061154557fe5b9060005260206000200160009054906101000a900473ffffffffffffffffffffffffffffffffffffffff1673ffffffffffffffffffffffffffffffffffffffff16141561159157600191505b600181019050611514565b50806115f3576040517f08c379a000000000000000000000000000000000000000000000000000000000815260040180806020018281038252602e8152602001806122ce602e913960400191505060405180910390fd5b600160008381526020019081526020016000208390806001815401808255809150509060018203906000526020600020016000909192909190916101000a81548173ffffffffffffffffffffffffffffffffffffffff021916908373ffffffffffffffffffffffffffffffffffffffff16021790555050505050565b60065481106116e6576040517f08c379a000000000000000000000000000000000000000000000000000000000815260040180806020018281038252601c8152602001807f436f6e7374697475656e6379206e6f742072656769737465726564210000000081525060200191505060405180910390fd5b6116ef33611dc0565b8061170057506116ff3382611e70565b5b611755576040517f08c379a000000000000000000000000000000000000000000000000000000000815260040180806020018281038252603e81526020018061221f603e913960400191505060405180910390fd5b600860008281526020019081526020016000208290806001815401808255809150509060018203906000526020600020016000909192909190916101000a81548173ffffffffffffffffffffffffffffffffffffffff021916908373ffffffffffffffffffffffffffffffffffffffff160217905550506000600d60008473ffffffffffffffffffffffffffffffffffffffff1673ffffffffffffffffffffffffffffffffffffffff16815260200190815260200160002060006101000a81548160ff0219169083151502179055505050565b600754811061189f576040517f08c379a000000000000000000000000000000000000000000000000000000000815260040180806020018281038252601c8152602001807f566f74696e672063656e747265206e6f7420726567697374657265640000000081525060200191505060405180910390fd5b6000600960008381526020019081526020016000205490506118c033611dc0565b806118d157506118d03382611e70565b5b611926576040517f08c379a000000000000000000000000000000000000000000000000000000000815260040180806020018281038252603e81526020018061221f603e913960400191505060405180910390fd5b6119308382611f43565b611985576040517f08c379a000000000000000000000000000000000000000000000000000000000815260040180806020018281038252603d815260200180612291603d913960400191505060405180910390fd5b600a60008381526020019081526020016000208390806001815401808255809150509060018203906000526020600020016000909192909190916101000a81548173ffffffffffffffffffffffffffffffffffffffff021916908373ffffffffffffffffffffffffffffffffffffffff16021790555050505050565b6000611a0d838361201a565b611a62576040517f08c379a000000000000000000000000000000000000000000000000000000000815260040180806020018281038252603481526020018061225d6034913960400191505060405180910390fd5b611a6b33611dc0565b80611a7c5750611a7b3383611e70565b5b611ad1576040517f08c379a000000000000000000000000000000000000000000000000000000000815260040180806020018281038252603981526020018061234c6039913960400191505060405180910390fd5b600260008473ffffffffffffffffffffffffffffffffffffffff1673ffffffffffffffffffffffffffffffffffffffff16815260200190815260200160002054905092915050565b611b2233611dc0565b611b77576040517f08c379a000000000000000000000000000000000000000000000000000000000815260040180806020018281038252602d8152602001806122fc602d913960400191505060405180910390fd5b60008190806001815401808255809150509060018203906000526020600020016000909192909190916101000a81548173ffffffffffffffffffffffffffffffffffffffff021916908373ffffffffffffffffffffffffffffffffffffffff1602179055505050565b60006007548210611c59576040517f08c379a000000000000000000000000000000000000000000000000000000000815260040180806020018281038252601c8152602001807f566f74696e672063656e747265206e6f7420726567697374657265640000000081525060200191505060405180910390fd5b600060096000848152602001908152602001600020549050611c7a33611dc0565b80611c8b5750611c8a3382611e70565b5b611ce0576040517f08c379a000000000000000000000000000000000000000000000000000000000815260040180806020018281038252603981526020018061234c6039913960400191505060405180910390fd5b600080905060008090505b600a600086815260200190815260200160002080549050811015611db557600d6000600a60008881526020019081526020016000208381548110611d2b57fe5b9060005260206000200160009054906101000a900473ffffffffffffffffffffffffffffffffffffffff1673ffffffffffffffffffffffffffffffffffffffff1673ffffffffffffffffffffffffffffffffffffffff16815260200190815260200160002060009054906101000a900460ff1615611daa576001820191505b600181019050611ceb565b508092505050919050565b6000806000905060008090505b600080549050811015611e55578373ffffffffffffffffffffffffffffffffffffffff1660008281548110611dfe57fe5b9060005260206000200160009054906101000a900473ffffffffffffffffffffffffffffffffffffffff1673ffffffffffffffffffffffffffffffffffffffff161415611e4a57600191505b600181019050611dcd565b5080611e65576000915050611e6b565b60019150505b919050565b6000806000905060008090505b6001600085815260200190815260200160002080549050811015611f27578473ffffffffffffffffffffffffffffffffffffffff16600160008681526020019081526020016000208281548110611ed057fe5b9060005260206000200160009054906101000a900473ffffffffffffffffffffffffffffffffffffffff1673ffffffffffffffffffffffffffffffffffffffff161415611f1c57600191505b600181019050611e7d565b5080611f37576000915050611f3d565b60019150505b92915050565b6000806000905060008090505b6008600085815260200190815260200160002080549050811015611ffe578473ffffffffffffffffffffffffffffffffffffffff16600860008681526020019081526020016000208281548110611fa357fe5b9060005260206000200160009054906101000a900473ffffffffffffffffffffffffffffffffffffffff1673ffffffffffffffffffffffffffffffffffffffff161415611ff35760019150611ffe565b600181019050611f50565b508061200e576000915050612014565b60019150505b92915050565b6000806000905060008090505b600b6000858152602001908152602001600020805490508110156120d5578473ffffffffffffffffffffffffffffffffffffffff16600b6000868152602001908152602001600020828154811061207a57fe5b9060005260206000200160009054906101000a900473ffffffffffffffffffffffffffffffffffffffff1673ffffffffffffffffffffffffffffffffffffffff1614156120ca57600191506120d5565b600181019050612027565b50806120e55760009150506120eb565b60019150505b92915050565b508054600082559060005260206000209081019061210f9190612112565b50565b61213491905b80821115612130576000816000905550600101612118565b5090565b9056fe4f6e6c792073757065722061646d696e73206f7220636f6e7374697475656e63792061646d696e732063616e20726567697374657220612063616e6469646174652143616e6469646174652073686f756c642062652072656769737465726564206173206120766f74657220746f20626520726567697374657265642061732063616e646964617465214f6e6c792073757065722061646d696e732063616e20726567697374657220636f6e7374697475656e637921566f74696e672063616e20626520646f6e65206f6e6c79206f6e20616c6c6f7474656420656c656374696f6e20646179214f6e6c792073757065722061646d696e73206f7220636f6e7374697475656e63792061646d696e732063616e207265676973746572206120766f7465722143616e6469646174652073686f756c64206265207265676973746572656420696e207468617420636f6e7374697475656e637921566f7465722073686f756c64206265207265676973746572656420746f20616c6c6f6361746520766f74657220746f20766f74696e672063656e7472654f6e6c792073757065722061646d696e732063616e2061646420636f6e7374697475656e63792061646d696e73214f6e6c792073757065722061646d696e732063616e20616464206f746865722073757065722061646d696e7321566f7465722073686f756c64206265207265676973746572656420746f20766f7465214f6e6c792073757065722061646d696e73206f7220636f6e7374697475656e63792061646d696e732063616e20636f756e7420766f746573214f6e6c792073757065722061646d696e73206f7220636f6e7374697475656e63792061646d696e732063616e20726567697374657220766f74696e672063656e74726521566f74657220686173206f6e6c79206f6e6520766f746520616e6420697420686173206265656e20636173742e456c656374696f6e20646179206e6f742073657420666f7220636f6e7374697475656e637921a165627a7a723058205166668673f08df22d63618336fa520405ae0f0fe7af4dd6ef97fe0cb7b545510029",
  "source": "pragma solidity >=0.4.22 <0.6.0;\n\ncontract Voting_System\n{\n    address[] private super_admins;\n    mapping (uint => address[]) private constituencies_to_admins; //done\n    mapping (address => uint) private vote_count;\n    uint private total_admissible_voters;\n    uint private total_votes_cast;\n    uint private total_constituencies;\n    uint private registered_constituencies;\n    uint private registered_voting_centres;\n    mapping (uint => address[]) private constituency_to_voters; //done\n    mapping (uint => uint) private votingCentre_to_constituency; //done\n    mapping (uint => address[]) private votingCentre_to_voters; //done\n    mapping (uint => address[]) private constituency_to_candidates; //done\n    mapping (uint => uint256[]) private constituency_to_electionDateTime; //done\n    mapping (address => bool) private voter_to_votingStatus; //done\n    address[] private winning_candidates;\n    // mapping (uint => uint256) private constituency_to_electionEndDateTime;\n\n    constructor (uint total_consts) public {\n        total_constituencies = total_consts;\n        total_admissible_voters = 0;\n        total_votes_cast = 0;\n        registered_voting_centres = 0;\n        registered_constituencies = 0;\n        super_admins.push(msg.sender);\n    }\n\n    function caller_is_superAdmin(address caller) private view returns(bool) {\n        bool caller_is_super_admin = false;\n        for(uint i = 0; i<super_admins.length; i += 1)\n        {\n            if(super_admins[i]==caller)\n            {\n                caller_is_super_admin = true;\n            }\n        }\n        if(!caller_is_super_admin)\n        {\n            return false;\n        }\n        return true;\n    }\n\n    function caller_is_constituencyAdmin(address caller, uint constituency) private view returns (bool) {\n        bool caller_is_cAdmin = false;\n        for(uint i = 0; i<constituencies_to_admins[constituency].length; i += 1)\n        {\n            if(constituencies_to_admins[constituency][i]==caller)\n            {\n                caller_is_cAdmin = true;\n            }\n        }\n        if(!caller_is_cAdmin)\n        {\n            return false;\n        }\n        return true;\n    }\n\n    function voter_is_registered(address voter, uint constituency) private view returns (bool) {\n        bool voter_registered = false;\n        for(uint i = 0; i<constituency_to_voters[constituency].length; i += 1)\n        {\n            if(constituency_to_voters[constituency][i] == voter)\n            {\n                voter_registered = true;\n                break;\n            }\n        }\n        if(!voter_registered)\n        {\n            return false;\n        }\n        return true;\n    }\n\n    function candidate_is_registered(address candidate, uint constituency) private view returns (bool) {\n        bool candidate_registered = false;\n        for(uint i = 0; i<constituency_to_candidates[constituency].length; i += 1)\n        {\n            if(constituency_to_candidates[constituency][i] == candidate)\n            {\n                candidate_registered = true;\n                break;\n            }\n        }\n        if(!candidate_registered)\n        {\n            return false;\n        }\n        return true;\n    }\n\n    function add_superAdmin(address admin) public {\n        require(caller_is_superAdmin(msg.sender), 'Only super admins can add other super admins!');\n        super_admins.push(admin);\n    }\n\n    function add_constituencyAdmin(address cAdmin, uint constituency) public {\n        require(constituency < registered_constituencies, 'Constituency not registered!');\n        require(caller_is_superAdmin(msg.sender),'Only super admins can add constituency admins!');\n        bool caller_is_super_admin = false;\n        for(uint i = 0; i<super_admins.length; i += 1)\n        {\n            if(super_admins[i]==msg.sender)\n            {\n                caller_is_super_admin = true;\n            }\n        }\n        if(!caller_is_super_admin)\n        {\n            revert('Only super admins can add constituency admins!');\n        }\n        constituencies_to_admins[constituency].push(cAdmin);\n    }\n\n    function register_constituency() public returns (uint){\n        require(registered_constituencies < total_constituencies,'All constituencies registered!');\n        require(caller_is_superAdmin(msg.sender),'Only super admins can register constituency!');\n        uint ret_value = registered_constituencies;\n        registered_constituencies += 1;\n        return ret_value;\n    }\n\n    function register_votingCentre(uint constituency) public returns (uint) {\n        require(constituency < registered_constituencies, 'Constituency not registered!');\n        require((caller_is_superAdmin(msg.sender) || caller_is_constituencyAdmin(msg.sender,constituency)),'Only super admins or constituency admins can register voting centre!');\n        uint ret_value = registered_voting_centres;\n        registered_voting_centres += 1;\n        votingCentre_to_constituency[ret_value] = constituency;\n        return ret_value;\n    }\n\n    function register_voter(address voter, uint constituency) public {\n        require(constituency < registered_constituencies, 'Constituency not registered!');\n        require((caller_is_superAdmin(msg.sender) || caller_is_constituencyAdmin(msg.sender,constituency)),'Only super admins or constituency admins can register a voter!');\n        constituency_to_voters[constituency].push(voter);\n        voter_to_votingStatus[voter] = false;\n    }\n\n    function allocate_voter(address voter, uint voting_centre) public {\n        require(voting_centre < registered_voting_centres, 'Voting centre not registered');\n        uint constituency = votingCentre_to_constituency[voting_centre];\n        require((caller_is_superAdmin(msg.sender) || caller_is_constituencyAdmin(msg.sender,constituency)),'Only super admins or constituency admins can register a voter!');\n        require(voter_is_registered(voter,constituency),'Voter should be registered to allocate voter to voting centre');\n        votingCentre_to_voters[voting_centre].push(voter);\n    }\n\n    function register_candidate(address candidate, uint constituency) public {\n        require(constituency < registered_constituencies, 'Constituency not registered!');\n        require((caller_is_superAdmin(msg.sender) || caller_is_constituencyAdmin(msg.sender,constituency)),'Only super admins or constituency admins can register a candidate!');\n        require(voter_is_registered(candidate,constituency),'Candidate should be registered as a voter to be registered as candidate!');\n        constituency_to_candidates[constituency].push(candidate);\n    }\n\n    function set_electionDate(uint constituency, uint256 start_dateTime, uint256 end_dateTime) public {\n        require(constituency < registered_constituencies, 'Constituency not registered!');\n        require((caller_is_superAdmin(msg.sender) || caller_is_constituencyAdmin(msg.sender,constituency)),'Only super admins or constituency admins can register a candidate!');\n        constituency_to_electionDateTime[constituency].push(start_dateTime);\n        constituency_to_electionDateTime[constituency].push(end_dateTime);\n    }\n\n    function vote(uint constituency, uint voting_centre, address candidate) public {\n        require(constituency < registered_constituencies, 'Constituency not registered!');\n        require(voting_centre < registered_voting_centres, 'Voting centre not registered!');\n        require(voter_is_registered(msg.sender,constituency),'Voter should be registered to vote!');\n        require(candidate_is_registered(candidate,constituency),'Candidate should be registered in that constituency!');\n        require(constituency_to_electionDateTime[constituency].length == 2,'Election day not set for constituency!');\n        uint256 current_time = now;\n        if(current_time < constituency_to_electionDateTime[constituency][0] || current_time > constituency_to_electionDateTime[constituency][1])\n        {\n            revert('Voting can be done only on allotted election day!');\n        }\n        require(!voter_to_votingStatus[msg.sender],'Voter has only one vote and it has been cast.');\n        vote_count[candidate] += 1;\n    }\n\n    function get_totalVotes_votingCentre(uint voting_centre) public view returns (uint) {\n        require(voting_centre < registered_voting_centres, 'Voting centre not registered');\n        uint constituency = votingCentre_to_constituency[voting_centre];\n        require((caller_is_superAdmin(msg.sender) || caller_is_constituencyAdmin(msg.sender,constituency)),'Only super admins or constituency admins can count votes!');\n        uint count = 0;\n        for(uint i = 0; i < votingCentre_to_voters[voting_centre].length; i += 1)\n        {\n            if(voter_to_votingStatus[votingCentre_to_voters[voting_centre][i]])\n            {\n                count += 1;\n            }\n        }\n        return count;\n    }\n\n    function get_totalVotes_constituency(uint constituency) public view returns (uint) {\n        require(constituency < registered_constituencies, 'Constituency not registered!');\n        require((caller_is_superAdmin(msg.sender) || caller_is_constituencyAdmin(msg.sender,constituency)),'Only super admins or constituency admins can count votes!');\n        uint count = 0;\n        for(uint i = 0; i < constituency_to_candidates[constituency].length; i += 1)\n        {\n            count += vote_count[constituency_to_candidates[constituency][i]];\n        }\n        return count;\n    }\n\n    function get_totalVotes_candidate(address candidate, uint constituency) public view returns (uint) {\n        require(candidate_is_registered(candidate,constituency),'Candidate should be registered in that constituency!');\n        require((caller_is_superAdmin(msg.sender) || caller_is_constituencyAdmin(msg.sender,constituency)),'Only super admins or constituency admins can count votes!');\n        return vote_count[candidate];\n    }\n\n    function get_constituency_winner(uint constituency) public returns (address[] memory) {\n        require(constituency < registered_constituencies, 'Constituency not registered!');\n        require((caller_is_superAdmin(msg.sender) || caller_is_constituencyAdmin(msg.sender,constituency)),'Only super admins or constituency admins can count votes!');\n        uint current_winner_count = 0;\n        for(uint i = 0; i < constituency_to_candidates[constituency].length; i += 1)\n        {\n            if(vote_count[constituency_to_candidates[constituency][i]] > current_winner_count)\n            {\n                delete winning_candidates;\n                winning_candidates.push(constituency_to_candidates[constituency][i]);\n                current_winner_count = vote_count[constituency_to_candidates[constituency][i]];\n            }\n            else if(vote_count[constituency_to_candidates[constituency][i]] == current_winner_count)\n            {\n                winning_candidates.push(constituency_to_candidates[constituency][i]);\n            }\n        }\n        return winning_candidates;\n    }\n}",
  "sourcePath": "/home/tarun/Documents/personal_projects/Indian-voting-system/contracts/voting_system.sol",
  "compiler": {
    "name": "solc",
    "version": "0.5.8+commit.23d335f2.Emscripten.clang"
  },
  "schemaVersion": "3.0.16",
  "updatedAt": "2019-10-07T09:46:49.892Z",
  "devdoc": {
    "methods": {}
  },
  "userdoc": {
    "methods": {}
  }
}