{
  "contractName": "Voting_System",
  "abi": [
    {
      "inputs": [
        {
          "name": "total_consts",
          "type": "uint256"
        }
      ],
      "payable": false,
      "stateMutability": "nonpayable",
      "type": "constructor"
    },
    {
      "constant": false,
      "inputs": [
        {
          "name": "admin",
          "type": "address"
        }
      ],
      "name": "add_admin",
      "outputs": [],
      "payable": false,
      "stateMutability": "nonpayable",
      "type": "function"
    },
    {
      "constant": false,
      "inputs": [],
      "name": "register_constituency",
      "outputs": [
        {
          "name": "",
          "type": "uint256"
        }
      ],
      "payable": false,
      "stateMutability": "nonpayable",
      "type": "function"
    },
    {
      "constant": false,
      "inputs": [
        {
          "name": "constituency",
          "type": "uint256"
        }
      ],
      "name": "register_votingCentre",
      "outputs": [
        {
          "name": "",
          "type": "uint256"
        }
      ],
      "payable": false,
      "stateMutability": "nonpayable",
      "type": "function"
    },
    {
      "constant": false,
      "inputs": [
        {
          "name": "voter",
          "type": "address"
        },
        {
          "name": "constituency",
          "type": "uint256"
        }
      ],
      "name": "register_voter",
      "outputs": [],
      "payable": false,
      "stateMutability": "nonpayable",
      "type": "function"
    },
    {
      "constant": false,
      "inputs": [
        {
          "name": "voter",
          "type": "address"
        },
        {
          "name": "voting_centre",
          "type": "uint256"
        }
      ],
      "name": "allocate_voter",
      "outputs": [],
      "payable": false,
      "stateMutability": "nonpayable",
      "type": "function"
    }
  ],
  "bytecode": "0x608060405234801561001057600080fd5b50604051602080610cda8339810180604052602081101561003057600080fd5b810190808051906020019092919050505080600881905550600060068190555060006007819055506000600a81905550600060098190555060023390806001815401808255809150509060018203906000526020600020016000909192909190916101000a81548173ffffffffffffffffffffffffffffffffffffffff021916908373ffffffffffffffffffffffffffffffffffffffff1602179055505050610bfc806100de6000396000f3fe608060405234801561001057600080fd5b50600436106100575760003560e01c806313a070b71461005c578063336e0d81146100a05780633fb7292c146100be578063c61f668814610100578063c813f2361461014e575b600080fd5b61009e6004803603602081101561007257600080fd5b81019080803573ffffffffffffffffffffffffffffffffffffffff16906020019092919050505061019c565b005b6100a86102f0565b6040518082815260200191505060405180910390f35b6100ea600480360360208110156100d457600080fd5b8101908080359060200190929190505050610475565b6040518082815260200191505060405180910390f35b61014c6004803603604081101561011657600080fd5b81019080803573ffffffffffffffffffffffffffffffffffffffff16906020019092919080359060200190929190505050610612565b005b61019a6004803603604081101561016457600080fd5b81019080803573ffffffffffffffffffffffffffffffffffffffff1690602001909291908035906020019092919050505061080c565b005b600080905060008090505b60028054905081101561022f573373ffffffffffffffffffffffffffffffffffffffff16600282815481106101d857fe5b9060005260206000200160009054906101000a900473ffffffffffffffffffffffffffffffffffffffff1673ffffffffffffffffffffffffffffffffffffffff16141561022457600191505b6001810190506101a7565b5080610286576040517f08c379a0000000000000000000000000000000000000000000000000000000008152600401808060200182810382526021815260200180610bb06021913960400191505060405180910390fd5b60028290806001815401808255809150509060018203906000526020600020016000909192909190916101000a81548173ffffffffffffffffffffffffffffffffffffffff021916908373ffffffffffffffffffffffffffffffffffffffff160217905550505050565b60006008546009541061036b576040517f08c379a000000000000000000000000000000000000000000000000000000000815260040180806020018281038252601e8152602001807f416c6c20636f6e7374697475656e63696573207265676973746572656421000081525060200191505060405180910390fd5b600080905060008090505b6002805490508110156103fe573373ffffffffffffffffffffffffffffffffffffffff16600282815481106103a757fe5b9060005260206000200160009054906101000a900473ffffffffffffffffffffffffffffffffffffffff1673ffffffffffffffffffffffffffffffffffffffff1614156103f357600191505b600181019050610376565b5080610455576040517f08c379a0000000000000000000000000000000000000000000000000000000008152600401808060200182810382526026815260200180610b8a6026913960400191505060405180910390fd5b600060095490506001600960008282540192505081905550809250505090565b600060095482106104ee576040517f08c379a000000000000000000000000000000000000000000000000000000000815260040180806020018281038252601c8152602001807f436f6e7374697475656e6379206e6f742072656769737465726564210000000081525060200191505060405180910390fd5b600080905060008090505b600280549050811015610581573373ffffffffffffffffffffffffffffffffffffffff166002828154811061052a57fe5b9060005260206000200160009054906101000a900473ffffffffffffffffffffffffffffffffffffffff1673ffffffffffffffffffffffffffffffffffffffff16141561057657600191505b6001810190506104f9565b50806105d8576040517f08c379a0000000000000000000000000000000000000000000000000000000008152600401808060200182810382526028815260200180610b316028913960400191505060405180910390fd5b6000600a5490506001600a6000828254019250508190555083600c6000838152602001908152602001600020819055508092505050919050565b6009548110610689576040517f08c379a000000000000000000000000000000000000000000000000000000000815260040180806020018281038252601c8152602001807f436f6e7374697475656e6379206e6f742072656769737465726564210000000081525060200191505060405180910390fd5b600080905060008090505b60028054905081101561071c573373ffffffffffffffffffffffffffffffffffffffff16600282815481106106c557fe5b9060005260206000200160009054906101000a900473ffffffffffffffffffffffffffffffffffffffff1673ffffffffffffffffffffffffffffffffffffffff16141561071157600191505b600181019050610694565b5080610790576040517f08c379a00000000000000000000000000000000000000000000000000000000081526004018080602001828103825260208152602001807f4f6e6c792061646d696e732063616e20726567697374657220766f746572732181525060200191505060405180910390fd5b600b60008381526020019081526020016000208390806001815401808255809150509060018203906000526020600020016000909192909190916101000a81548173ffffffffffffffffffffffffffffffffffffffff021916908373ffffffffffffffffffffffffffffffffffffffff16021790555050505050565b600a548110610883576040517f08c379a000000000000000000000000000000000000000000000000000000000815260040180806020018281038252601c8152602001807f566f74696e672063656e747265206e6f7420726567697374657265640000000081525060200191505060405180910390fd5b600080905060008090505b600280549050811015610916573373ffffffffffffffffffffffffffffffffffffffff16600282815481106108bf57fe5b9060005260206000200160009054906101000a900473ffffffffffffffffffffffffffffffffffffffff1673ffffffffffffffffffffffffffffffffffffffff16141561090b57600191505b60018101905061088e565b508061096d576040517f08c379a0000000000000000000000000000000000000000000000000000000008152600401808060200182810382526031815260200180610b596031913960400191505060405180910390fd5b6000600c6000848152602001908152602001600020549050600080905060008090505b600b600084815260200190815260200160002080549050811015610a3e578573ffffffffffffffffffffffffffffffffffffffff16600b600085815260200190815260200160002082815481106109e357fe5b9060005260206000200160009054906101000a900473ffffffffffffffffffffffffffffffffffffffff1673ffffffffffffffffffffffffffffffffffffffff161415610a335760019150610a3e565b600181019050610990565b5080610ab2576040517f08c379a000000000000000000000000000000000000000000000000000000000815260040180806020018281038252601e8152602001807f566f74657220686173206e6f74206265656e207265676973746572656421000081525060200191505060405180910390fd5b600d60008581526020019081526020016000208590806001815401808255809150509060018203906000526020600020016000909192909190916101000a81548173ffffffffffffffffffffffffffffffffffffffff021916908373ffffffffffffffffffffffffffffffffffffffff16021790555050505050505056fe4f6e6c792061646d696e732063616e20726567697374657220766f74696e672063656e74726573214f6e6c792061646d696e732063616e20616c6c6f6361746520766f74657220746f20766f74696e672063656e74726573214f6e6c792061646d696e732063616e20726567697374657220636f6e7374697475656e6379214f6e6c792061646d696e732063616e20616464206f746865722061646d696e7321a165627a7a7230582079e7cb86d6e6ae5d66660a308e79b58065cc5411649c9c1faa33eae801a4834a0029",
  "source": "pragma solidity >=0.4.22 <0.6.0;\n\ncontract Voting_System\n{\n    address[] private voters;\n    //mapping (address => string) private voter_to_voterId;\n    address[] private candidates;\n    //mapping (address => string) private candidate_to_voterId;\n    address[] private admins;\n    mapping (uint => address[]) constituencies_to_admins;\n    mapping (uint => address[]) votingCentre_to_admins;\n    mapping (address => uint) private vote_count;\n    uint total_admissible_voters;\n    uint total_votes_cast;\n    uint total_constituencies;\n    uint registered_constituencies;\n    uint registered_voting_centres;\n    mapping (uint => address[]) constituency_to_voters; //done\n    mapping (uint => uint) votingCentre_to_constituency; //done\n    mapping (uint => address[]) votingCentre_to_voters; //done\n    mapping (uint => address[]) constituency_to_candidates;\n\n    constructor (uint total_consts) public {\n        total_constituencies = total_consts;\n        total_admissible_voters = 0;\n        total_votes_cast = 0;\n        registered_voting_centres = 0;\n        registered_constituencies = 0;\n        admins.push(msg.sender);\n    }\n\n    function add_admin(address admin) public {\n        bool caller_is_admin = false;\n        for(uint i = 0; i<admins.length; i += 1)\n        {\n            if(admins[i]==msg.sender)\n            {\n                caller_is_admin = true;\n            }\n        }\n        if(!caller_is_admin)\n        {\n            revert('Only admins can add other admins!');\n        }\n        admins.push(admin);\n    }\n\n    function register_constituency() public returns (uint){\n        require(registered_constituencies < total_constituencies,'All constituencies registered!');\n        bool caller_is_admin = false;\n        for(uint i = 0; i<admins.length; i += 1)\n        {\n            if(admins[i]==msg.sender)\n            {\n                caller_is_admin = true;\n            }\n        }\n        if(!caller_is_admin)\n        {\n            revert('Only admins can register constituency!');\n        }\n        uint ret_value = registered_constituencies;\n        registered_constituencies += 1;\n        return ret_value;\n    }\n\n    function register_votingCentre(uint constituency) public returns (uint) {\n        require(constituency < registered_constituencies, 'Constituency not registered!');\n        bool caller_is_admin = false;\n        for(uint i = 0; i<admins.length; i += 1)\n        {\n            if(admins[i]==msg.sender)\n            {\n                caller_is_admin = true;\n            }\n        }\n        if(!caller_is_admin)\n        {\n            revert('Only admins can register voting centres!');\n        }\n        uint ret_value = registered_voting_centres;\n        registered_voting_centres += 1;\n        votingCentre_to_constituency[ret_value] = constituency;\n        return ret_value;\n    }\n\n    function register_voter(address voter, uint constituency) public {\n        require(constituency < registered_constituencies, 'Constituency not registered!');\n        bool caller_is_admin = false;\n        for(uint i = 0; i<admins.length; i += 1)\n        {\n            if(admins[i]==msg.sender)\n            {\n                caller_is_admin = true;\n            }\n        }\n        if(!caller_is_admin)\n        {\n            revert('Only admins can register voters!');\n        }\n        constituency_to_voters[constituency].push(voter);\n    }\n\n    function allocate_voter(address voter, uint voting_centre) public {\n        require(voting_centre < registered_voting_centres, 'Voting centre not registered');\n        bool caller_is_admin = false;\n        for(uint i = 0; i<admins.length; i += 1)\n        {\n            if(admins[i]==msg.sender)\n            {\n                caller_is_admin = true;\n            }\n        }\n        if(!caller_is_admin)\n        {\n            revert('Only admins can allocate voter to voting centres!');\n        }\n        uint constituency = votingCentre_to_constituency[voting_centre];\n        bool voter_registered = false;\n        for(uint i = 0; i<constituency_to_voters[constituency].length; i += 1)\n        {\n            if(constituency_to_voters[constituency][i] == voter)\n            {\n                voter_registered = true;\n                break;\n            }\n        }\n        if(!voter_registered)\n        {\n            revert('Voter has not been registered!');\n        }\n        votingCentre_to_voters[voting_centre].push(voter);\n    }\n}",
  "sourcePath": "/home/tarun/Documents/personal_projects/Indian-voting-system/contracts/voting_system.sol",
  "compiler": {
    "name": "solc",
    "version": "0.5.8+commit.23d335f2.Emscripten.clang"
  },
  "schemaVersion": "3.0.16",
  "updatedAt": "2019-10-05T18:16:39.191Z",
  "devdoc": {
    "methods": {}
  },
  "userdoc": {
    "methods": {}
  }
}